Archive member included to satisfy reference by file (symbol)

c:/st/stm32cubeide_1.3.0/stm32cubeide/plugins/com.st.stm32cube.ide.mcu.externaltools.gnu-tools-for-stm32.7-2018-q2-update.win32_1.0.0.201904181610/tools/bin/../lib/gcc/arm-none-eabi/7.3.1/../../../../arm-none-eabi/lib/thumb/v7-m\libc_nano.a(lib_a-errno.o)
                              Src/syscalls.o (__errno)
c:/st/stm32cubeide_1.3.0/stm32cubeide/plugins/com.st.stm32cube.ide.mcu.externaltools.gnu-tools-for-stm32.7-2018-q2-update.win32_1.0.0.201904181610/tools/bin/../lib/gcc/arm-none-eabi/7.3.1/../../../../arm-none-eabi/lib/thumb/v7-m\libc_nano.a(lib_a-exit.o)
                              c:/st/stm32cubeide_1.3.0/stm32cubeide/plugins/com.st.stm32cube.ide.mcu.externaltools.gnu-tools-for-stm32.7-2018-q2-update.win32_1.0.0.201904181610/tools/bin/../lib/gcc/arm-none-eabi/7.3.1/../../../../arm-none-eabi/lib/thumb/v7-m/crt0.o (exit)
c:/st/stm32cubeide_1.3.0/stm32cubeide/plugins/com.st.stm32cube.ide.mcu.externaltools.gnu-tools-for-stm32.7-2018-q2-update.win32_1.0.0.201904181610/tools/bin/../lib/gcc/arm-none-eabi/7.3.1/../../../../arm-none-eabi/lib/thumb/v7-m\libc_nano.a(lib_a-impure.o)
                              c:/st/stm32cubeide_1.3.0/stm32cubeide/plugins/com.st.stm32cube.ide.mcu.externaltools.gnu-tools-for-stm32.7-2018-q2-update.win32_1.0.0.201904181610/tools/bin/../lib/gcc/arm-none-eabi/7.3.1/../../../../arm-none-eabi/lib/thumb/v7-m\libc_nano.a(lib_a-exit.o) (_global_impure_ptr)
c:/st/stm32cubeide_1.3.0/stm32cubeide/plugins/com.st.stm32cube.ide.mcu.externaltools.gnu-tools-for-stm32.7-2018-q2-update.win32_1.0.0.201904181610/tools/bin/../lib/gcc/arm-none-eabi/7.3.1/../../../../arm-none-eabi/lib/thumb/v7-m\libc_nano.a(lib_a-init.o)
                              c:/st/stm32cubeide_1.3.0/stm32cubeide/plugins/com.st.stm32cube.ide.mcu.externaltools.gnu-tools-for-stm32.7-2018-q2-update.win32_1.0.0.201904181610/tools/bin/../lib/gcc/arm-none-eabi/7.3.1/../../../../arm-none-eabi/lib/thumb/v7-m/crt0.o (__libc_init_array)
c:/st/stm32cubeide_1.3.0/stm32cubeide/plugins/com.st.stm32cube.ide.mcu.externaltools.gnu-tools-for-stm32.7-2018-q2-update.win32_1.0.0.201904181610/tools/bin/../lib/gcc/arm-none-eabi/7.3.1/../../../../arm-none-eabi/lib/thumb/v7-m\libc_nano.a(lib_a-memcmp.o)
                              grbl/gcode.o (memcmp)
c:/st/stm32cubeide_1.3.0/stm32cubeide/plugins/com.st.stm32cube.ide.mcu.externaltools.gnu-tools-for-stm32.7-2018-q2-update.win32_1.0.0.201904181610/tools/bin/../lib/gcc/arm-none-eabi/7.3.1/../../../../arm-none-eabi/lib/thumb/v7-m\libc_nano.a(lib_a-memset.o)
                              c:/st/stm32cubeide_1.3.0/stm32cubeide/plugins/com.st.stm32cube.ide.mcu.externaltools.gnu-tools-for-stm32.7-2018-q2-update.win32_1.0.0.201904181610/tools/bin/../lib/gcc/arm-none-eabi/7.3.1/../../../../arm-none-eabi/lib/thumb/v7-m/crt0.o (memset)
c:/st/stm32cubeide_1.3.0/stm32cubeide/plugins/com.st.stm32cube.ide.mcu.externaltools.gnu-tools-for-stm32.7-2018-q2-update.win32_1.0.0.201904181610/tools/bin/../lib/gcc/arm-none-eabi/7.3.1/../../../../arm-none-eabi/lib/thumb/v7-m\libc_nano.a(lib_a-sprintf.o)
                              stm32/stm32utilities.o (sprintf)
c:/st/stm32cubeide_1.3.0/stm32cubeide/plugins/com.st.stm32cube.ide.mcu.externaltools.gnu-tools-for-stm32.7-2018-q2-update.win32_1.0.0.201904181610/tools/bin/../lib/gcc/arm-none-eabi/7.3.1/../../../../arm-none-eabi/lib/thumb/v7-m\libc_nano.a(lib_a-nano-svfprintf.o)
                              c:/st/stm32cubeide_1.3.0/stm32cubeide/plugins/com.st.stm32cube.ide.mcu.externaltools.gnu-tools-for-stm32.7-2018-q2-update.win32_1.0.0.201904181610/tools/bin/../lib/gcc/arm-none-eabi/7.3.1/../../../../arm-none-eabi/lib/thumb/v7-m\libc_nano.a(lib_a-sprintf.o) (_svfprintf_r)
c:/st/stm32cubeide_1.3.0/stm32cubeide/plugins/com.st.stm32cube.ide.mcu.externaltools.gnu-tools-for-stm32.7-2018-q2-update.win32_1.0.0.201904181610/tools/bin/../lib/gcc/arm-none-eabi/7.3.1/../../../../arm-none-eabi/lib/thumb/v7-m\libc_nano.a(lib_a-nano-vfprintf_i.o)
                              c:/st/stm32cubeide_1.3.0/stm32cubeide/plugins/com.st.stm32cube.ide.mcu.externaltools.gnu-tools-for-stm32.7-2018-q2-update.win32_1.0.0.201904181610/tools/bin/../lib/gcc/arm-none-eabi/7.3.1/../../../../arm-none-eabi/lib/thumb/v7-m\libc_nano.a(lib_a-nano-svfprintf.o) (_printf_i)
c:/st/stm32cubeide_1.3.0/stm32cubeide/plugins/com.st.stm32cube.ide.mcu.externaltools.gnu-tools-for-stm32.7-2018-q2-update.win32_1.0.0.201904181610/tools/bin/../lib/gcc/arm-none-eabi/7.3.1/../../../../arm-none-eabi/lib/thumb/v7-m\libc_nano.a(lib_a-memchr-stub.o)
                              c:/st/stm32cubeide_1.3.0/stm32cubeide/plugins/com.st.stm32cube.ide.mcu.externaltools.gnu-tools-for-stm32.7-2018-q2-update.win32_1.0.0.201904181610/tools/bin/../lib/gcc/arm-none-eabi/7.3.1/../../../../arm-none-eabi/lib/thumb/v7-m\libc_nano.a(lib_a-nano-svfprintf.o) (memchr)
c:/st/stm32cubeide_1.3.0/stm32cubeide/plugins/com.st.stm32cube.ide.mcu.externaltools.gnu-tools-for-stm32.7-2018-q2-update.win32_1.0.0.201904181610/tools/bin/../lib/gcc/arm-none-eabi/7.3.1/../../../../arm-none-eabi/lib/thumb/v7-m\libc_nano.a(lib_a-memcpy-stub.o)
                              c:/st/stm32cubeide_1.3.0/stm32cubeide/plugins/com.st.stm32cube.ide.mcu.externaltools.gnu-tools-for-stm32.7-2018-q2-update.win32_1.0.0.201904181610/tools/bin/../lib/gcc/arm-none-eabi/7.3.1/../../../../arm-none-eabi/lib/thumb/v7-m\libc_nano.a(lib_a-nano-svfprintf.o) (memcpy)
c:/st/stm32cubeide_1.3.0/stm32cubeide/plugins/com.st.stm32cube.ide.mcu.externaltools.gnu-tools-for-stm32.7-2018-q2-update.win32_1.0.0.201904181610/tools/bin/../lib/gcc/arm-none-eabi/7.3.1/../../../../arm-none-eabi/lib/thumb/v7-m\libc_nano.a(lib_a-memmove.o)
                              c:/st/stm32cubeide_1.3.0/stm32cubeide/plugins/com.st.stm32cube.ide.mcu.externaltools.gnu-tools-for-stm32.7-2018-q2-update.win32_1.0.0.201904181610/tools/bin/../lib/gcc/arm-none-eabi/7.3.1/../../../../arm-none-eabi/lib/thumb/v7-m\libc_nano.a(lib_a-nano-svfprintf.o) (memmove)
c:/st/stm32cubeide_1.3.0/stm32cubeide/plugins/com.st.stm32cube.ide.mcu.externaltools.gnu-tools-for-stm32.7-2018-q2-update.win32_1.0.0.201904181610/tools/bin/../lib/gcc/arm-none-eabi/7.3.1/../../../../arm-none-eabi/lib/thumb/v7-m\libc_nano.a(lib_a-nano-freer.o)
                              c:/st/stm32cubeide_1.3.0/stm32cubeide/plugins/com.st.stm32cube.ide.mcu.externaltools.gnu-tools-for-stm32.7-2018-q2-update.win32_1.0.0.201904181610/tools/bin/../lib/gcc/arm-none-eabi/7.3.1/../../../../arm-none-eabi/lib/thumb/v7-m\libc_nano.a(lib_a-nano-svfprintf.o) (_free_r)
c:/st/stm32cubeide_1.3.0/stm32cubeide/plugins/com.st.stm32cube.ide.mcu.externaltools.gnu-tools-for-stm32.7-2018-q2-update.win32_1.0.0.201904181610/tools/bin/../lib/gcc/arm-none-eabi/7.3.1/../../../../arm-none-eabi/lib/thumb/v7-m\libc_nano.a(lib_a-nano-mallocr.o)
                              c:/st/stm32cubeide_1.3.0/stm32cubeide/plugins/com.st.stm32cube.ide.mcu.externaltools.gnu-tools-for-stm32.7-2018-q2-update.win32_1.0.0.201904181610/tools/bin/../lib/gcc/arm-none-eabi/7.3.1/../../../../arm-none-eabi/lib/thumb/v7-m\libc_nano.a(lib_a-nano-svfprintf.o) (_malloc_r)
c:/st/stm32cubeide_1.3.0/stm32cubeide/plugins/com.st.stm32cube.ide.mcu.externaltools.gnu-tools-for-stm32.7-2018-q2-update.win32_1.0.0.201904181610/tools/bin/../lib/gcc/arm-none-eabi/7.3.1/../../../../arm-none-eabi/lib/thumb/v7-m\libc_nano.a(lib_a-nano-reallocr.o)
                              c:/st/stm32cubeide_1.3.0/stm32cubeide/plugins/com.st.stm32cube.ide.mcu.externaltools.gnu-tools-for-stm32.7-2018-q2-update.win32_1.0.0.201904181610/tools/bin/../lib/gcc/arm-none-eabi/7.3.1/../../../../arm-none-eabi/lib/thumb/v7-m\libc_nano.a(lib_a-nano-svfprintf.o) (_realloc_r)
c:/st/stm32cubeide_1.3.0/stm32cubeide/plugins/com.st.stm32cube.ide.mcu.externaltools.gnu-tools-for-stm32.7-2018-q2-update.win32_1.0.0.201904181610/tools/bin/../lib/gcc/arm-none-eabi/7.3.1/../../../../arm-none-eabi/lib/thumb/v7-m\libc_nano.a(lib_a-sbrkr.o)
                              c:/st/stm32cubeide_1.3.0/stm32cubeide/plugins/com.st.stm32cube.ide.mcu.externaltools.gnu-tools-for-stm32.7-2018-q2-update.win32_1.0.0.201904181610/tools/bin/../lib/gcc/arm-none-eabi/7.3.1/../../../../arm-none-eabi/lib/thumb/v7-m\libc_nano.a(lib_a-nano-mallocr.o) (_sbrk_r)
c:/st/stm32cubeide_1.3.0/stm32cubeide/plugins/com.st.stm32cube.ide.mcu.externaltools.gnu-tools-for-stm32.7-2018-q2-update.win32_1.0.0.201904181610/tools/bin/../lib/gcc/arm-none-eabi/7.3.1/../../../../arm-none-eabi/lib/thumb/v7-m\libc_nano.a(lib_a-mlock.o)
                              c:/st/stm32cubeide_1.3.0/stm32cubeide/plugins/com.st.stm32cube.ide.mcu.externaltools.gnu-tools-for-stm32.7-2018-q2-update.win32_1.0.0.201904181610/tools/bin/../lib/gcc/arm-none-eabi/7.3.1/../../../../arm-none-eabi/lib/thumb/v7-m\libc_nano.a(lib_a-nano-freer.o) (__malloc_lock)
c:/st/stm32cubeide_1.3.0/stm32cubeide/plugins/com.st.stm32cube.ide.mcu.externaltools.gnu-tools-for-stm32.7-2018-q2-update.win32_1.0.0.201904181610/tools/bin/../lib/gcc/arm-none-eabi/7.3.1/../../../../arm-none-eabi/lib/thumb/v7-m\libc_nano.a(lib_a-nano-msizer.o)
                              c:/st/stm32cubeide_1.3.0/stm32cubeide/plugins/com.st.stm32cube.ide.mcu.externaltools.gnu-tools-for-stm32.7-2018-q2-update.win32_1.0.0.201904181610/tools/bin/../lib/gcc/arm-none-eabi/7.3.1/../../../../arm-none-eabi/lib/thumb/v7-m\libc_nano.a(lib_a-nano-reallocr.o) (_malloc_usable_size_r)
c:/st/stm32cubeide_1.3.0/stm32cubeide/plugins/com.st.stm32cube.ide.mcu.externaltools.gnu-tools-for-stm32.7-2018-q2-update.win32_1.0.0.201904181610/tools/bin/../lib/gcc/arm-none-eabi/7.3.1/../../../../arm-none-eabi/lib/thumb/v7-m\libc_nano.a(lib_a-reent.o)
                              c:/st/stm32cubeide_1.3.0/stm32cubeide/plugins/com.st.stm32cube.ide.mcu.externaltools.gnu-tools-for-stm32.7-2018-q2-update.win32_1.0.0.201904181610/tools/bin/../lib/gcc/arm-none-eabi/7.3.1/../../../../arm-none-eabi/lib/thumb/v7-m\libc_nano.a(lib_a-sbrkr.o) (errno)
c:/st/stm32cubeide_1.3.0/stm32cubeide/plugins/com.st.stm32cube.ide.mcu.externaltools.gnu-tools-for-stm32.7-2018-q2-update.win32_1.0.0.201904181610/tools/bin/../lib/gcc/arm-none-eabi/7.3.1/../../../../arm-none-eabi/lib/thumb/v7-m\libm.a(lib_a-s_ceil.o)
                              grbl/nuts_bolts.o (ceil)
c:/st/stm32cubeide_1.3.0/stm32cubeide/plugins/com.st.stm32cube.ide.mcu.externaltools.gnu-tools-for-stm32.7-2018-q2-update.win32_1.0.0.201904181610/tools/bin/../lib/gcc/arm-none-eabi/7.3.1/../../../../arm-none-eabi/lib/thumb/v7-m\libm.a(lib_a-s_floor.o)
                              grbl/motion_control.o (floor)
c:/st/stm32cubeide_1.3.0/stm32cubeide/plugins/com.st.stm32cube.ide.mcu.externaltools.gnu-tools-for-stm32.7-2018-q2-update.win32_1.0.0.201904181610/tools/bin/../lib/gcc/arm-none-eabi/7.3.1/../../../../arm-none-eabi/lib/thumb/v7-m\libm.a(lib_a-s_lround.o)
                              grbl/limits.o (lround)
c:/st/stm32cubeide_1.3.0/stm32cubeide/plugins/com.st.stm32cube.ide.mcu.externaltools.gnu-tools-for-stm32.7-2018-q2-update.win32_1.0.0.201904181610/tools/bin/../lib/gcc/arm-none-eabi/7.3.1/../../../../arm-none-eabi/lib/thumb/v7-m\libm.a(lib_a-s_round.o)
                              grbl/gcode.o (round)
c:/st/stm32cubeide_1.3.0/stm32cubeide/plugins/com.st.stm32cube.ide.mcu.externaltools.gnu-tools-for-stm32.7-2018-q2-update.win32_1.0.0.201904181610/tools/bin/../lib/gcc/arm-none-eabi/7.3.1/../../../../arm-none-eabi/lib/thumb/v7-m\libm.a(lib_a-s_trunc.o)
                              grbl/gcode.o (trunc)
c:/st/stm32cubeide_1.3.0/stm32cubeide/plugins/com.st.stm32cube.ide.mcu.externaltools.gnu-tools-for-stm32.7-2018-q2-update.win32_1.0.0.201904181610/tools/bin/../lib/gcc/arm-none-eabi/7.3.1/../../../../arm-none-eabi/lib/thumb/v7-m\libm.a(lib_a-sf_ceil.o)
                              grbl/stepper.o (ceilf)
c:/st/stm32cubeide_1.3.0/stm32cubeide/plugins/com.st.stm32cube.ide.mcu.externaltools.gnu-tools-for-stm32.7-2018-q2-update.win32_1.0.0.201904181610/tools/bin/../lib/gcc/arm-none-eabi/7.3.1/../../../../arm-none-eabi/lib/thumb/v7-m\libm.a(lib_a-sf_cos.o)
                              grbl/motion_control.o (cosf)
c:/st/stm32cubeide_1.3.0/stm32cubeide/plugins/com.st.stm32cube.ide.mcu.externaltools.gnu-tools-for-stm32.7-2018-q2-update.win32_1.0.0.201904181610/tools/bin/../lib/gcc/arm-none-eabi/7.3.1/../../../../arm-none-eabi/lib/thumb/v7-m\libm.a(lib_a-sf_sin.o)
                              grbl/motion_control.o (sinf)
c:/st/stm32cubeide_1.3.0/stm32cubeide/plugins/com.st.stm32cube.ide.mcu.externaltools.gnu-tools-for-stm32.7-2018-q2-update.win32_1.0.0.201904181610/tools/bin/../lib/gcc/arm-none-eabi/7.3.1/../../../../arm-none-eabi/lib/thumb/v7-m\libm.a(lib_a-w_sqrt.o)
                              grbl/gcode.o (sqrt)
c:/st/stm32cubeide_1.3.0/stm32cubeide/plugins/com.st.stm32cube.ide.mcu.externaltools.gnu-tools-for-stm32.7-2018-q2-update.win32_1.0.0.201904181610/tools/bin/../lib/gcc/arm-none-eabi/7.3.1/../../../../arm-none-eabi/lib/thumb/v7-m\libm.a(lib_a-wf_atan2.o)
                              grbl/motion_control.o (atan2f)
c:/st/stm32cubeide_1.3.0/stm32cubeide/plugins/com.st.stm32cube.ide.mcu.externaltools.gnu-tools-for-stm32.7-2018-q2-update.win32_1.0.0.201904181610/tools/bin/../lib/gcc/arm-none-eabi/7.3.1/../../../../arm-none-eabi/lib/thumb/v7-m\libm.a(lib_a-wf_sqrt.o)
                              grbl/limits.o (sqrtf)
c:/st/stm32cubeide_1.3.0/stm32cubeide/plugins/com.st.stm32cube.ide.mcu.externaltools.gnu-tools-for-stm32.7-2018-q2-update.win32_1.0.0.201904181610/tools/bin/../lib/gcc/arm-none-eabi/7.3.1/../../../../arm-none-eabi/lib/thumb/v7-m\libm.a(lib_a-e_sqrt.o)
                              c:/st/stm32cubeide_1.3.0/stm32cubeide/plugins/com.st.stm32cube.ide.mcu.externaltools.gnu-tools-for-stm32.7-2018-q2-update.win32_1.0.0.201904181610/tools/bin/../lib/gcc/arm-none-eabi/7.3.1/../../../../arm-none-eabi/lib/thumb/v7-m\libm.a(lib_a-w_sqrt.o) (__ieee754_sqrt)
c:/st/stm32cubeide_1.3.0/stm32cubeide/plugins/com.st.stm32cube.ide.mcu.externaltools.gnu-tools-for-stm32.7-2018-q2-update.win32_1.0.0.201904181610/tools/bin/../lib/gcc/arm-none-eabi/7.3.1/../../../../arm-none-eabi/lib/thumb/v7-m\libm.a(lib_a-ef_atan2.o)
                              c:/st/stm32cubeide_1.3.0/stm32cubeide/plugins/com.st.stm32cube.ide.mcu.externaltools.gnu-tools-for-stm32.7-2018-q2-update.win32_1.0.0.201904181610/tools/bin/../lib/gcc/arm-none-eabi/7.3.1/../../../../arm-none-eabi/lib/thumb/v7-m\libm.a(lib_a-wf_atan2.o) (__ieee754_atan2f)
c:/st/stm32cubeide_1.3.0/stm32cubeide/plugins/com.st.stm32cube.ide.mcu.externaltools.gnu-tools-for-stm32.7-2018-q2-update.win32_1.0.0.201904181610/tools/bin/../lib/gcc/arm-none-eabi/7.3.1/../../../../arm-none-eabi/lib/thumb/v7-m\libm.a(lib_a-ef_rem_pio2.o)
                              c:/st/stm32cubeide_1.3.0/stm32cubeide/plugins/com.st.stm32cube.ide.mcu.externaltools.gnu-tools-for-stm32.7-2018-q2-update.win32_1.0.0.201904181610/tools/bin/../lib/gcc/arm-none-eabi/7.3.1/../../../../arm-none-eabi/lib/thumb/v7-m\libm.a(lib_a-sf_cos.o) (__ieee754_rem_pio2f)
c:/st/stm32cubeide_1.3.0/stm32cubeide/plugins/com.st.stm32cube.ide.mcu.externaltools.gnu-tools-for-stm32.7-2018-q2-update.win32_1.0.0.201904181610/tools/bin/../lib/gcc/arm-none-eabi/7.3.1/../../../../arm-none-eabi/lib/thumb/v7-m\libm.a(lib_a-ef_sqrt.o)
                              c:/st/stm32cubeide_1.3.0/stm32cubeide/plugins/com.st.stm32cube.ide.mcu.externaltools.gnu-tools-for-stm32.7-2018-q2-update.win32_1.0.0.201904181610/tools/bin/../lib/gcc/arm-none-eabi/7.3.1/../../../../arm-none-eabi/lib/thumb/v7-m\libm.a(lib_a-wf_sqrt.o) (__ieee754_sqrtf)
c:/st/stm32cubeide_1.3.0/stm32cubeide/plugins/com.st.stm32cube.ide.mcu.externaltools.gnu-tools-for-stm32.7-2018-q2-update.win32_1.0.0.201904181610/tools/bin/../lib/gcc/arm-none-eabi/7.3.1/../../../../arm-none-eabi/lib/thumb/v7-m\libm.a(lib_a-kf_cos.o)
                              c:/st/stm32cubeide_1.3.0/stm32cubeide/plugins/com.st.stm32cube.ide.mcu.externaltools.gnu-tools-for-stm32.7-2018-q2-update.win32_1.0.0.201904181610/tools/bin/../lib/gcc/arm-none-eabi/7.3.1/../../../../arm-none-eabi/lib/thumb/v7-m\libm.a(lib_a-sf_cos.o) (__kernel_cosf)
c:/st/stm32cubeide_1.3.0/stm32cubeide/plugins/com.st.stm32cube.ide.mcu.externaltools.gnu-tools-for-stm32.7-2018-q2-update.win32_1.0.0.201904181610/tools/bin/../lib/gcc/arm-none-eabi/7.3.1/../../../../arm-none-eabi/lib/thumb/v7-m\libm.a(lib_a-kf_rem_pio2.o)
                              c:/st/stm32cubeide_1.3.0/stm32cubeide/plugins/com.st.stm32cube.ide.mcu.externaltools.gnu-tools-for-stm32.7-2018-q2-update.win32_1.0.0.201904181610/tools/bin/../lib/gcc/arm-none-eabi/7.3.1/../../../../arm-none-eabi/lib/thumb/v7-m\libm.a(lib_a-ef_rem_pio2.o) (__kernel_rem_pio2f)
c:/st/stm32cubeide_1.3.0/stm32cubeide/plugins/com.st.stm32cube.ide.mcu.externaltools.gnu-tools-for-stm32.7-2018-q2-update.win32_1.0.0.201904181610/tools/bin/../lib/gcc/arm-none-eabi/7.3.1/../../../../arm-none-eabi/lib/thumb/v7-m\libm.a(lib_a-kf_sin.o)
                              c:/st/stm32cubeide_1.3.0/stm32cubeide/plugins/com.st.stm32cube.ide.mcu.externaltools.gnu-tools-for-stm32.7-2018-q2-update.win32_1.0.0.201904181610/tools/bin/../lib/gcc/arm-none-eabi/7.3.1/../../../../arm-none-eabi/lib/thumb/v7-m\libm.a(lib_a-sf_cos.o) (__kernel_sinf)
c:/st/stm32cubeide_1.3.0/stm32cubeide/plugins/com.st.stm32cube.ide.mcu.externaltools.gnu-tools-for-stm32.7-2018-q2-update.win32_1.0.0.201904181610/tools/bin/../lib/gcc/arm-none-eabi/7.3.1/../../../../arm-none-eabi/lib/thumb/v7-m\libm.a(lib_a-s_lib_ver.o)
                              c:/st/stm32cubeide_1.3.0/stm32cubeide/plugins/com.st.stm32cube.ide.mcu.externaltools.gnu-tools-for-stm32.7-2018-q2-update.win32_1.0.0.201904181610/tools/bin/../lib/gcc/arm-none-eabi/7.3.1/../../../../arm-none-eabi/lib/thumb/v7-m\libm.a(lib_a-w_sqrt.o) (__fdlib_version)
c:/st/stm32cubeide_1.3.0/stm32cubeide/plugins/com.st.stm32cube.ide.mcu.externaltools.gnu-tools-for-stm32.7-2018-q2-update.win32_1.0.0.201904181610/tools/bin/../lib/gcc/arm-none-eabi/7.3.1/../../../../arm-none-eabi/lib/thumb/v7-m\libm.a(lib_a-s_matherr.o)
                              c:/st/stm32cubeide_1.3.0/stm32cubeide/plugins/com.st.stm32cube.ide.mcu.externaltools.gnu-tools-for-stm32.7-2018-q2-update.win32_1.0.0.201904181610/tools/bin/../lib/gcc/arm-none-eabi/7.3.1/../../../../arm-none-eabi/lib/thumb/v7-m\libm.a(lib_a-w_sqrt.o) (matherr)
c:/st/stm32cubeide_1.3.0/stm32cubeide/plugins/com.st.stm32cube.ide.mcu.externaltools.gnu-tools-for-stm32.7-2018-q2-update.win32_1.0.0.201904181610/tools/bin/../lib/gcc/arm-none-eabi/7.3.1/../../../../arm-none-eabi/lib/thumb/v7-m\libm.a(lib_a-sf_atan.o)
                              c:/st/stm32cubeide_1.3.0/stm32cubeide/plugins/com.st.stm32cube.ide.mcu.externaltools.gnu-tools-for-stm32.7-2018-q2-update.win32_1.0.0.201904181610/tools/bin/../lib/gcc/arm-none-eabi/7.3.1/../../../../arm-none-eabi/lib/thumb/v7-m\libm.a(lib_a-ef_atan2.o) (atanf)
c:/st/stm32cubeide_1.3.0/stm32cubeide/plugins/com.st.stm32cube.ide.mcu.externaltools.gnu-tools-for-stm32.7-2018-q2-update.win32_1.0.0.201904181610/tools/bin/../lib/gcc/arm-none-eabi/7.3.1/../../../../arm-none-eabi/lib/thumb/v7-m\libm.a(lib_a-sf_fabs.o)
                              c:/st/stm32cubeide_1.3.0/stm32cubeide/plugins/com.st.stm32cube.ide.mcu.externaltools.gnu-tools-for-stm32.7-2018-q2-update.win32_1.0.0.201904181610/tools/bin/../lib/gcc/arm-none-eabi/7.3.1/../../../../arm-none-eabi/lib/thumb/v7-m\libm.a(lib_a-ef_atan2.o) (fabsf)
c:/st/stm32cubeide_1.3.0/stm32cubeide/plugins/com.st.stm32cube.ide.mcu.externaltools.gnu-tools-for-stm32.7-2018-q2-update.win32_1.0.0.201904181610/tools/bin/../lib/gcc/arm-none-eabi/7.3.1/../../../../arm-none-eabi/lib/thumb/v7-m\libm.a(lib_a-sf_floor.o)
                              c:/st/stm32cubeide_1.3.0/stm32cubeide/plugins/com.st.stm32cube.ide.mcu.externaltools.gnu-tools-for-stm32.7-2018-q2-update.win32_1.0.0.201904181610/tools/bin/../lib/gcc/arm-none-eabi/7.3.1/../../../../arm-none-eabi/lib/thumb/v7-m\libm.a(lib_a-kf_rem_pio2.o) (floorf)
c:/st/stm32cubeide_1.3.0/stm32cubeide/plugins/com.st.stm32cube.ide.mcu.externaltools.gnu-tools-for-stm32.7-2018-q2-update.win32_1.0.0.201904181610/tools/bin/../lib/gcc/arm-none-eabi/7.3.1/../../../../arm-none-eabi/lib/thumb/v7-m\libm.a(lib_a-sf_scalbn.o)
                              c:/st/stm32cubeide_1.3.0/stm32cubeide/plugins/com.st.stm32cube.ide.mcu.externaltools.gnu-tools-for-stm32.7-2018-q2-update.win32_1.0.0.201904181610/tools/bin/../lib/gcc/arm-none-eabi/7.3.1/../../../../arm-none-eabi/lib/thumb/v7-m\libm.a(lib_a-kf_rem_pio2.o) (scalbnf)
c:/st/stm32cubeide_1.3.0/stm32cubeide/plugins/com.st.stm32cube.ide.mcu.externaltools.gnu-tools-for-stm32.7-2018-q2-update.win32_1.0.0.201904181610/tools/bin/../lib/gcc/arm-none-eabi/7.3.1/../../../../arm-none-eabi/lib/thumb/v7-m\libm.a(lib_a-sf_copysign.o)
                              c:/st/stm32cubeide_1.3.0/stm32cubeide/plugins/com.st.stm32cube.ide.mcu.externaltools.gnu-tools-for-stm32.7-2018-q2-update.win32_1.0.0.201904181610/tools/bin/../lib/gcc/arm-none-eabi/7.3.1/../../../../arm-none-eabi/lib/thumb/v7-m\libm.a(lib_a-sf_scalbn.o) (copysignf)
c:/st/stm32cubeide_1.3.0/stm32cubeide/plugins/com.st.stm32cube.ide.mcu.externaltools.gnu-tools-for-stm32.7-2018-q2-update.win32_1.0.0.201904181610/tools/bin/../lib/gcc/arm-none-eabi/7.3.1/thumb/v7-m\libgcc.a(_arm_addsubdf3.o)
                              grbl/gcode.o (__aeabi_dsub)
c:/st/stm32cubeide_1.3.0/stm32cubeide/plugins/com.st.stm32cube.ide.mcu.externaltools.gnu-tools-for-stm32.7-2018-q2-update.win32_1.0.0.201904181610/tools/bin/../lib/gcc/arm-none-eabi/7.3.1/thumb/v7-m\libgcc.a(_arm_muldivdf3.o)
                              grbl/gcode.o (__aeabi_dmul)
c:/st/stm32cubeide_1.3.0/stm32cubeide/plugins/com.st.stm32cube.ide.mcu.externaltools.gnu-tools-for-stm32.7-2018-q2-update.win32_1.0.0.201904181610/tools/bin/../lib/gcc/arm-none-eabi/7.3.1/thumb/v7-m\libgcc.a(_arm_cmpdf2.o)
                              grbl/planner.o (__aeabi_dcmplt)
c:/st/stm32cubeide_1.3.0/stm32cubeide/plugins/com.st.stm32cube.ide.mcu.externaltools.gnu-tools-for-stm32.7-2018-q2-update.win32_1.0.0.201904181610/tools/bin/../lib/gcc/arm-none-eabi/7.3.1/thumb/v7-m\libgcc.a(_arm_unorddf2.o)
                              c:/st/stm32cubeide_1.3.0/stm32cubeide/plugins/com.st.stm32cube.ide.mcu.externaltools.gnu-tools-for-stm32.7-2018-q2-update.win32_1.0.0.201904181610/tools/bin/../lib/gcc/arm-none-eabi/7.3.1/../../../../arm-none-eabi/lib/thumb/v7-m\libm.a(lib_a-w_sqrt.o) (__aeabi_dcmpun)
c:/st/stm32cubeide_1.3.0/stm32cubeide/plugins/com.st.stm32cube.ide.mcu.externaltools.gnu-tools-for-stm32.7-2018-q2-update.win32_1.0.0.201904181610/tools/bin/../lib/gcc/arm-none-eabi/7.3.1/thumb/v7-m\libgcc.a(_arm_fixdfsi.o)
                              c:/st/stm32cubeide_1.3.0/stm32cubeide/plugins/com.st.stm32cube.ide.mcu.externaltools.gnu-tools-for-stm32.7-2018-q2-update.win32_1.0.0.201904181610/tools/bin/../lib/gcc/arm-none-eabi/7.3.1/../../../../arm-none-eabi/lib/thumb/v7-m\libm.a(lib_a-s_lround.o) (__aeabi_d2iz)
c:/st/stm32cubeide_1.3.0/stm32cubeide/plugins/com.st.stm32cube.ide.mcu.externaltools.gnu-tools-for-stm32.7-2018-q2-update.win32_1.0.0.201904181610/tools/bin/../lib/gcc/arm-none-eabi/7.3.1/thumb/v7-m\libgcc.a(_arm_fixunsdfsi.o)
                              grbl/gcode.o (__aeabi_d2uiz)
c:/st/stm32cubeide_1.3.0/stm32cubeide/plugins/com.st.stm32cube.ide.mcu.externaltools.gnu-tools-for-stm32.7-2018-q2-update.win32_1.0.0.201904181610/tools/bin/../lib/gcc/arm-none-eabi/7.3.1/thumb/v7-m\libgcc.a(_arm_truncdfsf2.o)
                              grbl/gcode.o (__aeabi_d2f)
c:/st/stm32cubeide_1.3.0/stm32cubeide/plugins/com.st.stm32cube.ide.mcu.externaltools.gnu-tools-for-stm32.7-2018-q2-update.win32_1.0.0.201904181610/tools/bin/../lib/gcc/arm-none-eabi/7.3.1/thumb/v7-m\libgcc.a(_arm_addsubsf3.o)
                              grbl/gcode.o (__aeabi_fsub)
c:/st/stm32cubeide_1.3.0/stm32cubeide/plugins/com.st.stm32cube.ide.mcu.externaltools.gnu-tools-for-stm32.7-2018-q2-update.win32_1.0.0.201904181610/tools/bin/../lib/gcc/arm-none-eabi/7.3.1/thumb/v7-m\libgcc.a(_arm_muldivsf3.o)
                              grbl/gcode.o (__aeabi_fmul)
c:/st/stm32cubeide_1.3.0/stm32cubeide/plugins/com.st.stm32cube.ide.mcu.externaltools.gnu-tools-for-stm32.7-2018-q2-update.win32_1.0.0.201904181610/tools/bin/../lib/gcc/arm-none-eabi/7.3.1/thumb/v7-m\libgcc.a(_arm_cmpsf2.o)
                              grbl/gcode.o (__aeabi_fcmpeq)
c:/st/stm32cubeide_1.3.0/stm32cubeide/plugins/com.st.stm32cube.ide.mcu.externaltools.gnu-tools-for-stm32.7-2018-q2-update.win32_1.0.0.201904181610/tools/bin/../lib/gcc/arm-none-eabi/7.3.1/thumb/v7-m\libgcc.a(_arm_unordsf2.o)
                              c:/st/stm32cubeide_1.3.0/stm32cubeide/plugins/com.st.stm32cube.ide.mcu.externaltools.gnu-tools-for-stm32.7-2018-q2-update.win32_1.0.0.201904181610/tools/bin/../lib/gcc/arm-none-eabi/7.3.1/../../../../arm-none-eabi/lib/thumb/v7-m\libm.a(lib_a-wf_sqrt.o) (__aeabi_fcmpun)
c:/st/stm32cubeide_1.3.0/stm32cubeide/plugins/com.st.stm32cube.ide.mcu.externaltools.gnu-tools-for-stm32.7-2018-q2-update.win32_1.0.0.201904181610/tools/bin/../lib/gcc/arm-none-eabi/7.3.1/thumb/v7-m\libgcc.a(_arm_fixsfsi.o)
                              grbl/gcode.o (__aeabi_f2iz)
c:/st/stm32cubeide_1.3.0/stm32cubeide/plugins/com.st.stm32cube.ide.mcu.externaltools.gnu-tools-for-stm32.7-2018-q2-update.win32_1.0.0.201904181610/tools/bin/../lib/gcc/arm-none-eabi/7.3.1/thumb/v7-m\libgcc.a(_arm_fixunssfsi.o)
                              grbl/stepper.o (__aeabi_f2uiz)

Allocating common symbols
Common symbol       size              file

sys_rt_exec_motion_override
                    0x1               Src/main.o
errno               0x4               c:/st/stm32cubeide_1.3.0/stm32cubeide/plugins/com.st.stm32cube.ide.mcu.externaltools.gnu-tools-for-stm32.7-2018-q2-update.win32_1.0.0.201904181610/tools/bin/../lib/gcc/arm-none-eabi/7.3.1/../../../../arm-none-eabi/lib/thumb/v7-m\libc_nano.a(lib_a-reent.o)
settings            0x94              grbl/settings.o
probe_invert_mask   0x2               grbl/probe.o
pDbgStr             0x50              stm32/stm32utilities.o
pDbgVal8a           0x9               stm32/stm32utilities.o
sys                 0x14              Src/main.o
gc_state            0x6c              grbl/gcode.o
sys_rt_exec_accessory_override
                    0x1               Src/main.o
uwTick              0x4               Drivers/STM32F1xx_HAL_Driver/Src/stm32f1xx_hal.o
pFlash              0x20              Drivers/STM32F1xx_HAL_Driver/Src/stm32f1xx_hal_flash.o
adjustments         0x30              grbl/settings.o
sys_rt_exec_state   0x1               Src/main.o
sys_probe_state     0x1               Src/main.o
gc_block            0x64              grbl/gcode.o
pDbgVal16           0x11              stm32/stm32utilities.o
serial_tx_buffer    0x80              grbl/serial.o
serial_rx_buffer    0xfe              grbl/serial.o
sys_probe_position  0x18              Src/main.o
sys_position        0x18              Src/main.o
pinmask             0x2               Src/stm32f1xx_it.o
sys_rt_exec_alarm   0x1               Src/main.o
EE_Buffer           0x400             grbl/eeprom.o
pDbgVal8b           0x9               stm32/stm32utilities.o

Discarded input sections

 .text          0x0000000000000000        0x0 c:/st/stm32cubeide_1.3.0/stm32cubeide/plugins/com.st.stm32cube.ide.mcu.externaltools.gnu-tools-for-stm32.7-2018-q2-update.win32_1.0.0.201904181610/tools/bin/../lib/gcc/arm-none-eabi/7.3.1/thumb/v7-m/crti.o
 .data          0x0000000000000000        0x0 c:/st/stm32cubeide_1.3.0/stm32cubeide/plugins/com.st.stm32cube.ide.mcu.externaltools.gnu-tools-for-stm32.7-2018-q2-update.win32_1.0.0.201904181610/tools/bin/../lib/gcc/arm-none-eabi/7.3.1/thumb/v7-m/crti.o
 .bss           0x0000000000000000        0x0 c:/st/stm32cubeide_1.3.0/stm32cubeide/plugins/com.st.stm32cube.ide.mcu.externaltools.gnu-tools-for-stm32.7-2018-q2-update.win32_1.0.0.201904181610/tools/bin/../lib/gcc/arm-none-eabi/7.3.1/thumb/v7-m/crti.o
 .data          0x0000000000000000        0x4 c:/st/stm32cubeide_1.3.0/stm32cubeide/plugins/com.st.stm32cube.ide.mcu.externaltools.gnu-tools-for-stm32.7-2018-q2-update.win32_1.0.0.201904181610/tools/bin/../lib/gcc/arm-none-eabi/7.3.1/thumb/v7-m/crtbegin.o
 .text          0x0000000000000000       0x74 c:/st/stm32cubeide_1.3.0/stm32cubeide/plugins/com.st.stm32cube.ide.mcu.externaltools.gnu-tools-for-stm32.7-2018-q2-update.win32_1.0.0.201904181610/tools/bin/../lib/gcc/arm-none-eabi/7.3.1/../../../../arm-none-eabi/lib/thumb/v7-m/crt0.o
 .data          0x0000000000000000        0x0 c:/st/stm32cubeide_1.3.0/stm32cubeide/plugins/com.st.stm32cube.ide.mcu.externaltools.gnu-tools-for-stm32.7-2018-q2-update.win32_1.0.0.201904181610/tools/bin/../lib/gcc/arm-none-eabi/7.3.1/../../../../arm-none-eabi/lib/thumb/v7-m/crt0.o
 .bss           0x0000000000000000        0x0 c:/st/stm32cubeide_1.3.0/stm32cubeide/plugins/com.st.stm32cube.ide.mcu.externaltools.gnu-tools-for-stm32.7-2018-q2-update.win32_1.0.0.201904181610/tools/bin/../lib/gcc/arm-none-eabi/7.3.1/../../../../arm-none-eabi/lib/thumb/v7-m/crt0.o
 .ARM.extab     0x0000000000000000        0x0 c:/st/stm32cubeide_1.3.0/stm32cubeide/plugins/com.st.stm32cube.ide.mcu.externaltools.gnu-tools-for-stm32.7-2018-q2-update.win32_1.0.0.201904181610/tools/bin/../lib/gcc/arm-none-eabi/7.3.1/../../../../arm-none-eabi/lib/thumb/v7-m/crt0.o
 .ARM.exidx     0x0000000000000000        0x8 c:/st/stm32cubeide_1.3.0/stm32cubeide/plugins/com.st.stm32cube.ide.mcu.externaltools.gnu-tools-for-stm32.7-2018-q2-update.win32_1.0.0.201904181610/tools/bin/../lib/gcc/arm-none-eabi/7.3.1/../../../../arm-none-eabi/lib/thumb/v7-m/crt0.o
 .ARM.attributes
                0x0000000000000000       0x1b c:/st/stm32cubeide_1.3.0/stm32cubeide/plugins/com.st.stm32cube.ide.mcu.externaltools.gnu-tools-for-stm32.7-2018-q2-update.win32_1.0.0.201904181610/tools/bin/../lib/gcc/arm-none-eabi/7.3.1/../../../../arm-none-eabi/lib/thumb/v7-m/crt0.o
 .group         0x0000000000000000        0xc Drivers/STM32F1xx_HAL_Driver/Src/stm32f1xx_hal.o
 .group         0x0000000000000000        0xc Drivers/STM32F1xx_HAL_Driver/Src/stm32f1xx_hal.o
 .group         0x0000000000000000        0xc Drivers/STM32F1xx_HAL_Driver/Src/stm32f1xx_hal.o
 .group         0x0000000000000000        0xc Drivers/STM32F1xx_HAL_Driver/Src/stm32f1xx_hal.o
 .group         0x0000000000000000        0xc Drivers/STM32F1xx_HAL_Driver/Src/stm32f1xx_hal.o
 .group         0x0000000000000000        0xc Drivers/STM32F1xx_HAL_Driver/Src/stm32f1xx_hal.o
 .group         0x0000000000000000        0xc Drivers/STM32F1xx_HAL_Driver/Src/stm32f1xx_hal.o
Memory Configuration

Name             Origin             Length             Attributes
RAM              0x0000000020000000 0x0000000000005000 xrw
FLASH            0x0000000008000000 0x0000000000010000 xr
*default*        0x0000000000000000 0xffffffffffffffff

Linker script and memory map

LOAD c:/st/stm32cubeide_1.3.0/stm32cubeide/plugins/com.st.stm32cube.ide.mcu.externaltools.gnu-tools-for-stm32.7-2018-q2-update.win32_1.0.0.201904181610/tools/bin/../lib/gcc/arm-none-eabi/7.3.1/thumb/v7-m/crti.o
LOAD c:/st/stm32cubeide_1.3.0/stm32cubeide/plugins/com.st.stm32cube.ide.mcu.externaltools.gnu-tools-for-stm32.7-2018-q2-update.win32_1.0.0.201904181610/tools/bin/../lib/gcc/arm-none-eabi/7.3.1/thumb/v7-m/crtbegin.o
LOAD c:/st/stm32cubeide_1.3.0/stm32cubeide/plugins/com.st.stm32cube.ide.mcu.externaltools.gnu-tools-for-stm32.7-2018-q2-update.win32_1.0.0.201904181610/tools/bin/../lib/gcc/arm-none-eabi/7.3.1/../../../../arm-none-eabi/lib/thumb/v7-m/crt0.o
LOAD Drivers/STM32F1xx_HAL_Driver/Src/stm32f1xx_hal.o
LOAD Drivers/STM32F1xx_HAL_Driver/Src/stm32f1xx_hal_cortex.o
LOAD Drivers/STM32F1xx_HAL_Driver/Src/stm32f1xx_hal_dma.o
LOAD Drivers/STM32F1xx_HAL_Driver/Src/stm32f1xx_hal_exti.o
LOAD Drivers/STM32F1xx_HAL_Driver/Src/stm32f1xx_hal_flash.o
LOAD Drivers/STM32F1xx_HAL_Driver/Src/stm32f1xx_hal_flash_ex.o
LOAD Drivers/STM32F1xx_HAL_Driver/Src/stm32f1xx_hal_gpio.o
LOAD Drivers/STM32F1xx_HAL_Driver/Src/stm32f1xx_hal_gpio_ex.o
LOAD Drivers/STM32F1xx_HAL_Driver/Src/stm32f1xx_hal_pwr.o
LOAD Drivers/STM32F1xx_HAL_Driver/Src/stm32f1xx_hal_rcc.o
LOAD Drivers/STM32F1xx_HAL_Driver/Src/stm32f1xx_hal_rcc_ex.o
LOAD Drivers/STM32F1xx_HAL_Driver/Src/stm32f1xx_hal_tim.o
LOAD Drivers/STM32F1xx_HAL_Driver/Src/stm32f1xx_hal_tim_ex.o
LOAD Drivers/STM32F1xx_HAL_Driver/Src/stm32f1xx_ll_dma.o
LOAD Drivers/STM32F1xx_HAL_Driver/Src/stm32f1xx_ll_exti.o
LOAD Drivers/STM32F1xx_HAL_Driver/Src/stm32f1xx_ll_gpio.o
LOAD Drivers/STM32F1xx_HAL_Driver/Src/stm32f1xx_ll_rcc.o
LOAD Drivers/STM32F1xx_HAL_Driver/Src/stm32f1xx_ll_tim.o
LOAD Drivers/STM32F1xx_HAL_Driver/Src/stm32f1xx_ll_usart.o
LOAD Drivers/STM32F1xx_HAL_Driver/Src/stm32f1xx_ll_utils.o
LOAD Src/gpio.o
LOAD Src/main.o
LOAD Src/stm32f1xx_hal_msp.o
LOAD Src/stm32f1xx_it.o
LOAD Src/syscalls.o
LOAD Src/system_stm32f1xx.o
LOAD Src/tim.o
LOAD Src/usart.o
LOAD grbl/coolant_control.o
LOAD grbl/eeprom.o
LOAD grbl/gcode.o
LOAD grbl/jog.o
LOAD grbl/limits.o
LOAD grbl/motion_control.o
LOAD grbl/nuts_bolts.o
LOAD grbl/planner.o
LOAD grbl/print.o
LOAD grbl/probe.o
LOAD grbl/protocol.o
LOAD grbl/report.o
LOAD grbl/serial.o
LOAD grbl/settings.o
LOAD grbl/spindle_control.o
LOAD grbl/stepper.o
LOAD grbl/system.o
LOAD startup/startup_stm32f103xb.o
LOAD stm32/inoutputs.o
LOAD stm32/lcd-i2c.o
LOAD stm32/stm32utilities.o
START GROUP
LOAD c:/st/stm32cubeide_1.3.0/stm32cubeide/plugins/com.st.stm32cube.ide.mcu.externaltools.gnu-tools-for-stm32.7-2018-q2-update.win32_1.0.0.201904181610/tools/bin/../lib/gcc/arm-none-eabi/7.3.1/../../../../arm-none-eabi/lib/thumb/v7-m\libc_nano.a
LOAD c:/st/stm32cubeide_1.3.0/stm32cubeide/plugins/com.st.stm32cube.ide.mcu.externaltools.gnu-tools-for-stm32.7-2018-q2-update.win32_1.0.0.201904181610/tools/bin/../lib/gcc/arm-none-eabi/7.3.1/../../../../arm-none-eabi/lib/thumb/v7-m\libm.a
END GROUP
START GROUP
LOAD c:/st/stm32cubeide_1.3.0/stm32cubeide/plugins/com.st.stm32cube.ide.mcu.externaltools.gnu-tools-for-stm32.7-2018-q2-update.win32_1.0.0.201904181610/tools/bin/../lib/gcc/arm-none-eabi/7.3.1/thumb/v7-m\libgcc.a
LOAD c:/st/stm32cubeide_1.3.0/stm32cubeide/plugins/com.st.stm32cube.ide.mcu.externaltools.gnu-tools-for-stm32.7-2018-q2-update.win32_1.0.0.201904181610/tools/bin/../lib/gcc/arm-none-eabi/7.3.1/../../../../arm-none-eabi/lib/thumb/v7-m\libc_nano.a
END GROUP
START GROUP
LOAD c:/st/stm32cubeide_1.3.0/stm32cubeide/plugins/com.st.stm32cube.ide.mcu.externaltools.gnu-tools-for-stm32.7-2018-q2-update.win32_1.0.0.201904181610/tools/bin/../lib/gcc/arm-none-eabi/7.3.1/thumb/v7-m\libgcc.a
LOAD c:/st/stm32cubeide_1.3.0/stm32cubeide/plugins/com.st.stm32cube.ide.mcu.externaltools.gnu-tools-for-stm32.7-2018-q2-update.win32_1.0.0.201904181610/tools/bin/../lib/gcc/arm-none-eabi/7.3.1/../../../../arm-none-eabi/lib/thumb/v7-m\libc_nano.a
LOAD c:/st/stm32cubeide_1.3.0/stm32cubeide/plugins/com.st.stm32cube.ide.mcu.externaltools.gnu-tools-for-stm32.7-2018-q2-update.win32_1.0.0.201904181610/tools/bin/../lib/gcc/arm-none-eabi/7.3.1/../../../../arm-none-eabi/lib/thumb/v7-m\libnosys.a
END GROUP
START GROUP
LOAD c:/st/stm32cubeide_1.3.0/stm32cubeide/plugins/com.st.stm32cube.ide.mcu.externaltools.gnu-tools-for-stm32.7-2018-q2-update.win32_1.0.0.201904181610/tools/bin/../lib/gcc/arm-none-eabi/7.3.1/thumb/v7-m\libgcc.a
LOAD c:/st/stm32cubeide_1.3.0/stm32cubeide/plugins/com.st.stm32cube.ide.mcu.externaltools.gnu-tools-for-stm32.7-2018-q2-update.win32_1.0.0.201904181610/tools/bin/../lib/gcc/arm-none-eabi/7.3.1/../../../../arm-none-eabi/lib/thumb/v7-m\libc_nano.a
LOAD c:/st/stm32cubeide_1.3.0/stm32cubeide/plugins/com.st.stm32cube.ide.mcu.externaltools.gnu-tools-for-stm32.7-2018-q2-update.win32_1.0.0.201904181610/tools/bin/../lib/gcc/arm-none-eabi/7.3.1/../../../../arm-none-eabi/lib/thumb/v7-m\libnosys.a
END GROUP
LOAD c:/st/stm32cubeide_1.3.0/stm32cubeide/plugins/com.st.stm32cube.ide.mcu.externaltools.gnu-tools-for-stm32.7-2018-q2-update.win32_1.0.0.201904181610/tools/bin/../lib/gcc/arm-none-eabi/7.3.1/thumb/v7-m/crtend.o
LOAD c:/st/stm32cubeide_1.3.0/stm32cubeide/plugins/com.st.stm32cube.ide.mcu.externaltools.gnu-tools-for-stm32.7-2018-q2-update.win32_1.0.0.201904181610/tools/bin/../lib/gcc/arm-none-eabi/7.3.1/thumb/v7-m/crtn.o
                0x0000000020005000                _estack = 0x20005000
                0x0000000000000200                _Min_Heap_Size = 0x200
                0x0000000000000400                _Min_Stack_Size = 0x400

.isr_vector     0x0000000008000000      0x10c
                0x0000000008000000                . = ALIGN (0x4)
 *(.isr_vector)
 .isr_vector    0x0000000008000000      0x10c startup/startup_stm32f103xb.o
                0x0000000008000000                g_pfnVectors
                0x000000000800010c                . = ALIGN (0x4)

.text           0x0000000008000110     0x976c
                0x0000000008000110                . = ALIGN (0x4)
 *(.text)
 .text          0x0000000008000110       0x40 c:/st/stm32cubeide_1.3.0/stm32cubeide/plugins/com.st.stm32cube.ide.mcu.externaltools.gnu-tools-for-stm32.7-2018-q2-update.win32_1.0.0.201904181610/tools/bin/../lib/gcc/arm-none-eabi/7.3.1/thumb/v7-m/crtbegin.o
 .text          0x0000000008000150      0x378 c:/st/stm32cubeide_1.3.0/stm32cubeide/plugins/com.st.stm32cube.ide.mcu.externaltools.gnu-tools-for-stm32.7-2018-q2-update.win32_1.0.0.201904181610/tools/bin/../lib/gcc/arm-none-eabi/7.3.1/thumb/v7-m\libgcc.a(_arm_addsubdf3.o)
                0x0000000008000150                __aeabi_drsub
                0x0000000008000158                __aeabi_dsub
                0x0000000008000158                __subdf3
                0x000000000800015c                __aeabi_dadd
                0x000000000800015c                __adddf3
                0x00000000080003d4                __floatunsidf
                0x00000000080003d4                __aeabi_ui2d
                0x00000000080003f4                __floatsidf
                0x00000000080003f4                __aeabi_i2d
                0x0000000008000418                __aeabi_f2d
                0x0000000008000418                __extendsfdf2
                0x000000000800045c                __floatundidf
                0x000000000800045c                __aeabi_ul2d
                0x000000000800046c                __floatdidf
                0x000000000800046c                __aeabi_l2d
 .text          0x00000000080004c8      0x424 c:/st/stm32cubeide_1.3.0/stm32cubeide/plugins/com.st.stm32cube.ide.mcu.externaltools.gnu-tools-for-stm32.7-2018-q2-update.win32_1.0.0.201904181610/tools/bin/../lib/gcc/arm-none-eabi/7.3.1/thumb/v7-m\libgcc.a(_arm_muldivdf3.o)
                0x00000000080004c8                __aeabi_dmul
                0x00000000080004c8                __muldf3
                0x000000000800071c                __divdf3
                0x000000000800071c                __aeabi_ddiv
 .text          0x00000000080008ec      0x110 c:/st/stm32cubeide_1.3.0/stm32cubeide/plugins/com.st.stm32cube.ide.mcu.externaltools.gnu-tools-for-stm32.7-2018-q2-update.win32_1.0.0.201904181610/tools/bin/../lib/gcc/arm-none-eabi/7.3.1/thumb/v7-m\libgcc.a(_arm_cmpdf2.o)
                0x00000000080008ec                __gtdf2
                0x00000000080008ec                __gedf2
                0x00000000080008f4                __ltdf2
                0x00000000080008f4                __ledf2
                0x00000000080008fc                __nedf2
                0x00000000080008fc                __eqdf2
                0x00000000080008fc                __cmpdf2
                0x0000000008000978                __aeabi_cdrcmple
                0x0000000008000988                __aeabi_cdcmpeq
                0x0000000008000988                __aeabi_cdcmple
                0x0000000008000998                __aeabi_dcmpeq
                0x00000000080009ac                __aeabi_dcmplt
                0x00000000080009c0                __aeabi_dcmple
                0x00000000080009d4                __aeabi_dcmpge
                0x00000000080009e8                __aeabi_dcmpgt
 .text          0x00000000080009fc       0x2c c:/st/stm32cubeide_1.3.0/stm32cubeide/plugins/com.st.stm32cube.ide.mcu.externaltools.gnu-tools-for-stm32.7-2018-q2-update.win32_1.0.0.201904181610/tools/bin/../lib/gcc/arm-none-eabi/7.3.1/thumb/v7-m\libgcc.a(_arm_unorddf2.o)
                0x00000000080009fc                __unorddf2
                0x00000000080009fc                __aeabi_dcmpun
 .text          0x0000000008000a28       0x50 c:/st/stm32cubeide_1.3.0/stm32cubeide/plugins/com.st.stm32cube.ide.mcu.externaltools.gnu-tools-for-stm32.7-2018-q2-update.win32_1.0.0.201904181610/tools/bin/../lib/gcc/arm-none-eabi/7.3.1/thumb/v7-m\libgcc.a(_arm_fixdfsi.o)
                0x0000000008000a28                __aeabi_d2iz
                0x0000000008000a28                __fixdfsi
 .text          0x0000000008000a78       0x40 c:/st/stm32cubeide_1.3.0/stm32cubeide/plugins/com.st.stm32cube.ide.mcu.externaltools.gnu-tools-for-stm32.7-2018-q2-update.win32_1.0.0.201904181610/tools/bin/../lib/gcc/arm-none-eabi/7.3.1/thumb/v7-m\libgcc.a(_arm_fixunsdfsi.o)
                0x0000000008000a78                __aeabi_d2uiz
                0x0000000008000a78                __fixunsdfsi
 .text          0x0000000008000ab8       0xa0 c:/st/stm32cubeide_1.3.0/stm32cubeide/plugins/com.st.stm32cube.ide.mcu.externaltools.gnu-tools-for-stm32.7-2018-q2-update.win32_1.0.0.201904181610/tools/bin/../lib/gcc/arm-none-eabi/7.3.1/thumb/v7-m\libgcc.a(_arm_truncdfsf2.o)
                0x0000000008000ab8                __truncdfsf2
                0x0000000008000ab8                __aeabi_d2f
 .text          0x0000000008000b58      0x21c c:/st/stm32cubeide_1.3.0/stm32cubeide/plugins/com.st.stm32cube.ide.mcu.externaltools.gnu-tools-for-stm32.7-2018-q2-update.win32_1.0.0.201904181610/tools/bin/../lib/gcc/arm-none-eabi/7.3.1/thumb/v7-m\libgcc.a(_arm_addsubsf3.o)
                0x0000000008000b58                __aeabi_frsub
                0x0000000008000b60                __subsf3
                0x0000000008000b60                __aeabi_fsub
                0x0000000008000b64                __aeabi_fadd
                0x0000000008000b64                __addsf3
                0x0000000008000cc4                __aeabi_ui2f
                0x0000000008000cc4                __floatunsisf
                0x0000000008000ccc                __aeabi_i2f
                0x0000000008000ccc                __floatsisf
                0x0000000008000ce8                __aeabi_ul2f
                0x0000000008000ce8                __floatundisf
                0x0000000008000cf8                __aeabi_l2f
                0x0000000008000cf8                __floatdisf
 .text          0x0000000008000d74      0x2a0 c:/st/stm32cubeide_1.3.0/stm32cubeide/plugins/com.st.stm32cube.ide.mcu.externaltools.gnu-tools-for-stm32.7-2018-q2-update.win32_1.0.0.201904181610/tools/bin/../lib/gcc/arm-none-eabi/7.3.1/thumb/v7-m\libgcc.a(_arm_muldivsf3.o)
                0x0000000008000d74                __mulsf3
                0x0000000008000d74                __aeabi_fmul
                0x0000000008000edc                __aeabi_fdiv
                0x0000000008000edc                __divsf3
 .text          0x0000000008001014       0xec c:/st/stm32cubeide_1.3.0/stm32cubeide/plugins/com.st.stm32cube.ide.mcu.externaltools.gnu-tools-for-stm32.7-2018-q2-update.win32_1.0.0.201904181610/tools/bin/../lib/gcc/arm-none-eabi/7.3.1/thumb/v7-m\libgcc.a(_arm_cmpsf2.o)
                0x0000000008001014                __gesf2
                0x0000000008001014                __gtsf2
                0x000000000800101c                __lesf2
                0x000000000800101c                __ltsf2
                0x0000000008001024                __nesf2
                0x0000000008001024                __eqsf2
                0x0000000008001024                __cmpsf2
                0x0000000008001084                __aeabi_cfrcmple
                0x000000000800108c                __aeabi_cfcmpeq
                0x000000000800108c                __aeabi_cfcmple
                0x000000000800109c                __aeabi_fcmpeq
                0x00000000080010b0                __aeabi_fcmplt
                0x00000000080010c4                __aeabi_fcmple
                0x00000000080010d8                __aeabi_fcmpge
                0x00000000080010ec                __aeabi_fcmpgt
 .text          0x0000000008001100       0x2c c:/st/stm32cubeide_1.3.0/stm32cubeide/plugins/com.st.stm32cube.ide.mcu.externaltools.gnu-tools-for-stm32.7-2018-q2-update.win32_1.0.0.201904181610/tools/bin/../lib/gcc/arm-none-eabi/7.3.1/thumb/v7-m\libgcc.a(_arm_unordsf2.o)
                0x0000000008001100                __unordsf2
                0x0000000008001100                __aeabi_fcmpun
 .text          0x000000000800112c       0x4c c:/st/stm32cubeide_1.3.0/stm32cubeide/plugins/com.st.stm32cube.ide.mcu.externaltools.gnu-tools-for-stm32.7-2018-q2-update.win32_1.0.0.201904181610/tools/bin/../lib/gcc/arm-none-eabi/7.3.1/thumb/v7-m\libgcc.a(_arm_fixsfsi.o)
                0x000000000800112c                __aeabi_f2iz
                0x000000000800112c                __fixsfsi
 .text          0x0000000008001178       0x40 c:/st/stm32cubeide_1.3.0/stm32cubeide/plugins/com.st.stm32cube.ide.mcu.externaltools.gnu-tools-for-stm32.7-2018-q2-update.win32_1.0.0.201904181610/tools/bin/../lib/gcc/arm-none-eabi/7.3.1/thumb/v7-m\libgcc.a(_arm_fixunssfsi.o)
                0x0000000008001178                __fixunssfsi
                0x0000000008001178                __aeabi_f2uiz
 *(.text*)
 .text.HAL_InitTick
                0x00000000080011b8       0x48 Drivers/STM32F1xx_HAL_Driver/Src/stm32f1xx_hal.o
                0x00000000080011b8                HAL_InitTick
 .text.HAL_Init
                0x0000000008001200       0x24 Drivers/STM32F1xx_HAL_Driver/Src/stm32f1xx_hal.o
                0x0000000008001200                HAL_Init
 .text.HAL_IncTick
                0x0000000008001224       0x18 Drivers/STM32F1xx_HAL_Driver/Src/stm32f1xx_hal.o
                0x0000000008001224                HAL_IncTick
 .text.HAL_GetTick
                0x000000000800123c        0xc Drivers/STM32F1xx_HAL_Driver/Src/stm32f1xx_hal.o
                0x000000000800123c                HAL_GetTick
 .text.HAL_Delay
                0x0000000008001248       0x24 Drivers/STM32F1xx_HAL_Driver/Src/stm32f1xx_hal.o
                0x0000000008001248                HAL_Delay
 .text.HAL_NVIC_SetPriorityGrouping
                0x000000000800126c       0x24 Drivers/STM32F1xx_HAL_Driver/Src/stm32f1xx_hal_cortex.o
                0x000000000800126c                HAL_NVIC_SetPriorityGrouping
 .text.HAL_NVIC_SetPriority
                0x0000000008001290       0x68 Drivers/STM32F1xx_HAL_Driver/Src/stm32f1xx_hal_cortex.o
                0x0000000008001290                HAL_NVIC_SetPriority
 .text.HAL_NVIC_EnableIRQ
                0x00000000080012f8       0x1c Drivers/STM32F1xx_HAL_Driver/Src/stm32f1xx_hal_cortex.o
                0x00000000080012f8                HAL_NVIC_EnableIRQ
 .text.HAL_SYSTICK_Config
                0x0000000008001314       0x2c Drivers/STM32F1xx_HAL_Driver/Src/stm32f1xx_hal_cortex.o
                0x0000000008001314                HAL_SYSTICK_Config
 .text.HAL_NVIC_ClearPendingIRQ
                0x0000000008001340       0x20 Drivers/STM32F1xx_HAL_Driver/Src/stm32f1xx_hal_cortex.o
                0x0000000008001340                HAL_NVIC_ClearPendingIRQ
 .text.FLASH_SetErrorCode
                0x0000000008001360       0x50 Drivers/STM32F1xx_HAL_Driver/Src/stm32f1xx_hal_flash.o
 .text.HAL_FLASH_Unlock
                0x00000000080013b0       0x24 Drivers/STM32F1xx_HAL_Driver/Src/stm32f1xx_hal_flash.o
                0x00000000080013b0                HAL_FLASH_Unlock
 .text.HAL_FLASH_Lock
                0x00000000080013d4       0x14 Drivers/STM32F1xx_HAL_Driver/Src/stm32f1xx_hal_flash.o
                0x00000000080013d4                HAL_FLASH_Lock
 .text.FLASH_WaitForLastOperation
                0x00000000080013e8       0x54 Drivers/STM32F1xx_HAL_Driver/Src/stm32f1xx_hal_flash.o
                0x00000000080013e8                FLASH_WaitForLastOperation
 .text.HAL_FLASH_Program
                0x000000000800143c       0xa0 Drivers/STM32F1xx_HAL_Driver/Src/stm32f1xx_hal_flash.o
                0x000000000800143c                HAL_FLASH_Program
 .text.FLASH_PageErase
                0x00000000080014dc       0x24 Drivers/STM32F1xx_HAL_Driver/Src/stm32f1xx_hal_flash_ex.o
                0x00000000080014dc                FLASH_PageErase
 .text.HAL_GPIO_Init
                0x0000000008001500      0x1c0 Drivers/STM32F1xx_HAL_Driver/Src/stm32f1xx_hal_gpio.o
                0x0000000008001500                HAL_GPIO_Init
 .text.HAL_GPIO_WritePin
                0x00000000080016c0        0xa Drivers/STM32F1xx_HAL_Driver/Src/stm32f1xx_hal_gpio.o
                0x00000000080016c0                HAL_GPIO_WritePin
 .text.HAL_GPIO_EXTI_Callback
                0x00000000080016ca        0x2 Drivers/STM32F1xx_HAL_Driver/Src/stm32f1xx_hal_gpio.o
                0x00000000080016ca                HAL_GPIO_EXTI_Callback
 .text.HAL_GPIO_EXTI_IRQHandler
                0x00000000080016cc       0x18 Drivers/STM32F1xx_HAL_Driver/Src/stm32f1xx_hal_gpio.o
                0x00000000080016cc                HAL_GPIO_EXTI_IRQHandler
 .text.HAL_RCC_OscConfig
                0x00000000080016e4      0x33c Drivers/STM32F1xx_HAL_Driver/Src/stm32f1xx_hal_rcc.o
                0x00000000080016e4                HAL_RCC_OscConfig
 .text.HAL_RCC_GetSysClockFreq
                0x0000000008001a20       0x74 Drivers/STM32F1xx_HAL_Driver/Src/stm32f1xx_hal_rcc.o
                0x0000000008001a20                HAL_RCC_GetSysClockFreq
 .text.HAL_RCC_ClockConfig
                0x0000000008001a94      0x138 Drivers/STM32F1xx_HAL_Driver/Src/stm32f1xx_hal_rcc.o
                0x0000000008001a94                HAL_RCC_ClockConfig
 .text.LL_GPIO_Init
                0x0000000008001bcc      0x102 Drivers/STM32F1xx_HAL_Driver/Src/stm32f1xx_ll_gpio.o
                0x0000000008001bcc                LL_GPIO_Init
 *fill*         0x0000000008001cce        0x2 
 .text.RCC_GetHCLKClockFreq
                0x0000000008001cd0       0x18 Drivers/STM32F1xx_HAL_Driver/Src/stm32f1xx_ll_rcc.o
                0x0000000008001cd0                RCC_GetHCLKClockFreq
 .text.RCC_GetPCLK1ClockFreq
                0x0000000008001ce8       0x18 Drivers/STM32F1xx_HAL_Driver/Src/stm32f1xx_ll_rcc.o
                0x0000000008001ce8                RCC_GetPCLK1ClockFreq
 .text.RCC_GetPCLK2ClockFreq
                0x0000000008001d00       0x18 Drivers/STM32F1xx_HAL_Driver/Src/stm32f1xx_ll_rcc.o
                0x0000000008001d00                RCC_GetPCLK2ClockFreq
 .text.RCC_PLL_GetFreqDomain_SYS
                0x0000000008001d18       0x34 Drivers/STM32F1xx_HAL_Driver/Src/stm32f1xx_ll_rcc.o
                0x0000000008001d18                RCC_PLL_GetFreqDomain_SYS
 .text.RCC_GetSystemClockFreq
                0x0000000008001d4c       0x1c Drivers/STM32F1xx_HAL_Driver/Src/stm32f1xx_ll_rcc.o
                0x0000000008001d4c                RCC_GetSystemClockFreq
 .text.LL_RCC_GetSystemClocksFreq
                0x0000000008001d68       0x20 Drivers/STM32F1xx_HAL_Driver/Src/stm32f1xx_ll_rcc.o
                0x0000000008001d68                LL_RCC_GetSystemClocksFreq
 .text.LL_TIM_Init
                0x0000000008001d88       0x70 Drivers/STM32F1xx_HAL_Driver/Src/stm32f1xx_ll_tim.o
                0x0000000008001d88                LL_TIM_Init
 .text.LL_TIM_OC_Init
                0x0000000008001df8      0x190 Drivers/STM32F1xx_HAL_Driver/Src/stm32f1xx_ll_tim.o
                0x0000000008001df8                LL_TIM_OC_Init
 .text.LL_TIM_BDTR_Init
                0x0000000008001f88       0x34 Drivers/STM32F1xx_HAL_Driver/Src/stm32f1xx_ll_tim.o
                0x0000000008001f88                LL_TIM_BDTR_Init
 .text.LL_USART_Init
                0x0000000008001fbc       0xa4 Drivers/STM32F1xx_HAL_Driver/Src/stm32f1xx_ll_usart.o
                0x0000000008001fbc                LL_USART_Init
 .text.MX_GPIO_Init
                0x0000000008002060      0x134 Src/gpio.o
                0x0000000008002060                MX_GPIO_Init
 .text.SystemClock_Config
                0x0000000008002194       0x56 Src/main.o
                0x0000000008002194                SystemClock_Config
 *fill*         0x00000000080021ea        0x2 
 .text.startup.main
                0x00000000080021ec      0x154 Src/main.o
                0x00000000080021ec                main
 .text.HAL_MspInit
                0x0000000008002340       0x44 Src/stm32f1xx_hal_msp.o
                0x0000000008002340                HAL_MspInit
 .text.NMI_Handler
                0x0000000008002384        0x2 Src/stm32f1xx_it.o
                0x0000000008002384                NMI_Handler
 .text.HardFault_Handler
                0x0000000008002386        0x2 Src/stm32f1xx_it.o
                0x0000000008002386                HardFault_Handler
 .text.MemManage_Handler
                0x0000000008002388        0x2 Src/stm32f1xx_it.o
                0x0000000008002388                MemManage_Handler
 .text.BusFault_Handler
                0x000000000800238a        0x2 Src/stm32f1xx_it.o
                0x000000000800238a                BusFault_Handler
 .text.UsageFault_Handler
                0x000000000800238c        0x2 Src/stm32f1xx_it.o
                0x000000000800238c                UsageFault_Handler
 .text.SVC_Handler
                0x000000000800238e        0x2 Src/stm32f1xx_it.o
                0x000000000800238e                SVC_Handler
 .text.DebugMon_Handler
                0x0000000008002390        0x2 Src/stm32f1xx_it.o
                0x0000000008002390                DebugMon_Handler
 .text.PendSV_Handler
                0x0000000008002392        0x2 Src/stm32f1xx_it.o
                0x0000000008002392                PendSV_Handler
 .text.SysTick_Handler
                0x0000000008002394        0x4 Src/stm32f1xx_it.o
                0x0000000008002394                SysTick_Handler
 .text.EXTI0_IRQHandler
                0x0000000008002398       0x1c Src/stm32f1xx_it.o
                0x0000000008002398                EXTI0_IRQHandler
 .text.EXTI1_IRQHandler
                0x00000000080023b4       0x1c Src/stm32f1xx_it.o
                0x00000000080023b4                EXTI1_IRQHandler
 .text.EXTI3_IRQHandler
                0x00000000080023d0       0x20 Src/stm32f1xx_it.o
                0x00000000080023d0                EXTI3_IRQHandler
 .text.EXTI4_IRQHandler
                0x00000000080023f0       0x20 Src/stm32f1xx_it.o
                0x00000000080023f0                EXTI4_IRQHandler
 .text.TIM2_IRQHandler
                0x0000000008002410       0x1c Src/stm32f1xx_it.o
                0x0000000008002410                TIM2_IRQHandler
 .text.TIM3_IRQHandler
                0x000000000800242c       0x34 Src/stm32f1xx_it.o
                0x000000000800242c                TIM3_IRQHandler
 .text.USART1_IRQHandler
                0x0000000008002460       0x20 Src/stm32f1xx_it.o
                0x0000000008002460                USART1_IRQHandler
 .text.EXTI15_10_IRQHandler
                0x0000000008002480       0x48 Src/stm32f1xx_it.o
                0x0000000008002480                EXTI15_10_IRQHandler
 .text._sbrk    0x00000000080024c8       0x34 Src/syscalls.o
                0x00000000080024c8                _sbrk
 .text.SystemInit
                0x00000000080024fc       0x4c Src/system_stm32f1xx.o
                0x00000000080024fc                SystemInit
 .text.NVIC_EncodePriority.constprop.3
                0x0000000008002548        0x4 Src/tim.o
 .text.MX_TIM1_Init
                0x000000000800254c       0xf4 Src/tim.o
                0x000000000800254c                MX_TIM1_Init
 .text.MX_TIM2_Init
                0x0000000008002640       0x80 Src/tim.o
                0x0000000008002640                MX_TIM2_Init
 .text.MX_TIM3_Init
                0x00000000080026c0       0x80 Src/tim.o
                0x00000000080026c0                MX_TIM3_Init
 .text.MX_USART1_UART_Init
                0x0000000008002740       0xc0 Src/usart.o
                0x0000000008002740                MX_USART1_UART_Init
 .text.coolant_get_state
                0x0000000008002800       0x18 grbl/coolant_control.o
                0x0000000008002800                coolant_get_state
 .text.coolant_stop
                0x0000000008002818       0x20 grbl/coolant_control.o
                0x0000000008002818                coolant_stop
 .text.coolant_init
                0x0000000008002838        0x4 grbl/coolant_control.o
                0x0000000008002838                coolant_init
 .text.coolant_set_state
                0x000000000800283c       0x3c grbl/coolant_control.o
                0x000000000800283c                coolant_set_state
 .text.coolant_sync
                0x0000000008002878       0x20 grbl/coolant_control.o
                0x0000000008002878                coolant_sync
 .text.eeprom_flush
                0x0000000008002898       0x80 grbl/eeprom.o
                0x0000000008002898                eeprom_flush
 .text.eeprom_init
                0x0000000008002918       0x40 grbl/eeprom.o
                0x0000000008002918                eeprom_init
 .text.eeprom_get_char
                0x0000000008002958        0xc grbl/eeprom.o
                0x0000000008002958                eeprom_get_char
 .text.eeprom_put_char
                0x0000000008002964        0xc grbl/eeprom.o
                0x0000000008002964                eeprom_put_char
 .text.memcpy_to_eeprom_with_checksum
                0x0000000008002970       0x30 grbl/eeprom.o
                0x0000000008002970                memcpy_to_eeprom_with_checksum
 .text.memcpy_from_eeprom_with_checksum
                0x00000000080029a0       0x30 grbl/eeprom.o
                0x00000000080029a0                memcpy_from_eeprom_with_checksum
 .text.gc_init  0x00000000080029d0       0x2c grbl/gcode.o
                0x00000000080029d0                gc_init
 .text.gc_sync_position
                0x00000000080029fc       0x10 grbl/gcode.o
                0x00000000080029fc                gc_sync_position
 *fill*         0x0000000008002a0c        0x4 
 .text.gc_execute_line
                0x0000000008002a10     0x1004 grbl/gcode.o
                0x0000000008002a10                gc_execute_line
 .text.jog_execute
                0x0000000008003a14       0x5c grbl/jog.o
                0x0000000008003a14                jog_execute
 .text.limits_disable
                0x0000000008003a70       0x18 grbl/limits.o
                0x0000000008003a70                limits_disable
 .text.limits_init
                0x0000000008003a88       0x14 grbl/limits.o
                0x0000000008003a88                limits_init
 .text.limits_get_state
                0x0000000008003a9c       0x4c grbl/limits.o
                0x0000000008003a9c                limits_get_state
 .text.HandleLimitIT
                0x0000000008003ae8       0x30 grbl/limits.o
                0x0000000008003ae8                HandleLimitIT
 .text.limits_go_home
                0x0000000008003b18      0x238 grbl/limits.o
                0x0000000008003b18                limits_go_home
 .text.limits_soft_check
                0x0000000008003d50       0x40 grbl/limits.o
                0x0000000008003d50                limits_soft_check
 .text.mc_line  0x0000000008003d90       0x68 grbl/motion_control.o
                0x0000000008003d90                mc_line
 .text.mc_arc   0x0000000008003df8      0x360 grbl/motion_control.o
                0x0000000008003df8                mc_arc
 .text.mc_dwell
                0x0000000008004158       0x24 grbl/motion_control.o
                0x0000000008004158                mc_dwell
 .text.mc_homing_cycle
                0x000000000800417c       0x50 grbl/motion_control.o
                0x000000000800417c                mc_homing_cycle
 .text.mc_probe_cycle
                0x00000000080041cc       0xcc grbl/motion_control.o
                0x00000000080041cc                mc_probe_cycle
 .text.mc_reset
                0x0000000008004298       0x54 grbl/motion_control.o
                0x0000000008004298                mc_reset
 *fill*         0x00000000080042ec        0x4 
 .text.read_float
                0x00000000080042f0      0x10c grbl/nuts_bolts.o
                0x00000000080042f0                read_float
 .text._delay_ms
                0x00000000080043fc       0x20 grbl/nuts_bolts.o
                0x00000000080043fc                _delay_ms
 .text.delay_sec
                0x000000000800441c       0x48 grbl/nuts_bolts.o
                0x000000000800441c                delay_sec
 .text.delay_ms
                0x0000000008004464       0x1a grbl/nuts_bolts.o
                0x0000000008004464                delay_ms
 .text.hypot_f  0x000000000800447e       0x24 grbl/nuts_bolts.o
                0x000000000800447e                hypot_f
 .text.convert_delta_vector_to_unit_vector
                0x00000000080044a2       0x5e grbl/nuts_bolts.o
                0x00000000080044a2                convert_delta_vector_to_unit_vector
 .text.limit_value_by_axis_maximum
                0x0000000008004500       0x48 grbl/nuts_bolts.o
                0x0000000008004500                limit_value_by_axis_maximum
 .text.planner_recalculate
                0x0000000008004548      0x188 grbl/planner.o
 .text.plan_reset_buffer
                0x00000000080046d0       0x28 grbl/planner.o
                0x00000000080046d0                plan_reset_buffer
 .text.plan_reset
                0x00000000080046f8       0x18 grbl/planner.o
                0x00000000080046f8                plan_reset
 .text.plan_discard_current_block
                0x0000000008004710       0x34 grbl/planner.o
                0x0000000008004710                plan_discard_current_block
 .text.plan_get_system_motion_block
                0x0000000008004744       0x14 grbl/planner.o
                0x0000000008004744                plan_get_system_motion_block
 .text.plan_get_current_block
                0x0000000008004758       0x24 grbl/planner.o
                0x0000000008004758                plan_get_current_block
 .text.plan_get_exec_block_exit_speed_sqr
                0x000000000800477c       0x30 grbl/planner.o
                0x000000000800477c                plan_get_exec_block_exit_speed_sqr
 .text.plan_check_full_buffer
                0x00000000080047ac       0x18 grbl/planner.o
                0x00000000080047ac                plan_check_full_buffer
 *fill*         0x00000000080047c4        0x4 
 .text.plan_compute_profile_nominal_speed
                0x00000000080047c8       0xa4 grbl/planner.o
                0x00000000080047c8                plan_compute_profile_nominal_speed
 .text.plan_update_velocity_profile_parameters
                0x000000000800486c       0x7c grbl/planner.o
                0x000000000800486c                plan_update_velocity_profile_parameters
 .text.plan_buffer_line
                0x00000000080048e8      0x308 grbl/planner.o
                0x00000000080048e8                plan_buffer_line
 .text.plan_sync_position
                0x0000000008004bf0       0x20 grbl/planner.o
                0x0000000008004bf0                plan_sync_position
 .text.plan_get_block_buffer_available
                0x0000000008004c10       0x24 grbl/planner.o
                0x0000000008004c10                plan_get_block_buffer_available
 .text.plan_cycle_reinitialize
                0x0000000008004c34       0x20 grbl/planner.o
                0x0000000008004c34                plan_cycle_reinitialize
 .text.printString
                0x0000000008004c54       0x12 grbl/print.o
                0x0000000008004c54                printString
 .text.print_uint8_base10
                0x0000000008004c66       0x50 grbl/print.o
                0x0000000008004c66                print_uint8_base10
 *fill*         0x0000000008004cb6        0x2 
 .text.printFloat
                0x0000000008004cb8       0xc8 grbl/print.o
                0x0000000008004cb8                printFloat
 .text.printFloat_CoordValue
                0x0000000008004d80       0x3c grbl/print.o
                0x0000000008004d80                printFloat_CoordValue
 *fill*         0x0000000008004dbc        0x4 
 .text.printFloat_RateValue
                0x0000000008004dc0       0x3c grbl/print.o
                0x0000000008004dc0                printFloat_RateValue
 .text.probe_configure_invert_mask
                0x0000000008004dfc       0x2c grbl/probe.o
                0x0000000008004dfc                probe_configure_invert_mask
 .text.probe_init
                0x0000000008004e28        0x6 grbl/probe.o
                0x0000000008004e28                probe_init
 *fill*         0x0000000008004e2e        0x2 
 .text.probe_get_state
                0x0000000008004e30       0x1c grbl/probe.o
                0x0000000008004e30                probe_get_state
 .text.probe_state_monitor
                0x0000000008004e4c       0x3c grbl/probe.o
                0x0000000008004e4c                probe_state_monitor
 .text.protocol_auto_cycle_start
                0x0000000008004e88       0x14 grbl/protocol.o
                0x0000000008004e88                protocol_auto_cycle_start
 .text.protocol_exec_rt_system
                0x0000000008004e9c      0x35c grbl/protocol.o
                0x0000000008004e9c                protocol_exec_rt_system
 .text.protocol_execute_realtime
                0x00000000080051f8      0x1a8 grbl/protocol.o
                0x00000000080051f8                protocol_execute_realtime
 .text.protocol_main_loop
                0x00000000080053a0      0x128 grbl/protocol.o
                0x00000000080053a0                protocol_main_loop
 .text.protocol_buffer_synchronize
                0x00000000080054c8       0x24 grbl/protocol.o
                0x00000000080054c8                protocol_buffer_synchronize
 .text.report_util_line_feed
                0x00000000080054ec        0xc grbl/report.o
 .text.report_util_feedback_line_feed
                0x00000000080054f8       0x10 grbl/report.o
 .text.report_util_axis_values
                0x0000000008005508       0x20 grbl/report.o
 .text.report_util_setting_prefix
                0x0000000008005528       0x1a grbl/report.o
                0x0000000008005528                report_util_setting_prefix
 .text.report_util_uint8_setting
                0x0000000008005542       0x16 grbl/report.o
 .text.report_util_float_setting
                0x0000000008005558       0x1a grbl/report.o
 *fill*         0x0000000008005572        0x2 
 .text.report_status_message
                0x0000000008005574       0x2c grbl/report.o
                0x0000000008005574                report_status_message
 .text.report_alarm_message
                0x00000000080055a0       0x24 grbl/report.o
                0x00000000080055a0                report_alarm_message
 .text.report_feedback_message
                0x00000000080055c4       0x88 grbl/report.o
                0x00000000080055c4                report_feedback_message
 .text.report_init_message
                0x000000000800564c        0xc grbl/report.o
                0x000000000800564c                report_init_message
 .text.report_grbl_help
                0x0000000008005658        0xc grbl/report.o
                0x0000000008005658                report_grbl_help
 .text.report_grbl_settings
                0x0000000008005664      0x190 grbl/report.o
                0x0000000008005664                report_grbl_settings
 .text.report_probe_parameters
                0x00000000080057f4       0x3c grbl/report.o
                0x00000000080057f4                report_probe_parameters
 .text.report_ngc_parameters
                0x0000000008005830       0xb4 grbl/report.o
                0x0000000008005830                report_ngc_parameters
 .text.report_gcode_modes
                0x00000000080058e4      0x138 grbl/report.o
                0x00000000080058e4                report_gcode_modes
 .text.report_startup_line
                0x0000000008005a1c       0x2c grbl/report.o
                0x0000000008005a1c                report_startup_line
 .text.report_execute_startup_message
                0x0000000008005a48       0x22 grbl/report.o
                0x0000000008005a48                report_execute_startup_message
 *fill*         0x0000000008005a6a        0x2 
 .text.report_build_info
                0x0000000008005a6c       0x54 grbl/report.o
                0x0000000008005a6c                report_build_info
 .text.report_realtime_status
                0x0000000008005ac0      0x314 grbl/report.o
                0x0000000008005ac0                report_realtime_status
 .text.serial_get_rx_buffer_available
                0x0000000008005dd4       0x24 grbl/serial.o
                0x0000000008005dd4                serial_get_rx_buffer_available
 .text.serial_init
                0x0000000008005df8        0x2 grbl/serial.o
                0x0000000008005df8                serial_init
 .text.serial_write
                0x0000000008005dfa        0x4 grbl/serial.o
                0x0000000008005dfa                serial_write
 *fill*         0x0000000008005dfe        0x2 
 .text.serial_read
                0x0000000008005e00       0x30 grbl/serial.o
                0x0000000008005e00                serial_read
 .text.HandleUartIT
                0x0000000008005e30       0xe0 grbl/serial.o
                0x0000000008005e30                HandleUartIT
 .text.serial_reset_read_buffer
                0x0000000008005f10       0x14 grbl/serial.o
                0x0000000008005f10                serial_reset_read_buffer
 .text.settings_store_startup_line
                0x0000000008005f24       0x20 grbl/settings.o
                0x0000000008005f24                settings_store_startup_line
 .text.settings_store_build_info
                0x0000000008005f44        0xc grbl/settings.o
                0x0000000008005f44                settings_store_build_info
 .text.settings_write_coord_data
                0x0000000008005f50       0x20 grbl/settings.o
                0x0000000008005f50                settings_write_coord_data
 .text.write_global_settings
                0x0000000008005f70       0x1c grbl/settings.o
                0x0000000008005f70                write_global_settings
 .text.settings_restore
                0x0000000008005f8c      0x128 grbl/settings.o
                0x0000000008005f8c                settings_restore
 .text.settings_read_startup_line
                0x00000000080060b4       0x2c grbl/settings.o
                0x00000000080060b4                settings_read_startup_line
 .text.settings_read_build_info
                0x00000000080060e0       0x22 grbl/settings.o
                0x00000000080060e0                settings_read_build_info
 .text.settings_read_coord_data
                0x0000000008006102       0x38 grbl/settings.o
                0x0000000008006102                settings_read_coord_data
 *fill*         0x000000000800613a        0x2 
 .text.read_global_settings
                0x000000000800613c       0x28 grbl/settings.o
                0x000000000800613c                read_global_settings
 .text.settings_store_global_setting
                0x0000000008006164      0x22c grbl/settings.o
                0x0000000008006164                settings_store_global_setting
 .text.acceleration_scaling
                0x0000000008006390       0x74 grbl/settings.o
                0x0000000008006390                acceleration_scaling
 .text.settings_init
                0x0000000008006404       0x3c grbl/settings.o
                0x0000000008006404                settings_init
 .text.spindle_init
                0x0000000008006440       0x4c grbl/spindle_control.o
                0x0000000008006440                spindle_init
 .text.spindle_get_state
                0x000000000800648c        0xc grbl/spindle_control.o
                0x000000000800648c                spindle_get_state
 .text.spindle_stop
                0x0000000008006498        0x4 grbl/spindle_control.o
                0x0000000008006498                spindle_stop
 .text.spindle_set_speed
                0x000000000800649c       0x14 grbl/spindle_control.o
                0x000000000800649c                spindle_set_speed
 .text.spindle_compute_pwm_value
                0x00000000080064b0       0xb4 grbl/spindle_control.o
                0x00000000080064b0                spindle_compute_pwm_value
 .text.spindle_set_state
                0x0000000008006564       0x58 grbl/spindle_control.o
                0x0000000008006564                spindle_set_state
 .text.spindle_sync
                0x00000000080065bc       0x24 grbl/spindle_control.o
                0x00000000080065bc                spindle_sync
 .text.st_wake_up
                0x00000000080065e0       0x88 grbl/stepper.o
                0x00000000080065e0                st_wake_up
 .text.st_go_idle
                0x0000000008006668       0x84 grbl/stepper.o
                0x0000000008006668                st_go_idle
 .text.HandleStepSetIT
                0x00000000080066ec      0x278 grbl/stepper.o
                0x00000000080066ec                HandleStepSetIT
 .text.HandleStepResetIT
                0x0000000008006964       0x2c grbl/stepper.o
                0x0000000008006964                HandleStepResetIT
 .text.st_generate_step_dir_invert_masks
                0x0000000008006990       0x78 grbl/stepper.o
                0x0000000008006990                st_generate_step_dir_invert_masks
 .text.st_reset
                0x0000000008006a08       0x98 grbl/stepper.o
                0x0000000008006a08                st_reset
 .text.stepper_init
                0x0000000008006aa0       0x54 grbl/stepper.o
                0x0000000008006aa0                stepper_init
 .text.st_update_plan_block_parameters
                0x0000000008006af4       0x2c grbl/stepper.o
                0x0000000008006af4                st_update_plan_block_parameters
 .text.st_prep_buffer
                0x0000000008006b20      0x74c grbl/stepper.o
                0x0000000008006b20                st_prep_buffer
 .text.st_get_realtime_rate
                0x000000000800726c       0x1c grbl/stepper.o
                0x000000000800726c                st_get_realtime_rate
 .text.system_init
                0x0000000008007288        0x2 grbl/system.o
                0x0000000008007288                system_init
 *fill*         0x000000000800728a        0x2 
 .text.system_control_get_state
                0x000000000800728c       0x30 grbl/system.o
                0x000000000800728c                system_control_get_state
 .text.HandleControlIT
                0x00000000080072bc       0x58 grbl/system.o
                0x00000000080072bc                HandleControlIT
 .text.system_check_safety_door_ajar
                0x0000000008007314        0xc grbl/system.o
                0x0000000008007314                system_check_safety_door_ajar
 .text.system_execute_startup
                0x0000000008007320       0x32 grbl/system.o
                0x0000000008007320                system_execute_startup
 *fill*         0x0000000008007352        0x2 
 .text.system_flag_wco_change
                0x0000000008007354       0x14 grbl/system.o
                0x0000000008007354                system_flag_wco_change
 .text.system_convert_axis_steps_to_mpos
                0x0000000008007368       0x1c grbl/system.o
                0x0000000008007368                system_convert_axis_steps_to_mpos
 .text.system_convert_array_steps_to_mpos
                0x0000000008007384       0x1c grbl/system.o
                0x0000000008007384                system_convert_array_steps_to_mpos
 .text.system_check_travel_limits
                0x00000000080073a0       0x3c grbl/system.o
                0x00000000080073a0                system_check_travel_limits
 .text.system_set_exec_state_flag
                0x00000000080073dc       0x14 grbl/system.o
                0x00000000080073dc                system_set_exec_state_flag
 .text.system_execute_line
                0x00000000080073f0      0x328 grbl/system.o
                0x00000000080073f0                system_execute_line
 .text.system_clear_exec_state_flag
                0x0000000008007718       0x14 grbl/system.o
                0x0000000008007718                system_clear_exec_state_flag
 .text.system_set_exec_alarm
                0x000000000800772c       0x14 grbl/system.o
                0x000000000800772c                system_set_exec_alarm
 .text.system_clear_exec_alarm
                0x0000000008007740       0x10 grbl/system.o
                0x0000000008007740                system_clear_exec_alarm
 .text.system_set_exec_motion_override_flag
                0x0000000008007750       0x14 grbl/system.o
                0x0000000008007750                system_set_exec_motion_override_flag
 .text.system_set_exec_accessory_override_flag
                0x0000000008007764       0x14 grbl/system.o
                0x0000000008007764                system_set_exec_accessory_override_flag
 .text.system_clear_exec_motion_overrides
                0x0000000008007778       0x10 grbl/system.o
                0x0000000008007778                system_clear_exec_motion_overrides
 .text.system_clear_exec_accessory_overrides
                0x0000000008007788       0x10 grbl/system.o
                0x0000000008007788                system_clear_exec_accessory_overrides
 .text.Reset_Handler
                0x0000000008007798       0x48 startup/startup_stm32f103xb.o
                0x0000000008007798                Reset_Handler
 .text.Default_Handler
                0x00000000080077e0        0x2 startup/startup_stm32f103xb.o
                0x00000000080077e0                RTC_Alarm_IRQHandler
                0x00000000080077e0                EXTI2_IRQHandler
                0x00000000080077e0                TIM1_CC_IRQHandler
                0x00000000080077e0                PVD_IRQHandler
                0x00000000080077e0                I2C2_EV_IRQHandler
                0x00000000080077e0                ADC1_2_IRQHandler
                0x00000000080077e0                SPI1_IRQHandler
                0x00000000080077e0                TAMPER_IRQHandler
                0x00000000080077e0                DMA1_Channel4_IRQHandler
                0x00000000080077e0                USART3_IRQHandler
                0x00000000080077e0                RTC_IRQHandler
                0x00000000080077e0                DMA1_Channel7_IRQHandler
                0x00000000080077e0                CAN1_RX1_IRQHandler
                0x00000000080077e0                TIM4_IRQHandler
                0x00000000080077e0                I2C1_EV_IRQHandler
                0x00000000080077e0                DMA1_Channel6_IRQHandler
                0x00000000080077e0                RCC_IRQHandler
                0x00000000080077e0                TIM1_TRG_COM_IRQHandler
                0x00000000080077e0                DMA1_Channel1_IRQHandler
                0x00000000080077e0                Default_Handler
                0x00000000080077e0                EXTI9_5_IRQHandler
                0x00000000080077e0                SPI2_IRQHandler
                0x00000000080077e0                DMA1_Channel5_IRQHandler
                0x00000000080077e0                USB_LP_CAN1_RX0_IRQHandler
                0x00000000080077e0                USB_HP_CAN1_TX_IRQHandler
                0x00000000080077e0                DMA1_Channel3_IRQHandler
                0x00000000080077e0                TIM1_UP_IRQHandler
                0x00000000080077e0                WWDG_IRQHandler
                0x00000000080077e0                TIM1_BRK_IRQHandler
                0x00000000080077e0                USART2_IRQHandler
                0x00000000080077e0                I2C2_ER_IRQHandler
                0x00000000080077e0                DMA1_Channel2_IRQHandler
                0x00000000080077e0                CAN1_SCE_IRQHandler
                0x00000000080077e0                FLASH_IRQHandler
                0x00000000080077e0                I2C1_ER_IRQHandler
                0x00000000080077e0                USBWakeUp_IRQHandler
 *fill*         0x00000000080077e2        0x2 
 .text.outputs_digital_reset
                0x00000000080077e4        0xc stm32/inoutputs.o
                0x00000000080077e4                outputs_digital_reset
 .text.inoutputs_init
                0x00000000080077f0        0x4 stm32/inoutputs.o
                0x00000000080077f0                inoutputs_init
 .text.outputs_digital_set
                0x00000000080077f4        0xc stm32/inoutputs.o
                0x00000000080077f4                outputs_digital_set
 .text.outputs_digital_action
                0x0000000008007800       0x50 stm32/inoutputs.o
                0x0000000008007800                outputs_digital_action
 .text.outputs_analog_init
                0x0000000008007850        0x2 stm32/inoutputs.o
                0x0000000008007850                outputs_analog_init
 .text.outputs_analog_action
                0x0000000008007852        0x2 stm32/inoutputs.o
                0x0000000008007852                outputs_analog_action
 .text.wait_on_input_action
                0x0000000008007854        0x2 stm32/inoutputs.o
                0x0000000008007854                wait_on_input_action
 *fill*         0x0000000008007856        0x2 
 .text.timing_init
                0x0000000008007858       0x34 stm32/stm32utilities.o
                0x0000000008007858                timing_init
 .text.uart_sendch
                0x000000000800788c       0x10 stm32/stm32utilities.o
                0x000000000800788c                uart_sendch
 .text.uart_sendstr
                0x000000000800789c       0x12 stm32/stm32utilities.o
                0x000000000800789c                uart_sendstr
 *fill*         0x00000000080078ae        0x2 
 .text.uart_init
                0x00000000080078b0       0x40 stm32/stm32utilities.o
                0x00000000080078b0                uart_init
 .text.GPIO_ResetBits
                0x00000000080078f0        0x6 stm32/stm32utilities.o
                0x00000000080078f0                GPIO_ResetBits
 .text.GPIO_SetBits
                0x00000000080078f6        0x6 stm32/stm32utilities.o
                0x00000000080078f6                GPIO_SetBits
 .text.Spindle_Disable
                0x00000000080078fc       0x34 stm32/stm32utilities.o
                0x00000000080078fc                Spindle_Disable
 .text.Spindle_Enable
                0x0000000008007930       0x34 stm32/stm32utilities.o
                0x0000000008007930                Spindle_Enable
 .text.__errno  0x0000000008007964        0xc c:/st/stm32cubeide_1.3.0/stm32cubeide/plugins/com.st.stm32cube.ide.mcu.externaltools.gnu-tools-for-stm32.7-2018-q2-update.win32_1.0.0.201904181610/tools/bin/../lib/gcc/arm-none-eabi/7.3.1/../../../../arm-none-eabi/lib/thumb/v7-m\libc_nano.a(lib_a-errno.o)
                0x0000000008007964                __errno
 .text.__libc_init_array
                0x0000000008007970       0x48 c:/st/stm32cubeide_1.3.0/stm32cubeide/plugins/com.st.stm32cube.ide.mcu.externaltools.gnu-tools-for-stm32.7-2018-q2-update.win32_1.0.0.201904181610/tools/bin/../lib/gcc/arm-none-eabi/7.3.1/../../../../arm-none-eabi/lib/thumb/v7-m\libc_nano.a(lib_a-init.o)
                0x0000000008007970                __libc_init_array
 .text.memcmp   0x00000000080079b8       0x1e c:/st/stm32cubeide_1.3.0/stm32cubeide/plugins/com.st.stm32cube.ide.mcu.externaltools.gnu-tools-for-stm32.7-2018-q2-update.win32_1.0.0.201904181610/tools/bin/../lib/gcc/arm-none-eabi/7.3.1/../../../../arm-none-eabi/lib/thumb/v7-m\libc_nano.a(lib_a-memcmp.o)
                0x00000000080079b8                memcmp
 .text.memset   0x00000000080079d6       0x10 c:/st/stm32cubeide_1.3.0/stm32cubeide/plugins/com.st.stm32cube.ide.mcu.externaltools.gnu-tools-for-stm32.7-2018-q2-update.win32_1.0.0.201904181610/tools/bin/../lib/gcc/arm-none-eabi/7.3.1/../../../../arm-none-eabi/lib/thumb/v7-m\libc_nano.a(lib_a-memset.o)
                0x00000000080079d6                memset
 *fill*         0x00000000080079e6        0x2 
 .text.sprintf  0x00000000080079e8       0x40 c:/st/stm32cubeide_1.3.0/stm32cubeide/plugins/com.st.stm32cube.ide.mcu.externaltools.gnu-tools-for-stm32.7-2018-q2-update.win32_1.0.0.201904181610/tools/bin/../lib/gcc/arm-none-eabi/7.3.1/../../../../arm-none-eabi/lib/thumb/v7-m\libc_nano.a(lib_a-sprintf.o)
                0x00000000080079e8                siprintf
                0x00000000080079e8                sprintf
 .text.__ssputs_r
                0x0000000008007a28       0xb4 c:/st/stm32cubeide_1.3.0/stm32cubeide/plugins/com.st.stm32cube.ide.mcu.externaltools.gnu-tools-for-stm32.7-2018-q2-update.win32_1.0.0.201904181610/tools/bin/../lib/gcc/arm-none-eabi/7.3.1/../../../../arm-none-eabi/lib/thumb/v7-m\libc_nano.a(lib_a-nano-svfprintf.o)
                0x0000000008007a28                __ssputs_r
 .text._svfprintf_r
                0x0000000008007adc      0x1f0 c:/st/stm32cubeide_1.3.0/stm32cubeide/plugins/com.st.stm32cube.ide.mcu.externaltools.gnu-tools-for-stm32.7-2018-q2-update.win32_1.0.0.201904181610/tools/bin/../lib/gcc/arm-none-eabi/7.3.1/../../../../arm-none-eabi/lib/thumb/v7-m\libc_nano.a(lib_a-nano-svfprintf.o)
                0x0000000008007adc                _svfiprintf_r
                0x0000000008007adc                _svfprintf_r
 .text._printf_common
                0x0000000008007ccc       0xec c:/st/stm32cubeide_1.3.0/stm32cubeide/plugins/com.st.stm32cube.ide.mcu.externaltools.gnu-tools-for-stm32.7-2018-q2-update.win32_1.0.0.201904181610/tools/bin/../lib/gcc/arm-none-eabi/7.3.1/../../../../arm-none-eabi/lib/thumb/v7-m\libc_nano.a(lib_a-nano-vfprintf_i.o)
                0x0000000008007ccc                _printf_common
 .text._printf_i
                0x0000000008007db8      0x224 c:/st/stm32cubeide_1.3.0/stm32cubeide/plugins/com.st.stm32cube.ide.mcu.externaltools.gnu-tools-for-stm32.7-2018-q2-update.win32_1.0.0.201904181610/tools/bin/../lib/gcc/arm-none-eabi/7.3.1/../../../../arm-none-eabi/lib/thumb/v7-m\libc_nano.a(lib_a-nano-vfprintf_i.o)
                0x0000000008007db8                _printf_i
 .text.memchr   0x0000000008007fdc       0x1c c:/st/stm32cubeide_1.3.0/stm32cubeide/plugins/com.st.stm32cube.ide.mcu.externaltools.gnu-tools-for-stm32.7-2018-q2-update.win32_1.0.0.201904181610/tools/bin/../lib/gcc/arm-none-eabi/7.3.1/../../../../arm-none-eabi/lib/thumb/v7-m\libc_nano.a(lib_a-memchr-stub.o)
                0x0000000008007fdc                memchr
 .text.memcpy   0x0000000008007ff8       0x16 c:/st/stm32cubeide_1.3.0/stm32cubeide/plugins/com.st.stm32cube.ide.mcu.externaltools.gnu-tools-for-stm32.7-2018-q2-update.win32_1.0.0.201904181610/tools/bin/../lib/gcc/arm-none-eabi/7.3.1/../../../../arm-none-eabi/lib/thumb/v7-m\libc_nano.a(lib_a-memcpy-stub.o)
                0x0000000008007ff8                memcpy
 .text.memmove  0x000000000800800e       0x32 c:/st/stm32cubeide_1.3.0/stm32cubeide/plugins/com.st.stm32cube.ide.mcu.externaltools.gnu-tools-for-stm32.7-2018-q2-update.win32_1.0.0.201904181610/tools/bin/../lib/gcc/arm-none-eabi/7.3.1/../../../../arm-none-eabi/lib/thumb/v7-m\libc_nano.a(lib_a-memmove.o)
                0x000000000800800e                memmove
 .text._free_r  0x0000000008008040       0x98 c:/st/stm32cubeide_1.3.0/stm32cubeide/plugins/com.st.stm32cube.ide.mcu.externaltools.gnu-tools-for-stm32.7-2018-q2-update.win32_1.0.0.201904181610/tools/bin/../lib/gcc/arm-none-eabi/7.3.1/../../../../arm-none-eabi/lib/thumb/v7-m\libc_nano.a(lib_a-nano-freer.o)
                0x0000000008008040                _free_r
 .text._malloc_r
                0x00000000080080d8       0xb4 c:/st/stm32cubeide_1.3.0/stm32cubeide/plugins/com.st.stm32cube.ide.mcu.externaltools.gnu-tools-for-stm32.7-2018-q2-update.win32_1.0.0.201904181610/tools/bin/../lib/gcc/arm-none-eabi/7.3.1/../../../../arm-none-eabi/lib/thumb/v7-m\libc_nano.a(lib_a-nano-mallocr.o)
                0x00000000080080d8                _malloc_r
 .text._realloc_r
                0x000000000800818c       0x4c c:/st/stm32cubeide_1.3.0/stm32cubeide/plugins/com.st.stm32cube.ide.mcu.externaltools.gnu-tools-for-stm32.7-2018-q2-update.win32_1.0.0.201904181610/tools/bin/../lib/gcc/arm-none-eabi/7.3.1/../../../../arm-none-eabi/lib/thumb/v7-m\libc_nano.a(lib_a-nano-reallocr.o)
                0x000000000800818c                _realloc_r
 .text._sbrk_r  0x00000000080081d8       0x20 c:/st/stm32cubeide_1.3.0/stm32cubeide/plugins/com.st.stm32cube.ide.mcu.externaltools.gnu-tools-for-stm32.7-2018-q2-update.win32_1.0.0.201904181610/tools/bin/../lib/gcc/arm-none-eabi/7.3.1/../../../../arm-none-eabi/lib/thumb/v7-m\libc_nano.a(lib_a-sbrkr.o)
                0x00000000080081d8                _sbrk_r
 .text.__malloc_lock
                0x00000000080081f8        0x2 c:/st/stm32cubeide_1.3.0/stm32cubeide/plugins/com.st.stm32cube.ide.mcu.externaltools.gnu-tools-for-stm32.7-2018-q2-update.win32_1.0.0.201904181610/tools/bin/../lib/gcc/arm-none-eabi/7.3.1/../../../../arm-none-eabi/lib/thumb/v7-m\libc_nano.a(lib_a-mlock.o)
                0x00000000080081f8                __malloc_lock
 .text.__malloc_unlock
                0x00000000080081fa        0x2 c:/st/stm32cubeide_1.3.0/stm32cubeide/plugins/com.st.stm32cube.ide.mcu.externaltools.gnu-tools-for-stm32.7-2018-q2-update.win32_1.0.0.201904181610/tools/bin/../lib/gcc/arm-none-eabi/7.3.1/../../../../arm-none-eabi/lib/thumb/v7-m\libc_nano.a(lib_a-mlock.o)
                0x00000000080081fa                __malloc_unlock
 .text._malloc_usable_size_r
                0x00000000080081fc       0x10 c:/st/stm32cubeide_1.3.0/stm32cubeide/plugins/com.st.stm32cube.ide.mcu.externaltools.gnu-tools-for-stm32.7-2018-q2-update.win32_1.0.0.201904181610/tools/bin/../lib/gcc/arm-none-eabi/7.3.1/../../../../arm-none-eabi/lib/thumb/v7-m\libc_nano.a(lib_a-nano-msizer.o)
                0x00000000080081fc                _malloc_usable_size_r
 *fill*         0x000000000800820c        0x4 
 .text.ceil     0x0000000008008210      0x100 c:/st/stm32cubeide_1.3.0/stm32cubeide/plugins/com.st.stm32cube.ide.mcu.externaltools.gnu-tools-for-stm32.7-2018-q2-update.win32_1.0.0.201904181610/tools/bin/../lib/gcc/arm-none-eabi/7.3.1/../../../../arm-none-eabi/lib/thumb/v7-m\libm.a(lib_a-s_ceil.o)
                0x0000000008008210                ceil
 .text.floor    0x0000000008008310      0x108 c:/st/stm32cubeide_1.3.0/stm32cubeide/plugins/com.st.stm32cube.ide.mcu.externaltools.gnu-tools-for-stm32.7-2018-q2-update.win32_1.0.0.201904181610/tools/bin/../lib/gcc/arm-none-eabi/7.3.1/../../../../arm-none-eabi/lib/thumb/v7-m\libm.a(lib_a-s_floor.o)
                0x0000000008008310                floor
 .text.lround   0x0000000008008418       0x8a c:/st/stm32cubeide_1.3.0/stm32cubeide/plugins/com.st.stm32cube.ide.mcu.externaltools.gnu-tools-for-stm32.7-2018-q2-update.win32_1.0.0.201904181610/tools/bin/../lib/gcc/arm-none-eabi/7.3.1/../../../../arm-none-eabi/lib/thumb/v7-m\libm.a(lib_a-s_lround.o)
                0x0000000008008418                lround
 *fill*         0x00000000080084a2        0x2 
 .text.round    0x00000000080084a4       0x8c c:/st/stm32cubeide_1.3.0/stm32cubeide/plugins/com.st.stm32cube.ide.mcu.externaltools.gnu-tools-for-stm32.7-2018-q2-update.win32_1.0.0.201904181610/tools/bin/../lib/gcc/arm-none-eabi/7.3.1/../../../../arm-none-eabi/lib/thumb/v7-m\libm.a(lib_a-s_round.o)
                0x00000000080084a4                round
 .text.trunc    0x0000000008008530       0x60 c:/st/stm32cubeide_1.3.0/stm32cubeide/plugins/com.st.stm32cube.ide.mcu.externaltools.gnu-tools-for-stm32.7-2018-q2-update.win32_1.0.0.201904181610/tools/bin/../lib/gcc/arm-none-eabi/7.3.1/../../../../arm-none-eabi/lib/thumb/v7-m\libm.a(lib_a-s_trunc.o)
                0x0000000008008530                trunc
 .text.ceilf    0x0000000008008590       0x80 c:/st/stm32cubeide_1.3.0/stm32cubeide/plugins/com.st.stm32cube.ide.mcu.externaltools.gnu-tools-for-stm32.7-2018-q2-update.win32_1.0.0.201904181610/tools/bin/../lib/gcc/arm-none-eabi/7.3.1/../../../../arm-none-eabi/lib/thumb/v7-m\libm.a(lib_a-sf_ceil.o)
                0x0000000008008590                ceilf
 .text.cosf     0x0000000008008610       0x68 c:/st/stm32cubeide_1.3.0/stm32cubeide/plugins/com.st.stm32cube.ide.mcu.externaltools.gnu-tools-for-stm32.7-2018-q2-update.win32_1.0.0.201904181610/tools/bin/../lib/gcc/arm-none-eabi/7.3.1/../../../../arm-none-eabi/lib/thumb/v7-m\libm.a(lib_a-sf_cos.o)
                0x0000000008008610                cosf
 .text.sinf     0x0000000008008678       0x6c c:/st/stm32cubeide_1.3.0/stm32cubeide/plugins/com.st.stm32cube.ide.mcu.externaltools.gnu-tools-for-stm32.7-2018-q2-update.win32_1.0.0.201904181610/tools/bin/../lib/gcc/arm-none-eabi/7.3.1/../../../../arm-none-eabi/lib/thumb/v7-m\libm.a(lib_a-sf_sin.o)
                0x0000000008008678                sinf
 .text.sqrt     0x00000000080086e4       0xa8 c:/st/stm32cubeide_1.3.0/stm32cubeide/plugins/com.st.stm32cube.ide.mcu.externaltools.gnu-tools-for-stm32.7-2018-q2-update.win32_1.0.0.201904181610/tools/bin/../lib/gcc/arm-none-eabi/7.3.1/../../../../arm-none-eabi/lib/thumb/v7-m\libm.a(lib_a-w_sqrt.o)
                0x00000000080086e4                sqrt
 .text.atan2f   0x000000000800878c        0x4 c:/st/stm32cubeide_1.3.0/stm32cubeide/plugins/com.st.stm32cube.ide.mcu.externaltools.gnu-tools-for-stm32.7-2018-q2-update.win32_1.0.0.201904181610/tools/bin/../lib/gcc/arm-none-eabi/7.3.1/../../../../arm-none-eabi/lib/thumb/v7-m\libm.a(lib_a-wf_atan2.o)
                0x000000000800878c                atan2f
 .text.sqrtf    0x0000000008008790       0x94 c:/st/stm32cubeide_1.3.0/stm32cubeide/plugins/com.st.stm32cube.ide.mcu.externaltools.gnu-tools-for-stm32.7-2018-q2-update.win32_1.0.0.201904181610/tools/bin/../lib/gcc/arm-none-eabi/7.3.1/../../../../arm-none-eabi/lib/thumb/v7-m\libm.a(lib_a-wf_sqrt.o)
                0x0000000008008790                sqrtf
 .text.__ieee754_sqrt
                0x0000000008008824      0x158 c:/st/stm32cubeide_1.3.0/stm32cubeide/plugins/com.st.stm32cube.ide.mcu.externaltools.gnu-tools-for-stm32.7-2018-q2-update.win32_1.0.0.201904181610/tools/bin/../lib/gcc/arm-none-eabi/7.3.1/../../../../arm-none-eabi/lib/thumb/v7-m\libm.a(lib_a-e_sqrt.o)
                0x0000000008008824                __ieee754_sqrt
 .text.__ieee754_atan2f
                0x000000000800897c      0x120 c:/st/stm32cubeide_1.3.0/stm32cubeide/plugins/com.st.stm32cube.ide.mcu.externaltools.gnu-tools-for-stm32.7-2018-q2-update.win32_1.0.0.201904181610/tools/bin/../lib/gcc/arm-none-eabi/7.3.1/../../../../arm-none-eabi/lib/thumb/v7-m\libm.a(lib_a-ef_atan2.o)
                0x000000000800897c                __ieee754_atan2f
 .text.__ieee754_rem_pio2f
                0x0000000008008a9c      0x2b0 c:/st/stm32cubeide_1.3.0/stm32cubeide/plugins/com.st.stm32cube.ide.mcu.externaltools.gnu-tools-for-stm32.7-2018-q2-update.win32_1.0.0.201904181610/tools/bin/../lib/gcc/arm-none-eabi/7.3.1/../../../../arm-none-eabi/lib/thumb/v7-m\libm.a(lib_a-ef_rem_pio2.o)
                0x0000000008008a9c                __ieee754_rem_pio2f
 .text.__ieee754_sqrtf
                0x0000000008008d4c       0xa6 c:/st/stm32cubeide_1.3.0/stm32cubeide/plugins/com.st.stm32cube.ide.mcu.externaltools.gnu-tools-for-stm32.7-2018-q2-update.win32_1.0.0.201904181610/tools/bin/../lib/gcc/arm-none-eabi/7.3.1/../../../../arm-none-eabi/lib/thumb/v7-m\libm.a(lib_a-ef_sqrt.o)
                0x0000000008008d4c                __ieee754_sqrtf
 *fill*         0x0000000008008df2        0x2 
 .text.__kernel_cosf
                0x0000000008008df4      0x100 c:/st/stm32cubeide_1.3.0/stm32cubeide/plugins/com.st.stm32cube.ide.mcu.externaltools.gnu-tools-for-stm32.7-2018-q2-update.win32_1.0.0.201904181610/tools/bin/../lib/gcc/arm-none-eabi/7.3.1/../../../../arm-none-eabi/lib/thumb/v7-m\libm.a(lib_a-kf_cos.o)
                0x0000000008008df4                __kernel_cosf
 .text.__kernel_rem_pio2f
                0x0000000008008ef4      0x53c c:/st/stm32cubeide_1.3.0/stm32cubeide/plugins/com.st.stm32cube.ide.mcu.externaltools.gnu-tools-for-stm32.7-2018-q2-update.win32_1.0.0.201904181610/tools/bin/../lib/gcc/arm-none-eabi/7.3.1/../../../../arm-none-eabi/lib/thumb/v7-m\libm.a(lib_a-kf_rem_pio2.o)
                0x0000000008008ef4                __kernel_rem_pio2f
 .text.__kernel_sinf
                0x0000000008009430       0xec c:/st/stm32cubeide_1.3.0/stm32cubeide/plugins/com.st.stm32cube.ide.mcu.externaltools.gnu-tools-for-stm32.7-2018-q2-update.win32_1.0.0.201904181610/tools/bin/../lib/gcc/arm-none-eabi/7.3.1/../../../../arm-none-eabi/lib/thumb/v7-m\libm.a(lib_a-kf_sin.o)
                0x0000000008009430                __kernel_sinf
 .text.matherr  0x000000000800951c        0x4 c:/st/stm32cubeide_1.3.0/stm32cubeide/plugins/com.st.stm32cube.ide.mcu.externaltools.gnu-tools-for-stm32.7-2018-q2-update.win32_1.0.0.201904181610/tools/bin/../lib/gcc/arm-none-eabi/7.3.1/../../../../arm-none-eabi/lib/thumb/v7-m\libm.a(lib_a-s_matherr.o)
                0x000000000800951c                matherr
 .text.atanf    0x0000000008009520      0x218 c:/st/stm32cubeide_1.3.0/stm32cubeide/plugins/com.st.stm32cube.ide.mcu.externaltools.gnu-tools-for-stm32.7-2018-q2-update.win32_1.0.0.201904181610/tools/bin/../lib/gcc/arm-none-eabi/7.3.1/../../../../arm-none-eabi/lib/thumb/v7-m\libm.a(lib_a-sf_atan.o)
                0x0000000008009520                atanf
 .text.fabsf    0x0000000008009738        0x6 c:/st/stm32cubeide_1.3.0/stm32cubeide/plugins/com.st.stm32cube.ide.mcu.externaltools.gnu-tools-for-stm32.7-2018-q2-update.win32_1.0.0.201904181610/tools/bin/../lib/gcc/arm-none-eabi/7.3.1/../../../../arm-none-eabi/lib/thumb/v7-m\libm.a(lib_a-sf_fabs.o)
                0x0000000008009738                fabsf
 *fill*         0x000000000800973e        0x2 
 .text.floorf   0x0000000008009740       0x80 c:/st/stm32cubeide_1.3.0/stm32cubeide/plugins/com.st.stm32cube.ide.mcu.externaltools.gnu-tools-for-stm32.7-2018-q2-update.win32_1.0.0.201904181610/tools/bin/../lib/gcc/arm-none-eabi/7.3.1/../../../../arm-none-eabi/lib/thumb/v7-m\libm.a(lib_a-sf_floor.o)
                0x0000000008009740                floorf
 .text.scalbnf  0x00000000080097c0       0x98 c:/st/stm32cubeide_1.3.0/stm32cubeide/plugins/com.st.stm32cube.ide.mcu.externaltools.gnu-tools-for-stm32.7-2018-q2-update.win32_1.0.0.201904181610/tools/bin/../lib/gcc/arm-none-eabi/7.3.1/../../../../arm-none-eabi/lib/thumb/v7-m\libm.a(lib_a-sf_scalbn.o)
                0x00000000080097c0                scalbnf
 .text.copysignf
                0x0000000008009858        0xc c:/st/stm32cubeide_1.3.0/stm32cubeide/plugins/com.st.stm32cube.ide.mcu.externaltools.gnu-tools-for-stm32.7-2018-q2-update.win32_1.0.0.201904181610/tools/bin/../lib/gcc/arm-none-eabi/7.3.1/../../../../arm-none-eabi/lib/thumb/v7-m\libm.a(lib_a-sf_copysign.o)
                0x0000000008009858                copysignf
 *(.glue_7)
 .glue_7        0x0000000008009864        0x0 linker stubs
 *(.glue_7t)
 .glue_7t       0x0000000008009864        0x0 linker stubs
 *(.eh_frame)
 .eh_frame      0x0000000008009864        0x0 c:/st/stm32cubeide_1.3.0/stm32cubeide/plugins/com.st.stm32cube.ide.mcu.externaltools.gnu-tools-for-stm32.7-2018-q2-update.win32_1.0.0.201904181610/tools/bin/../lib/gcc/arm-none-eabi/7.3.1/thumb/v7-m/crtbegin.o
 *(.init)
 .init          0x0000000008009864        0x4 c:/st/stm32cubeide_1.3.0/stm32cubeide/plugins/com.st.stm32cube.ide.mcu.externaltools.gnu-tools-for-stm32.7-2018-q2-update.win32_1.0.0.201904181610/tools/bin/../lib/gcc/arm-none-eabi/7.3.1/thumb/v7-m/crti.o
                0x0000000008009864                _init
 .init          0x0000000008009868        0x8 c:/st/stm32cubeide_1.3.0/stm32cubeide/plugins/com.st.stm32cube.ide.mcu.externaltools.gnu-tools-for-stm32.7-2018-q2-update.win32_1.0.0.201904181610/tools/bin/../lib/gcc/arm-none-eabi/7.3.1/thumb/v7-m/crtn.o
 *(.fini)
 .fini          0x0000000008009870        0x4 c:/st/stm32cubeide_1.3.0/stm32cubeide/plugins/com.st.stm32cube.ide.mcu.externaltools.gnu-tools-for-stm32.7-2018-q2-update.win32_1.0.0.201904181610/tools/bin/../lib/gcc/arm-none-eabi/7.3.1/thumb/v7-m/crti.o
                0x0000000008009870                _fini
 .fini          0x0000000008009874        0x8 c:/st/stm32cubeide_1.3.0/stm32cubeide/plugins/com.st.stm32cube.ide.mcu.externaltools.gnu-tools-for-stm32.7-2018-q2-update.win32_1.0.0.201904181610/tools/bin/../lib/gcc/arm-none-eabi/7.3.1/thumb/v7-m/crtn.o
                0x000000000800987c                . = ALIGN (0x4)
                0x000000000800987c                _etext = .

.vfp11_veneer   0x000000000800987c        0x0
 .vfp11_veneer  0x000000000800987c        0x0 linker stubs

.v4_bx          0x000000000800987c        0x0
 .v4_bx         0x000000000800987c        0x0 linker stubs

.iplt           0x000000000800987c        0x0
 .iplt          0x000000000800987c        0x0 c:/st/stm32cubeide_1.3.0/stm32cubeide/plugins/com.st.stm32cube.ide.mcu.externaltools.gnu-tools-for-stm32.7-2018-q2-update.win32_1.0.0.201904181610/tools/bin/../lib/gcc/arm-none-eabi/7.3.1/thumb/v7-m/crtbegin.o

.rodata         0x000000000800987c      0x658
                0x000000000800987c                . = ALIGN (0x4)
 *(.rodata)
 .rodata        0x000000000800987c       0x10 Drivers/STM32F1xx_HAL_Driver/Src/stm32f1xx_hal_rcc.o
 *(.rodata*)
 .rodata.AHBPrescTable
                0x000000000800988c       0x10 Src/system_stm32f1xx.o
                0x000000000800988c                AHBPrescTable
 .rodata.APBPrescTable
                0x000000000800989c        0x8 Src/system_stm32f1xx.o
                0x000000000800989c                APBPrescTable
 .rodata.report_alarm_message.str1.1
                0x00000000080098a4        0x7 grbl/report.o
 .rodata.report_build_info.str1.1
                0x00000000080098ab       0x1f grbl/report.o
 .rodata.report_feedback_message.str1.1
                0x00000000080098ca       0x9d grbl/report.o
 .rodata.report_gcode_modes.str1.1
                0x0000000008009967       0x19 grbl/report.o
 .rodata.report_grbl_help.str1.1
                0x0000000008009980       0x4a grbl/report.o
 .rodata.report_init_message.str1.1
                0x00000000080099ca       0x22 grbl/report.o
 .rodata.report_ngc_parameters.str1.1
                0x00000000080099ec       0x15 grbl/report.o
 .rodata.report_probe_parameters.str1.1
                0x0000000008009a01        0x6 grbl/report.o
 .rodata.report_realtime_status.str1.1
                0x0000000008009a07       0x5c grbl/report.o
 .rodata.report_startup_line.str1.1
                0x0000000008009a63        0x3 grbl/report.o
 .rodata.report_status_message.str1.1
                0x0000000008009a66        0xc grbl/report.o
 .rodata.report_util_line_feed.str1.1
                0x0000000008009a72        0xc grbl/report.o
                                          0x3 (size before relaxing)
 .rodata.direction_pin_mask
                0x0000000008009a72        0xc stm32/stm32utilities.o
                0x0000000008009a72                direction_pin_mask
 .rodata.limit_pin_mask
                0x0000000008009a7e        0xc stm32/stm32utilities.o
                0x0000000008009a7e                limit_pin_mask
 .rodata.step_pin_mask
                0x0000000008009a8a        0xc stm32/stm32utilities.o
                0x0000000008009a8a                step_pin_mask
 .rodata.uart_init.str1.1
                0x0000000008009a96        0xf stm32/stm32utilities.o
 .rodata._svfprintf_r.str1.1
                0x0000000008009aa5       0x11 c:/st/stm32cubeide_1.3.0/stm32cubeide/plugins/com.st.stm32cube.ide.mcu.externaltools.gnu-tools-for-stm32.7-2018-q2-update.win32_1.0.0.201904181610/tools/bin/../lib/gcc/arm-none-eabi/7.3.1/../../../../arm-none-eabi/lib/thumb/v7-m\libc_nano.a(lib_a-nano-svfprintf.o)
 .rodata._printf_i.str1.1
                0x0000000008009ab6       0x22 c:/st/stm32cubeide_1.3.0/stm32cubeide/plugins/com.st.stm32cube.ide.mcu.externaltools.gnu-tools-for-stm32.7-2018-q2-update.win32_1.0.0.201904181610/tools/bin/../lib/gcc/arm-none-eabi/7.3.1/../../../../arm-none-eabi/lib/thumb/v7-m\libc_nano.a(lib_a-nano-vfprintf_i.o)
 .rodata.sqrt.str1.1
                0x0000000008009ad8        0x5 c:/st/stm32cubeide_1.3.0/stm32cubeide/plugins/com.st.stm32cube.ide.mcu.externaltools.gnu-tools-for-stm32.7-2018-q2-update.win32_1.0.0.201904181610/tools/bin/../lib/gcc/arm-none-eabi/7.3.1/../../../../arm-none-eabi/lib/thumb/v7-m\libm.a(lib_a-w_sqrt.o)
 .rodata.sqrtf.str1.1
                0x0000000008009add        0x6 c:/st/stm32cubeide_1.3.0/stm32cubeide/plugins/com.st.stm32cube.ide.mcu.externaltools.gnu-tools-for-stm32.7-2018-q2-update.win32_1.0.0.201904181610/tools/bin/../lib/gcc/arm-none-eabi/7.3.1/../../../../arm-none-eabi/lib/thumb/v7-m\libm.a(lib_a-wf_sqrt.o)
 *fill*         0x0000000008009ae3        0x1 
 .rodata.npio2_hw
                0x0000000008009ae4       0x80 c:/st/stm32cubeide_1.3.0/stm32cubeide/plugins/com.st.stm32cube.ide.mcu.externaltools.gnu-tools-for-stm32.7-2018-q2-update.win32_1.0.0.201904181610/tools/bin/../lib/gcc/arm-none-eabi/7.3.1/../../../../arm-none-eabi/lib/thumb/v7-m\libm.a(lib_a-ef_rem_pio2.o)
 .rodata.two_over_pi
                0x0000000008009b64      0x318 c:/st/stm32cubeide_1.3.0/stm32cubeide/plugins/com.st.stm32cube.ide.mcu.externaltools.gnu-tools-for-stm32.7-2018-q2-update.win32_1.0.0.201904181610/tools/bin/../lib/gcc/arm-none-eabi/7.3.1/../../../../arm-none-eabi/lib/thumb/v7-m\libm.a(lib_a-ef_rem_pio2.o)
 .rodata.PIo2   0x0000000008009e7c       0x2c c:/st/stm32cubeide_1.3.0/stm32cubeide/plugins/com.st.stm32cube.ide.mcu.externaltools.gnu-tools-for-stm32.7-2018-q2-update.win32_1.0.0.201904181610/tools/bin/../lib/gcc/arm-none-eabi/7.3.1/../../../../arm-none-eabi/lib/thumb/v7-m\libm.a(lib_a-kf_rem_pio2.o)
 .rodata.init_jk
                0x0000000008009ea8        0xc c:/st/stm32cubeide_1.3.0/stm32cubeide/plugins/com.st.stm32cube.ide.mcu.externaltools.gnu-tools-for-stm32.7-2018-q2-update.win32_1.0.0.201904181610/tools/bin/../lib/gcc/arm-none-eabi/7.3.1/../../../../arm-none-eabi/lib/thumb/v7-m\libm.a(lib_a-kf_rem_pio2.o)
 .rodata.atanhi
                0x0000000008009eb4       0x10 c:/st/stm32cubeide_1.3.0/stm32cubeide/plugins/com.st.stm32cube.ide.mcu.externaltools.gnu-tools-for-stm32.7-2018-q2-update.win32_1.0.0.201904181610/tools/bin/../lib/gcc/arm-none-eabi/7.3.1/../../../../arm-none-eabi/lib/thumb/v7-m\libm.a(lib_a-sf_atan.o)
 .rodata.atanlo
                0x0000000008009ec4       0x10 c:/st/stm32cubeide_1.3.0/stm32cubeide/plugins/com.st.stm32cube.ide.mcu.externaltools.gnu-tools-for-stm32.7-2018-q2-update.win32_1.0.0.201904181610/tools/bin/../lib/gcc/arm-none-eabi/7.3.1/../../../../arm-none-eabi/lib/thumb/v7-m\libm.a(lib_a-sf_atan.o)
                0x0000000008009ed4                . = ALIGN (0x4)

.rel.dyn        0x0000000008009ed4        0x0
 .rel.iplt      0x0000000008009ed4        0x0 c:/st/stm32cubeide_1.3.0/stm32cubeide/plugins/com.st.stm32cube.ide.mcu.externaltools.gnu-tools-for-stm32.7-2018-q2-update.win32_1.0.0.201904181610/tools/bin/../lib/gcc/arm-none-eabi/7.3.1/thumb/v7-m/crtbegin.o

.ARM.extab
 *(.ARM.extab* .gnu.linkonce.armextab.*)

.ARM            0x0000000008009ed4        0x0
                0x0000000008009ed4                __exidx_start = .
 *(.ARM.exidx*)
                0x0000000008009ed4                __exidx_end = .

.preinit_array  0x0000000008009ed4        0x0
                0x0000000008009ed4                PROVIDE (__preinit_array_start = .)
 *(.preinit_array*)
                0x0000000008009ed4                PROVIDE (__preinit_array_end = .)

.init_array     0x0000000008009ed4        0x4
                0x0000000008009ed4                PROVIDE (__init_array_start = .)
 *(SORT_BY_NAME(.init_array.*))
 *(.init_array*)
 .init_array    0x0000000008009ed4        0x4 c:/st/stm32cubeide_1.3.0/stm32cubeide/plugins/com.st.stm32cube.ide.mcu.externaltools.gnu-tools-for-stm32.7-2018-q2-update.win32_1.0.0.201904181610/tools/bin/../lib/gcc/arm-none-eabi/7.3.1/thumb/v7-m/crtbegin.o
                0x0000000008009ed8                PROVIDE (__init_array_end = .)

.fini_array     0x0000000008009ed8        0x4
                [!provide]                        PROVIDE (__fini_array_start = .)
 *(SORT_BY_NAME(.fini_array.*))
 *(.fini_array*)
 .fini_array    0x0000000008009ed8        0x4 c:/st/stm32cubeide_1.3.0/stm32cubeide/plugins/com.st.stm32cube.ide.mcu.externaltools.gnu-tools-for-stm32.7-2018-q2-update.win32_1.0.0.201904181610/tools/bin/../lib/gcc/arm-none-eabi/7.3.1/thumb/v7-m/crtbegin.o
                [!provide]                        PROVIDE (__fini_array_end = .)
                0x0000000008009edc                _sidata = LOADADDR (.data)

.data           0x0000000020000000       0x74 load address 0x0000000008009edc
                0x0000000020000000                . = ALIGN (0x4)
                0x0000000020000000                _sdata = .
 *(.data)
 *(.data*)
 .data.uwTickFreq
                0x0000000020000000        0x1 Drivers/STM32F1xx_HAL_Driver/Src/stm32f1xx_hal.o
                0x0000000020000000                uwTickFreq
 *fill*         0x0000000020000001        0x3 
 .data.uwTickPrio
                0x0000000020000004        0x4 Drivers/STM32F1xx_HAL_Driver/Src/stm32f1xx_hal.o
                0x0000000020000004                uwTickPrio
 .data.SystemCoreClock
                0x0000000020000008        0x4 Src/system_stm32f1xx.o
                0x0000000020000008                SystemCoreClock
 .data._impure_ptr
                0x000000002000000c        0x4 c:/st/stm32cubeide_1.3.0/stm32cubeide/plugins/com.st.stm32cube.ide.mcu.externaltools.gnu-tools-for-stm32.7-2018-q2-update.win32_1.0.0.201904181610/tools/bin/../lib/gcc/arm-none-eabi/7.3.1/../../../../arm-none-eabi/lib/thumb/v7-m\libc_nano.a(lib_a-impure.o)
                0x000000002000000c                _impure_ptr
 .data.impure_data
                0x0000000020000010       0x60 c:/st/stm32cubeide_1.3.0/stm32cubeide/plugins/com.st.stm32cube.ide.mcu.externaltools.gnu-tools-for-stm32.7-2018-q2-update.win32_1.0.0.201904181610/tools/bin/../lib/gcc/arm-none-eabi/7.3.1/../../../../arm-none-eabi/lib/thumb/v7-m\libc_nano.a(lib_a-impure.o)
 .data.__fdlib_version
                0x0000000020000070        0x1 c:/st/stm32cubeide_1.3.0/stm32cubeide/plugins/com.st.stm32cube.ide.mcu.externaltools.gnu-tools-for-stm32.7-2018-q2-update.win32_1.0.0.201904181610/tools/bin/../lib/gcc/arm-none-eabi/7.3.1/../../../../arm-none-eabi/lib/thumb/v7-m\libm.a(lib_a-s_lib_ver.o)
                0x0000000020000070                __fdlib_version
                0x0000000020000074                . = ALIGN (0x4)
 *fill*         0x0000000020000071        0x3 
                0x0000000020000074                _edata = .

.igot.plt       0x0000000020000074        0x0 load address 0x0000000008009f50
 .igot.plt      0x0000000020000074        0x0 c:/st/stm32cubeide_1.3.0/stm32cubeide/plugins/com.st.stm32cube.ide.mcu.externaltools.gnu-tools-for-stm32.7-2018-q2-update.win32_1.0.0.201904181610/tools/bin/../lib/gcc/arm-none-eabi/7.3.1/thumb/v7-m/crtbegin.o
                0x0000000020000074                . = ALIGN (0x4)

.bss            0x0000000020000078     0x4034 load address 0x0000000008009f50
                0x0000000020000078                _sbss = .
                0x0000000020000078                __bss_start__ = _sbss
 *(.bss)
 .bss           0x0000000020000078       0x1c c:/st/stm32cubeide_1.3.0/stm32cubeide/plugins/com.st.stm32cube.ide.mcu.externaltools.gnu-tools-for-stm32.7-2018-q2-update.win32_1.0.0.201904181610/tools/bin/../lib/gcc/arm-none-eabi/7.3.1/thumb/v7-m/crtbegin.o
 *(.bss*)
 .bss.heap_end.5946
                0x0000000020000094        0x4 Src/syscalls.o
 .bss.block_buffer
                0x0000000020000098     0x3200 grbl/planner.o
 .bss.block_buffer_head
                0x0000000020003298        0x1 grbl/planner.o
 .bss.block_buffer_planned
                0x0000000020003299        0x1 grbl/planner.o
 .bss.block_buffer_tail
                0x000000002000329a        0x1 grbl/planner.o
 .bss.next_buffer_head
                0x000000002000329b        0x1 grbl/planner.o
 .bss.pl        0x000000002000329c       0x34 grbl/planner.o
 .bss.line      0x00000000200032d0       0x50 grbl/protocol.o
 .bss.serial_rx_buffer_head
                0x0000000020003320        0x1 grbl/serial.o
                0x0000000020003320                serial_rx_buffer_head
 .bss.serial_rx_buffer_tail
                0x0000000020003321        0x1 grbl/serial.o
                0x0000000020003321                serial_rx_buffer_tail
 *fill*         0x0000000020003322        0x2 
 .bss.pwm_gradient
                0x0000000020003324        0x4 grbl/spindle_control.o
 .bss.busy      0x0000000020003328        0x1 grbl/stepper.o
 *fill*         0x0000000020003329        0x1 
 .bss.dir_port_invert_mask
                0x000000002000332a        0x2 grbl/stepper.o
 .bss.pl_block  0x000000002000332c        0x4 grbl/stepper.o
 .bss.prep      0x0000000020003330       0x38 grbl/stepper.o
 .bss.segment_buffer
                0x0000000020003368      0x100 grbl/stepper.o
 .bss.segment_buffer_head
                0x0000000020003468        0x1 grbl/stepper.o
 .bss.segment_buffer_tail
                0x0000000020003469        0x1 grbl/stepper.o
 .bss.segment_next_head
                0x000000002000346a        0x1 grbl/stepper.o
 *fill*         0x000000002000346b        0x1 
 .bss.st        0x000000002000346c       0x44 grbl/stepper.o
 .bss.st_block_buffer
                0x00000000200034b0      0x3e0 grbl/stepper.o
 .bss.st_prep_block
                0x0000000020003890        0x4 grbl/stepper.o
 .bss.step_port_invert_mask
                0x0000000020003894        0x2 grbl/stepper.o
 *fill*         0x0000000020003896        0x2 
 .bss.fTICKS_PER_MINUTE
                0x0000000020003898        0x4 stm32/stm32utilities.o
                0x0000000020003898                fTICKS_PER_MINUTE
 .bss.uTICKS_PER_MICROSECOND
                0x000000002000389c        0x4 stm32/stm32utilities.o
                0x000000002000389c                uTICKS_PER_MICROSECOND
 .bss.__malloc_free_list
                0x00000000200038a0        0x4 c:/st/stm32cubeide_1.3.0/stm32cubeide/plugins/com.st.stm32cube.ide.mcu.externaltools.gnu-tools-for-stm32.7-2018-q2-update.win32_1.0.0.201904181610/tools/bin/../lib/gcc/arm-none-eabi/7.3.1/../../../../arm-none-eabi/lib/thumb/v7-m\libc_nano.a(lib_a-nano-mallocr.o)
                0x00000000200038a0                __malloc_free_list
 .bss.__malloc_sbrk_start
                0x00000000200038a4        0x4 c:/st/stm32cubeide_1.3.0/stm32cubeide/plugins/com.st.stm32cube.ide.mcu.externaltools.gnu-tools-for-stm32.7-2018-q2-update.win32_1.0.0.201904181610/tools/bin/../lib/gcc/arm-none-eabi/7.3.1/../../../../arm-none-eabi/lib/thumb/v7-m\libc_nano.a(lib_a-nano-mallocr.o)
                0x00000000200038a4                __malloc_sbrk_start
 *(COMMON)
 COMMON         0x00000000200038a8        0x4 Drivers/STM32F1xx_HAL_Driver/Src/stm32f1xx_hal.o
                0x00000000200038a8                uwTick
 *fill*         0x00000000200038ac        0x4 
 COMMON         0x00000000200038b0       0x20 Drivers/STM32F1xx_HAL_Driver/Src/stm32f1xx_hal_flash.o
                0x00000000200038b0                pFlash
 COMMON         0x00000000200038d0       0x4d Src/main.o
                0x00000000200038d0                sys_rt_exec_motion_override
                0x00000000200038d4                sys
                0x00000000200038e8                sys_rt_exec_accessory_override
                0x00000000200038e9                sys_rt_exec_state
                0x00000000200038ea                sys_probe_state
                0x00000000200038ec                sys_probe_position
                0x0000000020003904                sys_position
                0x000000002000391c                sys_rt_exec_alarm
 COMMON         0x000000002000391d      0x400 grbl/eeprom.o
                0x000000002000391d                EE_Buffer
 *fill*         0x0000000020003d1d        0x3 
 COMMON         0x0000000020003d20       0xd0 grbl/gcode.o
                0x0000000020003d20                gc_state
                0x0000000020003d8c                gc_block
 COMMON         0x0000000020003df0        0x2 grbl/probe.o
                0x0000000020003df0                probe_invert_mask
 COMMON         0x0000000020003df2      0x17e grbl/serial.o
                0x0000000020003df2                serial_tx_buffer
                0x0000000020003e72                serial_rx_buffer
 COMMON         0x0000000020003f70       0xc4 grbl/settings.o
                0x0000000020003f70                settings
                0x0000000020004004                adjustments
 COMMON         0x0000000020004034       0x73 stm32/stm32utilities.o
                0x0000000020004034                pDbgStr
                0x0000000020004084                pDbgVal8a
                0x000000002000408d                pDbgVal16
                0x000000002000409e                pDbgVal8b
 *fill*         0x00000000200040a7        0x1 
 COMMON         0x00000000200040a8        0x4 c:/st/stm32cubeide_1.3.0/stm32cubeide/plugins/com.st.stm32cube.ide.mcu.externaltools.gnu-tools-for-stm32.7-2018-q2-update.win32_1.0.0.201904181610/tools/bin/../lib/gcc/arm-none-eabi/7.3.1/../../../../arm-none-eabi/lib/thumb/v7-m\libc_nano.a(lib_a-reent.o)
                0x00000000200040a8                errno
                0x00000000200040ac                . = ALIGN (0x4)
                0x00000000200040ac                _ebss = .
                0x00000000200040ac                __bss_end__ = _ebss

._user_heap_stack
                0x00000000200040ac      0x600 load address 0x0000000008009f50
                0x00000000200040ac                . = ALIGN (0x4)
                0x00000000200040ac                PROVIDE (end = .)
                [!provide]                        PROVIDE (_end = .)
                0x00000000200042ac                . = (. + _Min_Heap_Size)
 *fill*         0x00000000200040ac      0x200 
                0x00000000200046ac                . = (. + _Min_Stack_Size)
 *fill*         0x00000000200042ac      0x400 
                0x00000000200046ac                . = ALIGN (0x4)

/DISCARD/
 libc.a(*)
 libm.a(*)
 libgcc.a(*)

.ARM.attributes
                0x0000000000000000       0x29
 *(.ARM.attributes)
 .ARM.attributes
                0x0000000000000000       0x1d c:/st/stm32cubeide_1.3.0/stm32cubeide/plugins/com.st.stm32cube.ide.mcu.externaltools.gnu-tools-for-stm32.7-2018-q2-update.win32_1.0.0.201904181610/tools/bin/../lib/gcc/arm-none-eabi/7.3.1/thumb/v7-m/crti.o
 .ARM.attributes
                0x000000000000001d       0x2d c:/st/stm32cubeide_1.3.0/stm32cubeide/plugins/com.st.stm32cube.ide.mcu.externaltools.gnu-tools-for-stm32.7-2018-q2-update.win32_1.0.0.201904181610/tools/bin/../lib/gcc/arm-none-eabi/7.3.1/thumb/v7-m/crtbegin.o
 .ARM.attributes
                0x000000000000004a       0x33 Drivers/STM32F1xx_HAL_Driver/Src/stm32f1xx_hal.o
 .ARM.attributes
                0x000000000000007d       0x33 Drivers/STM32F1xx_HAL_Driver/Src/stm32f1xx_hal_cortex.o
 .ARM.attributes
                0x00000000000000b0       0x33 Drivers/STM32F1xx_HAL_Driver/Src/stm32f1xx_hal_flash.o
 .ARM.attributes
                0x00000000000000e3       0x33 Drivers/STM32F1xx_HAL_Driver/Src/stm32f1xx_hal_flash_ex.o
 .ARM.attributes
                0x0000000000000116       0x33 Drivers/STM32F1xx_HAL_Driver/Src/stm32f1xx_hal_gpio.o
 .ARM.attributes
                0x0000000000000149       0x33 Drivers/STM32F1xx_HAL_Driver/Src/stm32f1xx_hal_rcc.o
 .ARM.attributes
                0x000000000000017c       0x33 Drivers/STM32F1xx_HAL_Driver/Src/stm32f1xx_ll_gpio.o
 .ARM.attributes
                0x00000000000001af       0x33 Drivers/STM32F1xx_HAL_Driver/Src/stm32f1xx_ll_rcc.o
 .ARM.attributes
                0x00000000000001e2       0x33 Drivers/STM32F1xx_HAL_Driver/Src/stm32f1xx_ll_tim.o
 .ARM.attributes
                0x0000000000000215       0x33 Drivers/STM32F1xx_HAL_Driver/Src/stm32f1xx_ll_usart.o
 .ARM.attributes
                0x0000000000000248       0x33 Src/gpio.o
 .ARM.attributes
                0x000000000000027b       0x33 Src/main.o
 .ARM.attributes
                0x00000000000002ae       0x33 Src/stm32f1xx_hal_msp.o
 .ARM.attributes
                0x00000000000002e1       0x33 Src/stm32f1xx_it.o
 .ARM.attributes
                0x0000000000000314       0x33 Src/syscalls.o
 .ARM.attributes
                0x0000000000000347       0x33 Src/system_stm32f1xx.o
 .ARM.attributes
                0x000000000000037a       0x33 Src/tim.o
 .ARM.attributes
                0x00000000000003ad       0x33 Src/usart.o
 .ARM.attributes
                0x00000000000003e0       0x33 grbl/coolant_control.o
 .ARM.attributes
                0x0000000000000413       0x33 grbl/eeprom.o
 .ARM.attributes
                0x0000000000000446       0x33 grbl/gcode.o
 .ARM.attributes
                0x0000000000000479       0x33 grbl/jog.o
 .ARM.attributes
                0x00000000000004ac       0x33 grbl/limits.o
 .ARM.attributes
                0x00000000000004df       0x33 grbl/motion_control.o
 .ARM.attributes
                0x0000000000000512       0x33 grbl/nuts_bolts.o
 .ARM.attributes
                0x0000000000000545       0x33 grbl/planner.o
 .ARM.attributes
                0x0000000000000578       0x33 grbl/print.o
 .ARM.attributes
                0x00000000000005ab       0x33 grbl/probe.o
 .ARM.attributes
                0x00000000000005de       0x33 grbl/protocol.o
 .ARM.attributes
                0x0000000000000611       0x33 grbl/report.o
 .ARM.attributes
                0x0000000000000644       0x33 grbl/serial.o
 .ARM.attributes
                0x0000000000000677       0x33 grbl/settings.o
 .ARM.attributes
                0x00000000000006aa       0x33 grbl/spindle_control.o
 .ARM.attributes
                0x00000000000006dd       0x33 grbl/stepper.o
 .ARM.attributes
                0x0000000000000710       0x33 grbl/system.o
 .ARM.attributes
                0x0000000000000743       0x21 startup/startup_stm32f103xb.o
 .ARM.attributes
                0x0000000000000764       0x33 stm32/inoutputs.o
 .ARM.attributes
                0x0000000000000797       0x33 stm32/stm32utilities.o
 .ARM.attributes
                0x00000000000007ca       0x2d c:/st/stm32cubeide_1.3.0/stm32cubeide/plugins/com.st.stm32cube.ide.mcu.externaltools.gnu-tools-for-stm32.7-2018-q2-update.win32_1.0.0.201904181610/tools/bin/../lib/gcc/arm-none-eabi/7.3.1/../../../../arm-none-eabi/lib/thumb/v7-m\libc_nano.a(lib_a-errno.o)
 .ARM.attributes
                0x00000000000007f7       0x2d c:/st/stm32cubeide_1.3.0/stm32cubeide/plugins/com.st.stm32cube.ide.mcu.externaltools.gnu-tools-for-stm32.7-2018-q2-update.win32_1.0.0.201904181610/tools/bin/../lib/gcc/arm-none-eabi/7.3.1/../../../../arm-none-eabi/lib/thumb/v7-m\libc_nano.a(lib_a-impure.o)
 .ARM.attributes
                0x0000000000000824       0x2d c:/st/stm32cubeide_1.3.0/stm32cubeide/plugins/com.st.stm32cube.ide.mcu.externaltools.gnu-tools-for-stm32.7-2018-q2-update.win32_1.0.0.201904181610/tools/bin/../lib/gcc/arm-none-eabi/7.3.1/../../../../arm-none-eabi/lib/thumb/v7-m\libc_nano.a(lib_a-init.o)
 .ARM.attributes
                0x0000000000000851       0x2d c:/st/stm32cubeide_1.3.0/stm32cubeide/plugins/com.st.stm32cube.ide.mcu.externaltools.gnu-tools-for-stm32.7-2018-q2-update.win32_1.0.0.201904181610/tools/bin/../lib/gcc/arm-none-eabi/7.3.1/../../../../arm-none-eabi/lib/thumb/v7-m\libc_nano.a(lib_a-memcmp.o)
 .ARM.attributes
                0x000000000000087e       0x2d c:/st/stm32cubeide_1.3.0/stm32cubeide/plugins/com.st.stm32cube.ide.mcu.externaltools.gnu-tools-for-stm32.7-2018-q2-update.win32_1.0.0.201904181610/tools/bin/../lib/gcc/arm-none-eabi/7.3.1/../../../../arm-none-eabi/lib/thumb/v7-m\libc_nano.a(lib_a-memset.o)
 .ARM.attributes
                0x00000000000008ab       0x2d c:/st/stm32cubeide_1.3.0/stm32cubeide/plugins/com.st.stm32cube.ide.mcu.externaltools.gnu-tools-for-stm32.7-2018-q2-update.win32_1.0.0.201904181610/tools/bin/../lib/gcc/arm-none-eabi/7.3.1/../../../../arm-none-eabi/lib/thumb/v7-m\libc_nano.a(lib_a-sprintf.o)
 .ARM.attributes
                0x00000000000008d8       0x2d c:/st/stm32cubeide_1.3.0/stm32cubeide/plugins/com.st.stm32cube.ide.mcu.externaltools.gnu-tools-for-stm32.7-2018-q2-update.win32_1.0.0.201904181610/tools/bin/../lib/gcc/arm-none-eabi/7.3.1/../../../../arm-none-eabi/lib/thumb/v7-m\libc_nano.a(lib_a-nano-svfprintf.o)
 .ARM.attributes
                0x0000000000000905       0x2d c:/st/stm32cubeide_1.3.0/stm32cubeide/plugins/com.st.stm32cube.ide.mcu.externaltools.gnu-tools-for-stm32.7-2018-q2-update.win32_1.0.0.201904181610/tools/bin/../lib/gcc/arm-none-eabi/7.3.1/../../../../arm-none-eabi/lib/thumb/v7-m\libc_nano.a(lib_a-nano-vfprintf_i.o)
 .ARM.attributes
                0x0000000000000932       0x2d c:/st/stm32cubeide_1.3.0/stm32cubeide/plugins/com.st.stm32cube.ide.mcu.externaltools.gnu-tools-for-stm32.7-2018-q2-update.win32_1.0.0.201904181610/tools/bin/../lib/gcc/arm-none-eabi/7.3.1/../../../../arm-none-eabi/lib/thumb/v7-m\libc_nano.a(lib_a-memchr-stub.o)
 .ARM.attributes
                0x000000000000095f       0x2d c:/st/stm32cubeide_1.3.0/stm32cubeide/plugins/com.st.stm32cube.ide.mcu.externaltools.gnu-tools-for-stm32.7-2018-q2-update.win32_1.0.0.201904181610/tools/bin/../lib/gcc/arm-none-eabi/7.3.1/../../../../arm-none-eabi/lib/thumb/v7-m\libc_nano.a(lib_a-memcpy-stub.o)
 .ARM.attributes
                0x000000000000098c       0x2d c:/st/stm32cubeide_1.3.0/stm32cubeide/plugins/com.st.stm32cube.ide.mcu.externaltools.gnu-tools-for-stm32.7-2018-q2-update.win32_1.0.0.201904181610/tools/bin/../lib/gcc/arm-none-eabi/7.3.1/../../../../arm-none-eabi/lib/thumb/v7-m\libc_nano.a(lib_a-memmove.o)
 .ARM.attributes
                0x00000000000009b9       0x2d c:/st/stm32cubeide_1.3.0/stm32cubeide/plugins/com.st.stm32cube.ide.mcu.externaltools.gnu-tools-for-stm32.7-2018-q2-update.win32_1.0.0.201904181610/tools/bin/../lib/gcc/arm-none-eabi/7.3.1/../../../../arm-none-eabi/lib/thumb/v7-m\libc_nano.a(lib_a-nano-freer.o)
 .ARM.attributes
                0x00000000000009e6       0x2d c:/st/stm32cubeide_1.3.0/stm32cubeide/plugins/com.st.stm32cube.ide.mcu.externaltools.gnu-tools-for-stm32.7-2018-q2-update.win32_1.0.0.201904181610/tools/bin/../lib/gcc/arm-none-eabi/7.3.1/../../../../arm-none-eabi/lib/thumb/v7-m\libc_nano.a(lib_a-nano-mallocr.o)
 .ARM.attributes
                0x0000000000000a13       0x2d c:/st/stm32cubeide_1.3.0/stm32cubeide/plugins/com.st.stm32cube.ide.mcu.externaltools.gnu-tools-for-stm32.7-2018-q2-update.win32_1.0.0.201904181610/tools/bin/../lib/gcc/arm-none-eabi/7.3.1/../../../../arm-none-eabi/lib/thumb/v7-m\libc_nano.a(lib_a-nano-reallocr.o)
 .ARM.attributes
                0x0000000000000a40       0x2d c:/st/stm32cubeide_1.3.0/stm32cubeide/plugins/com.st.stm32cube.ide.mcu.externaltools.gnu-tools-for-stm32.7-2018-q2-update.win32_1.0.0.201904181610/tools/bin/../lib/gcc/arm-none-eabi/7.3.1/../../../../arm-none-eabi/lib/thumb/v7-m\libc_nano.a(lib_a-sbrkr.o)
 .ARM.attributes
                0x0000000000000a6d       0x2d c:/st/stm32cubeide_1.3.0/stm32cubeide/plugins/com.st.stm32cube.ide.mcu.externaltools.gnu-tools-for-stm32.7-2018-q2-update.win32_1.0.0.201904181610/tools/bin/../lib/gcc/arm-none-eabi/7.3.1/../../../../arm-none-eabi/lib/thumb/v7-m\libc_nano.a(lib_a-mlock.o)
 .ARM.attributes
                0x0000000000000a9a       0x2d c:/st/stm32cubeide_1.3.0/stm32cubeide/plugins/com.st.stm32cube.ide.mcu.externaltools.gnu-tools-for-stm32.7-2018-q2-update.win32_1.0.0.201904181610/tools/bin/../lib/gcc/arm-none-eabi/7.3.1/../../../../arm-none-eabi/lib/thumb/v7-m\libc_nano.a(lib_a-nano-msizer.o)
 .ARM.attributes
                0x0000000000000ac7       0x2d c:/st/stm32cubeide_1.3.0/stm32cubeide/plugins/com.st.stm32cube.ide.mcu.externaltools.gnu-tools-for-stm32.7-2018-q2-update.win32_1.0.0.201904181610/tools/bin/../lib/gcc/arm-none-eabi/7.3.1/../../../../arm-none-eabi/lib/thumb/v7-m\libc_nano.a(lib_a-reent.o)
 .ARM.attributes
                0x0000000000000af4       0x2d c:/st/stm32cubeide_1.3.0/stm32cubeide/plugins/com.st.stm32cube.ide.mcu.externaltools.gnu-tools-for-stm32.7-2018-q2-update.win32_1.0.0.201904181610/tools/bin/../lib/gcc/arm-none-eabi/7.3.1/../../../../arm-none-eabi/lib/thumb/v7-m\libm.a(lib_a-s_ceil.o)
 .ARM.attributes
                0x0000000000000b21       0x2d c:/st/stm32cubeide_1.3.0/stm32cubeide/plugins/com.st.stm32cube.ide.mcu.externaltools.gnu-tools-for-stm32.7-2018-q2-update.win32_1.0.0.201904181610/tools/bin/../lib/gcc/arm-none-eabi/7.3.1/../../../../arm-none-eabi/lib/thumb/v7-m\libm.a(lib_a-s_floor.o)
 .ARM.attributes
                0x0000000000000b4e       0x2d c:/st/stm32cubeide_1.3.0/stm32cubeide/plugins/com.st.stm32cube.ide.mcu.externaltools.gnu-tools-for-stm32.7-2018-q2-update.win32_1.0.0.201904181610/tools/bin/../lib/gcc/arm-none-eabi/7.3.1/../../../../arm-none-eabi/lib/thumb/v7-m\libm.a(lib_a-s_lround.o)
 .ARM.attributes
                0x0000000000000b7b       0x2d c:/st/stm32cubeide_1.3.0/stm32cubeide/plugins/com.st.stm32cube.ide.mcu.externaltools.gnu-tools-for-stm32.7-2018-q2-update.win32_1.0.0.201904181610/tools/bin/../lib/gcc/arm-none-eabi/7.3.1/../../../../arm-none-eabi/lib/thumb/v7-m\libm.a(lib_a-s_round.o)
 .ARM.attributes
                0x0000000000000ba8       0x2d c:/st/stm32cubeide_1.3.0/stm32cubeide/plugins/com.st.stm32cube.ide.mcu.externaltools.gnu-tools-for-stm32.7-2018-q2-update.win32_1.0.0.201904181610/tools/bin/../lib/gcc/arm-none-eabi/7.3.1/../../../../arm-none-eabi/lib/thumb/v7-m\libm.a(lib_a-s_trunc.o)
 .ARM.attributes
                0x0000000000000bd5       0x2d c:/st/stm32cubeide_1.3.0/stm32cubeide/plugins/com.st.stm32cube.ide.mcu.externaltools.gnu-tools-for-stm32.7-2018-q2-update.win32_1.0.0.201904181610/tools/bin/../lib/gcc/arm-none-eabi/7.3.1/../../../../arm-none-eabi/lib/thumb/v7-m\libm.a(lib_a-sf_ceil.o)
 .ARM.attributes
                0x0000000000000c02       0x2d c:/st/stm32cubeide_1.3.0/stm32cubeide/plugins/com.st.stm32cube.ide.mcu.externaltools.gnu-tools-for-stm32.7-2018-q2-update.win32_1.0.0.201904181610/tools/bin/../lib/gcc/arm-none-eabi/7.3.1/../../../../arm-none-eabi/lib/thumb/v7-m\libm.a(lib_a-sf_cos.o)
 .ARM.attributes
                0x0000000000000c2f       0x2d c:/st/stm32cubeide_1.3.0/stm32cubeide/plugins/com.st.stm32cube.ide.mcu.externaltools.gnu-tools-for-stm32.7-2018-q2-update.win32_1.0.0.201904181610/tools/bin/../lib/gcc/arm-none-eabi/7.3.1/../../../../arm-none-eabi/lib/thumb/v7-m\libm.a(lib_a-sf_sin.o)
 .ARM.attributes
                0x0000000000000c5c       0x2d c:/st/stm32cubeide_1.3.0/stm32cubeide/plugins/com.st.stm32cube.ide.mcu.externaltools.gnu-tools-for-stm32.7-2018-q2-update.win32_1.0.0.201904181610/tools/bin/../lib/gcc/arm-none-eabi/7.3.1/../../../../arm-none-eabi/lib/thumb/v7-m\libm.a(lib_a-w_sqrt.o)
 .ARM.attributes
                0x0000000000000c89       0x2d c:/st/stm32cubeide_1.3.0/stm32cubeide/plugins/com.st.stm32cube.ide.mcu.externaltools.gnu-tools-for-stm32.7-2018-q2-update.win32_1.0.0.201904181610/tools/bin/../lib/gcc/arm-none-eabi/7.3.1/../../../../arm-none-eabi/lib/thumb/v7-m\libm.a(lib_a-wf_atan2.o)
 .ARM.attributes
                0x0000000000000cb6       0x2d c:/st/stm32cubeide_1.3.0/stm32cubeide/plugins/com.st.stm32cube.ide.mcu.externaltools.gnu-tools-for-stm32.7-2018-q2-update.win32_1.0.0.201904181610/tools/bin/../lib/gcc/arm-none-eabi/7.3.1/../../../../arm-none-eabi/lib/thumb/v7-m\libm.a(lib_a-wf_sqrt.o)
 .ARM.attributes
                0x0000000000000ce3       0x2d c:/st/stm32cubeide_1.3.0/stm32cubeide/plugins/com.st.stm32cube.ide.mcu.externaltools.gnu-tools-for-stm32.7-2018-q2-update.win32_1.0.0.201904181610/tools/bin/../lib/gcc/arm-none-eabi/7.3.1/../../../../arm-none-eabi/lib/thumb/v7-m\libm.a(lib_a-e_sqrt.o)
 .ARM.attributes
                0x0000000000000d10       0x2d c:/st/stm32cubeide_1.3.0/stm32cubeide/plugins/com.st.stm32cube.ide.mcu.externaltools.gnu-tools-for-stm32.7-2018-q2-update.win32_1.0.0.201904181610/tools/bin/../lib/gcc/arm-none-eabi/7.3.1/../../../../arm-none-eabi/lib/thumb/v7-m\libm.a(lib_a-ef_atan2.o)
 .ARM.attributes
                0x0000000000000d3d       0x2d c:/st/stm32cubeide_1.3.0/stm32cubeide/plugins/com.st.stm32cube.ide.mcu.externaltools.gnu-tools-for-stm32.7-2018-q2-update.win32_1.0.0.201904181610/tools/bin/../lib/gcc/arm-none-eabi/7.3.1/../../../../arm-none-eabi/lib/thumb/v7-m\libm.a(lib_a-ef_rem_pio2.o)
 .ARM.attributes
                0x0000000000000d6a       0x2d c:/st/stm32cubeide_1.3.0/stm32cubeide/plugins/com.st.stm32cube.ide.mcu.externaltools.gnu-tools-for-stm32.7-2018-q2-update.win32_1.0.0.201904181610/tools/bin/../lib/gcc/arm-none-eabi/7.3.1/../../../../arm-none-eabi/lib/thumb/v7-m\libm.a(lib_a-ef_sqrt.o)
 .ARM.attributes
                0x0000000000000d97       0x2d c:/st/stm32cubeide_1.3.0/stm32cubeide/plugins/com.st.stm32cube.ide.mcu.externaltools.gnu-tools-for-stm32.7-2018-q2-update.win32_1.0.0.201904181610/tools/bin/../lib/gcc/arm-none-eabi/7.3.1/../../../../arm-none-eabi/lib/thumb/v7-m\libm.a(lib_a-kf_cos.o)
 .ARM.attributes
                0x0000000000000dc4       0x2d c:/st/stm32cubeide_1.3.0/stm32cubeide/plugins/com.st.stm32cube.ide.mcu.externaltools.gnu-tools-for-stm32.7-2018-q2-update.win32_1.0.0.201904181610/tools/bin/../lib/gcc/arm-none-eabi/7.3.1/../../../../arm-none-eabi/lib/thumb/v7-m\libm.a(lib_a-kf_rem_pio2.o)
 .ARM.attributes
                0x0000000000000df1       0x2d c:/st/stm32cubeide_1.3.0/stm32cubeide/plugins/com.st.stm32cube.ide.mcu.externaltools.gnu-tools-for-stm32.7-2018-q2-update.win32_1.0.0.201904181610/tools/bin/../lib/gcc/arm-none-eabi/7.3.1/../../../../arm-none-eabi/lib/thumb/v7-m\libm.a(lib_a-kf_sin.o)
 .ARM.attributes
                0x0000000000000e1e       0x2d c:/st/stm32cubeide_1.3.0/stm32cubeide/plugins/com.st.stm32cube.ide.mcu.externaltools.gnu-tools-for-stm32.7-2018-q2-update.win32_1.0.0.201904181610/tools/bin/../lib/gcc/arm-none-eabi/7.3.1/../../../../arm-none-eabi/lib/thumb/v7-m\libm.a(lib_a-s_lib_ver.o)
 .ARM.attributes
                0x0000000000000e4b       0x2d c:/st/stm32cubeide_1.3.0/stm32cubeide/plugins/com.st.stm32cube.ide.mcu.externaltools.gnu-tools-for-stm32.7-2018-q2-update.win32_1.0.0.201904181610/tools/bin/../lib/gcc/arm-none-eabi/7.3.1/../../../../arm-none-eabi/lib/thumb/v7-m\libm.a(lib_a-s_matherr.o)
 .ARM.attributes
                0x0000000000000e78       0x2d c:/st/stm32cubeide_1.3.0/stm32cubeide/plugins/com.st.stm32cube.ide.mcu.externaltools.gnu-tools-for-stm32.7-2018-q2-update.win32_1.0.0.201904181610/tools/bin/../lib/gcc/arm-none-eabi/7.3.1/../../../../arm-none-eabi/lib/thumb/v7-m\libm.a(lib_a-sf_atan.o)
 .ARM.attributes
                0x0000000000000ea5       0x2d c:/st/stm32cubeide_1.3.0/stm32cubeide/plugins/com.st.stm32cube.ide.mcu.externaltools.gnu-tools-for-stm32.7-2018-q2-update.win32_1.0.0.201904181610/tools/bin/../lib/gcc/arm-none-eabi/7.3.1/../../../../arm-none-eabi/lib/thumb/v7-m\libm.a(lib_a-sf_fabs.o)
 .ARM.attributes
                0x0000000000000ed2       0x2d c:/st/stm32cubeide_1.3.0/stm32cubeide/plugins/com.st.stm32cube.ide.mcu.externaltools.gnu-tools-for-stm32.7-2018-q2-update.win32_1.0.0.201904181610/tools/bin/../lib/gcc/arm-none-eabi/7.3.1/../../../../arm-none-eabi/lib/thumb/v7-m\libm.a(lib_a-sf_floor.o)
 .ARM.attributes
                0x0000000000000eff       0x2d c:/st/stm32cubeide_1.3.0/stm32cubeide/plugins/com.st.stm32cube.ide.mcu.externaltools.gnu-tools-for-stm32.7-2018-q2-update.win32_1.0.0.201904181610/tools/bin/../lib/gcc/arm-none-eabi/7.3.1/../../../../arm-none-eabi/lib/thumb/v7-m\libm.a(lib_a-sf_scalbn.o)
 .ARM.attributes
                0x0000000000000f2c       0x2d c:/st/stm32cubeide_1.3.0/stm32cubeide/plugins/com.st.stm32cube.ide.mcu.externaltools.gnu-tools-for-stm32.7-2018-q2-update.win32_1.0.0.201904181610/tools/bin/../lib/gcc/arm-none-eabi/7.3.1/../../../../arm-none-eabi/lib/thumb/v7-m\libm.a(lib_a-sf_copysign.o)
 .ARM.attributes
                0x0000000000000f59       0x1d c:/st/stm32cubeide_1.3.0/stm32cubeide/plugins/com.st.stm32cube.ide.mcu.externaltools.gnu-tools-for-stm32.7-2018-q2-update.win32_1.0.0.201904181610/tools/bin/../lib/gcc/arm-none-eabi/7.3.1/thumb/v7-m\libgcc.a(_arm_addsubdf3.o)
 .ARM.attributes
                0x0000000000000f76       0x1d c:/st/stm32cubeide_1.3.0/stm32cubeide/plugins/com.st.stm32cube.ide.mcu.externaltools.gnu-tools-for-stm32.7-2018-q2-update.win32_1.0.0.201904181610/tools/bin/../lib/gcc/arm-none-eabi/7.3.1/thumb/v7-m\libgcc.a(_arm_muldivdf3.o)
 .ARM.attributes
                0x0000000000000f93       0x1d c:/st/stm32cubeide_1.3.0/stm32cubeide/plugins/com.st.stm32cube.ide.mcu.externaltools.gnu-tools-for-stm32.7-2018-q2-update.win32_1.0.0.201904181610/tools/bin/../lib/gcc/arm-none-eabi/7.3.1/thumb/v7-m\libgcc.a(_arm_cmpdf2.o)
 .ARM.attributes
                0x0000000000000fb0       0x1d c:/st/stm32cubeide_1.3.0/stm32cubeide/plugins/com.st.stm32cube.ide.mcu.externaltools.gnu-tools-for-stm32.7-2018-q2-update.win32_1.0.0.201904181610/tools/bin/../lib/gcc/arm-none-eabi/7.3.1/thumb/v7-m\libgcc.a(_arm_unorddf2.o)
 .ARM.attributes
                0x0000000000000fcd       0x1d c:/st/stm32cubeide_1.3.0/stm32cubeide/plugins/com.st.stm32cube.ide.mcu.externaltools.gnu-tools-for-stm32.7-2018-q2-update.win32_1.0.0.201904181610/tools/bin/../lib/gcc/arm-none-eabi/7.3.1/thumb/v7-m\libgcc.a(_arm_fixdfsi.o)
 .ARM.attributes
                0x0000000000000fea       0x1d c:/st/stm32cubeide_1.3.0/stm32cubeide/plugins/com.st.stm32cube.ide.mcu.externaltools.gnu-tools-for-stm32.7-2018-q2-update.win32_1.0.0.201904181610/tools/bin/../lib/gcc/arm-none-eabi/7.3.1/thumb/v7-m\libgcc.a(_arm_fixunsdfsi.o)
 .ARM.attributes
                0x0000000000001007       0x1d c:/st/stm32cubeide_1.3.0/stm32cubeide/plugins/com.st.stm32cube.ide.mcu.externaltools.gnu-tools-for-stm32.7-2018-q2-update.win32_1.0.0.201904181610/tools/bin/../lib/gcc/arm-none-eabi/7.3.1/thumb/v7-m\libgcc.a(_arm_truncdfsf2.o)
 .ARM.attributes
                0x0000000000001024       0x1d c:/st/stm32cubeide_1.3.0/stm32cubeide/plugins/com.st.stm32cube.ide.mcu.externaltools.gnu-tools-for-stm32.7-2018-q2-update.win32_1.0.0.201904181610/tools/bin/../lib/gcc/arm-none-eabi/7.3.1/thumb/v7-m\libgcc.a(_arm_addsubsf3.o)
 .ARM.attributes
                0x0000000000001041       0x1d c:/st/stm32cubeide_1.3.0/stm32cubeide/plugins/com.st.stm32cube.ide.mcu.externaltools.gnu-tools-for-stm32.7-2018-q2-update.win32_1.0.0.201904181610/tools/bin/../lib/gcc/arm-none-eabi/7.3.1/thumb/v7-m\libgcc.a(_arm_muldivsf3.o)
 .ARM.attributes
                0x000000000000105e       0x1d c:/st/stm32cubeide_1.3.0/stm32cubeide/plugins/com.st.stm32cube.ide.mcu.externaltools.gnu-tools-for-stm32.7-2018-q2-update.win32_1.0.0.201904181610/tools/bin/../lib/gcc/arm-none-eabi/7.3.1/thumb/v7-m\libgcc.a(_arm_cmpsf2.o)
 .ARM.attributes
                0x000000000000107b       0x1d c:/st/stm32cubeide_1.3.0/stm32cubeide/plugins/com.st.stm32cube.ide.mcu.externaltools.gnu-tools-for-stm32.7-2018-q2-update.win32_1.0.0.201904181610/tools/bin/../lib/gcc/arm-none-eabi/7.3.1/thumb/v7-m\libgcc.a(_arm_unordsf2.o)
 .ARM.attributes
                0x0000000000001098       0x1d c:/st/stm32cubeide_1.3.0/stm32cubeide/plugins/com.st.stm32cube.ide.mcu.externaltools.gnu-tools-for-stm32.7-2018-q2-update.win32_1.0.0.201904181610/tools/bin/../lib/gcc/arm-none-eabi/7.3.1/thumb/v7-m\libgcc.a(_arm_fixsfsi.o)
 .ARM.attributes
                0x00000000000010b5       0x1d c:/st/stm32cubeide_1.3.0/stm32cubeide/plugins/com.st.stm32cube.ide.mcu.externaltools.gnu-tools-for-stm32.7-2018-q2-update.win32_1.0.0.201904181610/tools/bin/../lib/gcc/arm-none-eabi/7.3.1/thumb/v7-m\libgcc.a(_arm_fixunssfsi.o)
 .ARM.attributes
                0x00000000000010d2       0x1d c:/st/stm32cubeide_1.3.0/stm32cubeide/plugins/com.st.stm32cube.ide.mcu.externaltools.gnu-tools-for-stm32.7-2018-q2-update.win32_1.0.0.201904181610/tools/bin/../lib/gcc/arm-none-eabi/7.3.1/thumb/v7-m/crtn.o
OUTPUT(F16.elf elf32-littlearm)

.debug_info     0x0000000000000000    0x28b00
 .debug_info    0x0000000000000000      0x7d1 Drivers/STM32F1xx_HAL_Driver/Src/stm32f1xx_hal.o
 .debug_info    0x00000000000007d1      0xca4 Drivers/STM32F1xx_HAL_Driver/Src/stm32f1xx_hal_cortex.o
 .debug_info    0x0000000000001475      0x6db Drivers/STM32F1xx_HAL_Driver/Src/stm32f1xx_hal_flash.o
 .debug_info    0x0000000000001b50      0xb9f Drivers/STM32F1xx_HAL_Driver/Src/stm32f1xx_hal_flash_ex.o
 .debug_info    0x00000000000026ef      0x691 Drivers/STM32F1xx_HAL_Driver/Src/stm32f1xx_hal_gpio.o
 .debug_info    0x0000000000002d80      0x9db Drivers/STM32F1xx_HAL_Driver/Src/stm32f1xx_hal_rcc.o
 .debug_info    0x000000000000375b      0x847 Drivers/STM32F1xx_HAL_Driver/Src/stm32f1xx_ll_gpio.o
 .debug_info    0x0000000000003fa2      0x6f6 Drivers/STM32F1xx_HAL_Driver/Src/stm32f1xx_ll_rcc.o
 .debug_info    0x0000000000004698     0x1111 Drivers/STM32F1xx_HAL_Driver/Src/stm32f1xx_ll_tim.o
 .debug_info    0x00000000000057a9      0x790 Drivers/STM32F1xx_HAL_Driver/Src/stm32f1xx_ll_usart.o
 .debug_info    0x0000000000005f39     0x1350 Src/gpio.o
 .debug_info    0x0000000000007289     0x19a4 Src/main.o
 .debug_info    0x0000000000008c2d      0xfef Src/stm32f1xx_hal_msp.o
 .debug_info    0x0000000000009c1c     0x17b9 Src/stm32f1xx_it.o
 .debug_info    0x000000000000b3d5      0xfe9 Src/syscalls.o
 .debug_info    0x000000000000c3be      0x43a Src/system_stm32f1xx.o
 .debug_info    0x000000000000c7f8     0x1e26 Src/tim.o
 .debug_info    0x000000000000e61e     0x12fe Src/usart.o
 .debug_info    0x000000000000f91c     0x10d2 grbl/coolant_control.o
 .debug_info    0x00000000000109ee     0x11ed grbl/eeprom.o
 .debug_info    0x0000000000011bdb     0x173a grbl/gcode.o
 .debug_info    0x0000000000013315     0x104e grbl/jog.o
 .debug_info    0x0000000000014363     0x1638 grbl/limits.o
 .debug_info    0x000000000001599b     0x174a grbl/motion_control.o
 .debug_info    0x00000000000170e5     0x1207 grbl/nuts_bolts.o
 .debug_info    0x00000000000182ec     0x167c grbl/planner.o
 .debug_info    0x0000000000019968     0x118c grbl/print.o
 .debug_info    0x000000000001aaf4      0xffb grbl/probe.o
 .debug_info    0x000000000001baef     0x15fd grbl/protocol.o
 .debug_info    0x000000000001d0ec     0x2021 grbl/report.o
 .debug_info    0x000000000001f10d     0x10af grbl/serial.o
 .debug_info    0x00000000000201bc     0x1512 grbl/settings.o
 .debug_info    0x00000000000216ce     0x13df grbl/spindle_control.o
 .debug_info    0x0000000000022aad     0x20cc grbl/stepper.o
 .debug_info    0x0000000000024b79     0x1715 grbl/system.o
 .debug_info    0x000000000002628e       0x22 startup/startup_stm32f103xb.o
 .debug_info    0x00000000000262b0     0x12f7 stm32/inoutputs.o
 .debug_info    0x00000000000275a7     0x1559 stm32/stm32utilities.o

.debug_abbrev   0x0000000000000000     0x6df2
 .debug_abbrev  0x0000000000000000      0x251 Drivers/STM32F1xx_HAL_Driver/Src/stm32f1xx_hal.o
 .debug_abbrev  0x0000000000000251      0x30c Drivers/STM32F1xx_HAL_Driver/Src/stm32f1xx_hal_cortex.o
 .debug_abbrev  0x000000000000055d      0x2d8 Drivers/STM32F1xx_HAL_Driver/Src/stm32f1xx_hal_flash.o
 .debug_abbrev  0x0000000000000835      0x2ca Drivers/STM32F1xx_HAL_Driver/Src/stm32f1xx_hal_flash_ex.o
 .debug_abbrev  0x0000000000000aff      0x1e9 Drivers/STM32F1xx_HAL_Driver/Src/stm32f1xx_hal_gpio.o
 .debug_abbrev  0x0000000000000ce8      0x2ac Drivers/STM32F1xx_HAL_Driver/Src/stm32f1xx_hal_rcc.o
 .debug_abbrev  0x0000000000000f94      0x23e Drivers/STM32F1xx_HAL_Driver/Src/stm32f1xx_ll_gpio.o
 .debug_abbrev  0x00000000000011d2      0x28b Drivers/STM32F1xx_HAL_Driver/Src/stm32f1xx_ll_rcc.o
 .debug_abbrev  0x000000000000145d      0x282 Drivers/STM32F1xx_HAL_Driver/Src/stm32f1xx_ll_tim.o
 .debug_abbrev  0x00000000000016df      0x241 Drivers/STM32F1xx_HAL_Driver/Src/stm32f1xx_ll_usart.o
 .debug_abbrev  0x0000000000001920      0x251 Src/gpio.o
 .debug_abbrev  0x0000000000001b71      0x379 Src/main.o
 .debug_abbrev  0x0000000000001eea      0x1fd Src/stm32f1xx_hal_msp.o
 .debug_abbrev  0x00000000000020e7      0x378 Src/stm32f1xx_it.o
 .debug_abbrev  0x000000000000245f      0x2dc Src/syscalls.o
 .debug_abbrev  0x000000000000273b      0x134 Src/system_stm32f1xx.o
 .debug_abbrev  0x000000000000286f      0x362 Src/tim.o
 .debug_abbrev  0x0000000000002bd1      0x2bb Src/usart.o
 .debug_abbrev  0x0000000000002e8c      0x317 grbl/coolant_control.o
 .debug_abbrev  0x00000000000031a3      0x32f grbl/eeprom.o
 .debug_abbrev  0x00000000000034d2      0x2ed grbl/gcode.o
 .debug_abbrev  0x00000000000037bf      0x231 grbl/jog.o
 .debug_abbrev  0x00000000000039f0      0x3fd grbl/limits.o
 .debug_abbrev  0x0000000000003ded      0x374 grbl/motion_control.o
 .debug_abbrev  0x0000000000004161      0x2c9 grbl/nuts_bolts.o
 .debug_abbrev  0x000000000000442a      0x464 grbl/planner.o
 .debug_abbrev  0x000000000000488e      0x310 grbl/print.o
 .debug_abbrev  0x0000000000004b9e      0x2aa grbl/probe.o
 .debug_abbrev  0x0000000000004e48      0x2cb grbl/protocol.o
 .debug_abbrev  0x0000000000005113      0x3f6 grbl/report.o
 .debug_abbrev  0x0000000000005509      0x27f grbl/serial.o
 .debug_abbrev  0x0000000000005788      0x3af grbl/settings.o
 .debug_abbrev  0x0000000000005b37      0x3b7 grbl/spindle_control.o
 .debug_abbrev  0x0000000000005eee      0x445 grbl/stepper.o
 .debug_abbrev  0x0000000000006333      0x3ae grbl/system.o
 .debug_abbrev  0x00000000000066e1       0x12 startup/startup_stm32f103xb.o
 .debug_abbrev  0x00000000000066f3      0x389 stm32/inoutputs.o
 .debug_abbrev  0x0000000000006a7c      0x376 stm32/stm32utilities.o

.debug_loc      0x0000000000000000     0x8158
 .debug_loc     0x0000000000000000       0xf3 Drivers/STM32F1xx_HAL_Driver/Src/stm32f1xx_hal.o
 .debug_loc     0x00000000000000f3      0x457 Drivers/STM32F1xx_HAL_Driver/Src/stm32f1xx_hal_cortex.o
 .debug_loc     0x000000000000054a      0x326 Drivers/STM32F1xx_HAL_Driver/Src/stm32f1xx_hal_flash.o
 .debug_loc     0x0000000000000870      0x6b5 Drivers/STM32F1xx_HAL_Driver/Src/stm32f1xx_hal_flash_ex.o
 .debug_loc     0x0000000000000f25      0x2f6 Drivers/STM32F1xx_HAL_Driver/Src/stm32f1xx_hal_gpio.o
 .debug_loc     0x000000000000121b      0x486 Drivers/STM32F1xx_HAL_Driver/Src/stm32f1xx_hal_rcc.o
 .debug_loc     0x00000000000016a1      0x306 Drivers/STM32F1xx_HAL_Driver/Src/stm32f1xx_ll_gpio.o
 .debug_loc     0x00000000000019a7      0x1e2 Drivers/STM32F1xx_HAL_Driver/Src/stm32f1xx_ll_rcc.o
 .debug_loc     0x0000000000001b89      0xc3d Drivers/STM32F1xx_HAL_Driver/Src/stm32f1xx_ll_tim.o
 .debug_loc     0x00000000000027c6      0x365 Drivers/STM32F1xx_HAL_Driver/Src/stm32f1xx_ll_usart.o
 .debug_loc     0x0000000000002b2b       0x2a Src/main.o
 .debug_loc     0x0000000000002b55       0xc1 Src/stm32f1xx_it.o
 .debug_loc     0x0000000000002c16      0x3ef Src/syscalls.o
 .debug_loc     0x0000000000003005       0xcd Src/system_stm32f1xx.o
 .debug_loc     0x00000000000030d2      0x349 Src/tim.o
 .debug_loc     0x000000000000341b       0x5a Src/usart.o
 .debug_loc     0x0000000000003475       0xd7 grbl/coolant_control.o
 .debug_loc     0x000000000000354c      0x3df grbl/eeprom.o
 .debug_loc     0x000000000000392b      0xded grbl/gcode.o
 .debug_loc     0x0000000000004718       0xb1 grbl/jog.o
 .debug_loc     0x00000000000047c9      0x372 grbl/limits.o
 .debug_loc     0x0000000000004b3b      0x6b1 grbl/motion_control.o
 .debug_loc     0x00000000000051ec      0x4f8 grbl/nuts_bolts.o
 .debug_loc     0x00000000000056e4      0x649 grbl/planner.o
 .debug_loc     0x0000000000005d2d      0x3ea grbl/print.o
 .debug_loc     0x0000000000006117       0x2b grbl/probe.o
 .debug_loc     0x0000000000006142      0x28b grbl/protocol.o
 .debug_loc     0x00000000000063cd      0x402 grbl/report.o
 .debug_loc     0x00000000000067cf      0x110 grbl/serial.o
 .debug_loc     0x00000000000068df      0x468 grbl/settings.o
 .debug_loc     0x0000000000006d47      0x2ad grbl/spindle_control.o
 .debug_loc     0x0000000000006ff4      0x95f grbl/stepper.o
 .debug_loc     0x0000000000007953      0x51b grbl/system.o
 .debug_loc     0x0000000000007e6e      0x16a stm32/inoutputs.o
 .debug_loc     0x0000000000007fd8      0x180 stm32/stm32utilities.o

.debug_aranges  0x0000000000000000      0xdc0
 .debug_aranges
                0x0000000000000000       0xd8 Drivers/STM32F1xx_HAL_Driver/Src/stm32f1xx_hal.o
 .debug_aranges
                0x00000000000000d8       0x90 Drivers/STM32F1xx_HAL_Driver/Src/stm32f1xx_hal_cortex.o
 .debug_aranges
                0x0000000000000168       0x78 Drivers/STM32F1xx_HAL_Driver/Src/stm32f1xx_hal_flash.o
 .debug_aranges
                0x00000000000001e0       0x60 Drivers/STM32F1xx_HAL_Driver/Src/stm32f1xx_hal_flash_ex.o
 .debug_aranges
                0x0000000000000240       0x58 Drivers/STM32F1xx_HAL_Driver/Src/stm32f1xx_hal_gpio.o
 .debug_aranges
                0x0000000000000298       0x88 Drivers/STM32F1xx_HAL_Driver/Src/stm32f1xx_hal_rcc.o
 .debug_aranges
                0x0000000000000320       0x30 Drivers/STM32F1xx_HAL_Driver/Src/stm32f1xx_ll_gpio.o
 .debug_aranges
                0x0000000000000350       0x60 Drivers/STM32F1xx_HAL_Driver/Src/stm32f1xx_ll_rcc.o
 .debug_aranges
                0x00000000000003b0       0x80 Drivers/STM32F1xx_HAL_Driver/Src/stm32f1xx_ll_tim.o
 .debug_aranges
                0x0000000000000430       0x40 Drivers/STM32F1xx_HAL_Driver/Src/stm32f1xx_ll_usart.o
 .debug_aranges
                0x0000000000000470       0x20 Src/gpio.o
 .debug_aranges
                0x0000000000000490       0x30 Src/main.o
 .debug_aranges
                0x00000000000004c0       0x20 Src/stm32f1xx_hal_msp.o
 .debug_aranges
                0x00000000000004e0       0x88 Src/stm32f1xx_it.o
 .debug_aranges
                0x0000000000000568       0xb0 Src/syscalls.o
 .debug_aranges
                0x0000000000000618       0x28 Src/system_stm32f1xx.o
 .debug_aranges
                0x0000000000000640       0x38 Src/tim.o
 .debug_aranges
                0x0000000000000678       0x20 Src/usart.o
 .debug_aranges
                0x0000000000000698       0x40 grbl/coolant_control.o
 .debug_aranges
                0x00000000000006d8       0x48 grbl/eeprom.o
 .debug_aranges
                0x0000000000000720       0x30 grbl/gcode.o
 .debug_aranges
                0x0000000000000750       0x20 grbl/jog.o
 .debug_aranges
                0x0000000000000770       0x50 grbl/limits.o
 .debug_aranges
                0x00000000000007c0       0x48 grbl/motion_control.o
 .debug_aranges
                0x0000000000000808       0x58 grbl/nuts_bolts.o
 .debug_aranges
                0x0000000000000860       0x98 grbl/planner.o
 .debug_aranges
                0x00000000000008f8       0x58 grbl/print.o
 .debug_aranges
                0x0000000000000950       0x38 grbl/probe.o
 .debug_aranges
                0x0000000000000988       0x40 grbl/protocol.o
 .debug_aranges
                0x00000000000009c8       0xb8 grbl/report.o
 .debug_aranges
                0x0000000000000a80       0x58 grbl/serial.o
 .debug_aranges
                0x0000000000000ad8       0x78 grbl/settings.o
 .debug_aranges
                0x0000000000000b50       0x50 grbl/spindle_control.o
 .debug_aranges
                0x0000000000000ba0       0x68 grbl/stepper.o
 .debug_aranges
                0x0000000000000c08       0xa8 grbl/system.o
 .debug_aranges
                0x0000000000000cb0       0x28 startup/startup_stm32f103xb.o
 .debug_aranges
                0x0000000000000cd8       0x78 stm32/inoutputs.o
 .debug_aranges
                0x0000000000000d50       0x70 stm32/stm32utilities.o

.debug_ranges   0x0000000000000000     0x1588
 .debug_ranges  0x0000000000000000       0xc8 Drivers/STM32F1xx_HAL_Driver/Src/stm32f1xx_hal.o
 .debug_ranges  0x00000000000000c8      0x148 Drivers/STM32F1xx_HAL_Driver/Src/stm32f1xx_hal_cortex.o
 .debug_ranges  0x0000000000000210       0xc8 Drivers/STM32F1xx_HAL_Driver/Src/stm32f1xx_hal_flash.o
 .debug_ranges  0x00000000000002d8       0xe0 Drivers/STM32F1xx_HAL_Driver/Src/stm32f1xx_hal_flash_ex.o
 .debug_ranges  0x00000000000003b8       0x60 Drivers/STM32F1xx_HAL_Driver/Src/stm32f1xx_hal_gpio.o
 .debug_ranges  0x0000000000000418       0xa8 Drivers/STM32F1xx_HAL_Driver/Src/stm32f1xx_hal_rcc.o
 .debug_ranges  0x00000000000004c0       0x80 Drivers/STM32F1xx_HAL_Driver/Src/stm32f1xx_ll_gpio.o
 .debug_ranges  0x0000000000000540       0xd0 Drivers/STM32F1xx_HAL_Driver/Src/stm32f1xx_ll_rcc.o
 .debug_ranges  0x0000000000000610       0xb8 Drivers/STM32F1xx_HAL_Driver/Src/stm32f1xx_ll_tim.o
 .debug_ranges  0x00000000000006c8       0x30 Drivers/STM32F1xx_HAL_Driver/Src/stm32f1xx_ll_usart.o
 .debug_ranges  0x00000000000006f8       0x98 Src/gpio.o
 .debug_ranges  0x0000000000000790       0xa0 Src/main.o
 .debug_ranges  0x0000000000000830       0x58 Src/stm32f1xx_hal_msp.o
 .debug_ranges  0x0000000000000888       0x78 Src/stm32f1xx_it.o
 .debug_ranges  0x0000000000000900       0xa0 Src/syscalls.o
 .debug_ranges  0x00000000000009a0       0x18 Src/system_stm32f1xx.o
 .debug_ranges  0x00000000000009b8      0x118 Src/tim.o
 .debug_ranges  0x0000000000000ad0       0x68 Src/usart.o
 .debug_ranges  0x0000000000000b38       0x48 grbl/coolant_control.o
 .debug_ranges  0x0000000000000b80       0x50 grbl/eeprom.o
 .debug_ranges  0x0000000000000bd0       0xa0 grbl/gcode.o
 .debug_ranges  0x0000000000000c70       0x10 grbl/jog.o
 .debug_ranges  0x0000000000000c80       0x90 grbl/limits.o
 .debug_ranges  0x0000000000000d10       0x80 grbl/motion_control.o
 .debug_ranges  0x0000000000000d90       0x60 grbl/nuts_bolts.o
 .debug_ranges  0x0000000000000df0      0x148 grbl/planner.o
 .debug_ranges  0x0000000000000f38       0x60 grbl/print.o
 .debug_ranges  0x0000000000000f98       0x40 grbl/probe.o
 .debug_ranges  0x0000000000000fd8       0x60 grbl/protocol.o
 .debug_ranges  0x0000000000001038       0xc0 grbl/report.o
 .debug_ranges  0x00000000000010f8       0x48 grbl/serial.o
 .debug_ranges  0x0000000000001140       0x98 grbl/settings.o
 .debug_ranges  0x00000000000011d8       0x70 grbl/spindle_control.o
 .debug_ranges  0x0000000000001248      0x188 grbl/stepper.o
 .debug_ranges  0x00000000000013d0       0xb0 grbl/system.o
 .debug_ranges  0x0000000000001480       0x20 startup/startup_stm32f103xb.o
 .debug_ranges  0x00000000000014a0       0x68 stm32/inoutputs.o
 .debug_ranges  0x0000000000001508       0x80 stm32/stm32utilities.o

.debug_macro    0x0000000000000000    0x1e67d
 .debug_macro   0x0000000000000000      0x19f Drivers/STM32F1xx_HAL_Driver/Src/stm32f1xx_hal.o
 .debug_macro   0x000000000000019f      0xa84 Drivers/STM32F1xx_HAL_Driver/Src/stm32f1xx_hal.o
 .debug_macro   0x0000000000000c23      0x20f Drivers/STM32F1xx_HAL_Driver/Src/stm32f1xx_hal.o
 .debug_macro   0x0000000000000e32       0x28 Drivers/STM32F1xx_HAL_Driver/Src/stm32f1xx_hal.o
 .debug_macro   0x0000000000000e5a       0x22 Drivers/STM32F1xx_HAL_Driver/Src/stm32f1xx_hal.o
 .debug_macro   0x0000000000000e7c       0x22 Drivers/STM32F1xx_HAL_Driver/Src/stm32f1xx_hal.o
 .debug_macro   0x0000000000000e9e       0x8e Drivers/STM32F1xx_HAL_Driver/Src/stm32f1xx_hal.o
 .debug_macro   0x0000000000000f2c       0x51 Drivers/STM32F1xx_HAL_Driver/Src/stm32f1xx_hal.o
 .debug_macro   0x0000000000000f7d       0xef Drivers/STM32F1xx_HAL_Driver/Src/stm32f1xx_hal.o
 .debug_macro   0x000000000000106c       0x6a Drivers/STM32F1xx_HAL_Driver/Src/stm32f1xx_hal.o
 .debug_macro   0x00000000000010d6      0x1df Drivers/STM32F1xx_HAL_Driver/Src/stm32f1xx_hal.o
 .debug_macro   0x00000000000012b5       0x1c Drivers/STM32F1xx_HAL_Driver/Src/stm32f1xx_hal.o
 .debug_macro   0x00000000000012d1       0x22 Drivers/STM32F1xx_HAL_Driver/Src/stm32f1xx_hal.o
 .debug_macro   0x00000000000012f3       0xc3 Drivers/STM32F1xx_HAL_Driver/Src/stm32f1xx_hal.o
 .debug_macro   0x00000000000013b6      0xd23 Drivers/STM32F1xx_HAL_Driver/Src/stm32f1xx_hal.o
 .debug_macro   0x00000000000020d9     0xe09e Drivers/STM32F1xx_HAL_Driver/Src/stm32f1xx_hal.o
 .debug_macro   0x0000000000010177       0x43 Drivers/STM32F1xx_HAL_Driver/Src/stm32f1xx_hal.o
 .debug_macro   0x00000000000101ba      0x174 Drivers/STM32F1xx_HAL_Driver/Src/stm32f1xx_hal.o
 .debug_macro   0x000000000001032e       0x4e Drivers/STM32F1xx_HAL_Driver/Src/stm32f1xx_hal.o
 .debug_macro   0x000000000001037c      0x5be Drivers/STM32F1xx_HAL_Driver/Src/stm32f1xx_hal.o
 .debug_macro   0x000000000001093a      0x289 Drivers/STM32F1xx_HAL_Driver/Src/stm32f1xx_hal.o
 .debug_macro   0x0000000000010bc3      0x1cb Drivers/STM32F1xx_HAL_Driver/Src/stm32f1xx_hal.o
 .debug_macro   0x0000000000010d8e      0x114 Drivers/STM32F1xx_HAL_Driver/Src/stm32f1xx_hal.o
 .debug_macro   0x0000000000010ea2      0x1b2 Drivers/STM32F1xx_HAL_Driver/Src/stm32f1xx_hal.o
 .debug_macro   0x0000000000011054       0x27 Drivers/STM32F1xx_HAL_Driver/Src/stm32f1xx_hal.o
 .debug_macro   0x000000000001107b      0x136 Drivers/STM32F1xx_HAL_Driver/Src/stm32f1xx_hal.o
 .debug_macro   0x00000000000111b1      0x1bc Drivers/STM32F1xx_HAL_Driver/Src/stm32f1xx_hal.o
 .debug_macro   0x000000000001136d       0x34 Drivers/STM32F1xx_HAL_Driver/Src/stm32f1xx_hal.o
 .debug_macro   0x00000000000113a1       0x3c Drivers/STM32F1xx_HAL_Driver/Src/stm32f1xx_hal.o
 .debug_macro   0x00000000000113dd       0x57 Drivers/STM32F1xx_HAL_Driver/Src/stm32f1xx_hal.o
 .debug_macro   0x0000000000011434       0x88 Drivers/STM32F1xx_HAL_Driver/Src/stm32f1xx_hal.o
 .debug_macro   0x00000000000114bc      0x241 Drivers/STM32F1xx_HAL_Driver/Src/stm32f1xx_hal.o
 .debug_macro   0x00000000000116fd      0x141 Drivers/STM32F1xx_HAL_Driver/Src/stm32f1xx_hal.o
 .debug_macro   0x000000000001183e       0x83 Drivers/STM32F1xx_HAL_Driver/Src/stm32f1xx_hal.o
 .debug_macro   0x00000000000118c1      0x17b Drivers/STM32F1xx_HAL_Driver/Src/stm32f1xx_hal_cortex.o
 .debug_macro   0x0000000000011a3c      0x17b Drivers/STM32F1xx_HAL_Driver/Src/stm32f1xx_hal_flash.o
 .debug_macro   0x0000000000011bb7      0x18d Drivers/STM32F1xx_HAL_Driver/Src/stm32f1xx_hal_flash_ex.o
 .debug_macro   0x0000000000011d44      0x1e6 Drivers/STM32F1xx_HAL_Driver/Src/stm32f1xx_hal_gpio.o
 .debug_macro   0x0000000000011f2a      0x18d Drivers/STM32F1xx_HAL_Driver/Src/stm32f1xx_hal_rcc.o
 .debug_macro   0x00000000000120b7      0x1b7 Drivers/STM32F1xx_HAL_Driver/Src/stm32f1xx_ll_gpio.o
 .debug_macro   0x000000000001226e      0x224 Drivers/STM32F1xx_HAL_Driver/Src/stm32f1xx_ll_gpio.o
 .debug_macro   0x0000000000012492      0x19c Drivers/STM32F1xx_HAL_Driver/Src/stm32f1xx_ll_rcc.o
 .debug_macro   0x000000000001262e      0x2b8 Drivers/STM32F1xx_HAL_Driver/Src/stm32f1xx_ll_rcc.o
 .debug_macro   0x00000000000128e6      0x206 Drivers/STM32F1xx_HAL_Driver/Src/stm32f1xx_ll_tim.o
 .debug_macro   0x0000000000012aec      0x574 Drivers/STM32F1xx_HAL_Driver/Src/stm32f1xx_ll_tim.o
 .debug_macro   0x0000000000013060      0x1f0 Drivers/STM32F1xx_HAL_Driver/Src/stm32f1xx_ll_usart.o
 .debug_macro   0x0000000000013250      0x1ae Drivers/STM32F1xx_HAL_Driver/Src/stm32f1xx_ll_usart.o
 .debug_macro   0x00000000000133fe      0x2be Drivers/STM32F1xx_HAL_Driver/Src/stm32f1xx_ll_usart.o
 .debug_macro   0x00000000000136bc      0x43f Src/gpio.o
 .debug_macro   0x0000000000013afb      0x57a Src/gpio.o
 .debug_macro   0x0000000000014075      0x1b4 Src/gpio.o
 .debug_macro   0x0000000000014229       0xd0 Src/gpio.o
 .debug_macro   0x00000000000142f9       0x28 Src/gpio.o
 .debug_macro   0x0000000000014321       0x90 Src/gpio.o
 .debug_macro   0x00000000000143b1      0x287 Src/gpio.o
 .debug_macro   0x0000000000014638      0x22a Src/gpio.o
 .debug_macro   0x0000000000014862       0x16 Src/gpio.o
 .debug_macro   0x0000000000014878      0x201 Src/gpio.o
 .debug_macro   0x0000000000014a79       0x46 Src/gpio.o
 .debug_macro   0x0000000000014abf       0x16 Src/gpio.o
 .debug_macro   0x0000000000014ad5       0x46 Src/gpio.o
 .debug_macro   0x0000000000014b1b       0x18 Src/gpio.o
 .debug_macro   0x0000000000014b33       0x3c Src/gpio.o
 .debug_macro   0x0000000000014b6f       0x34 Src/gpio.o
 .debug_macro   0x0000000000014ba3       0x52 Src/gpio.o
 .debug_macro   0x0000000000014bf5       0x1f Src/gpio.o
 .debug_macro   0x0000000000014c14       0x43 Src/gpio.o
 .debug_macro   0x0000000000014c57       0x20 Src/gpio.o
 .debug_macro   0x0000000000014c77      0x1a3 Src/gpio.o
 .debug_macro   0x0000000000014e1a      0x32a Src/gpio.o
 .debug_macro   0x0000000000015144      0x1cc Src/gpio.o
 .debug_macro   0x0000000000015310       0x22 Src/gpio.o
 .debug_macro   0x0000000000015332       0x10 Src/gpio.o
 .debug_macro   0x0000000000015342       0x35 Src/gpio.o
 .debug_macro   0x0000000000015377      0x460 Src/gpio.o
 .debug_macro   0x00000000000157d7       0x16 Src/gpio.o
 .debug_macro   0x00000000000157ed       0x20 Src/gpio.o
 .debug_macro   0x000000000001580d       0x16 Src/gpio.o
 .debug_macro   0x0000000000015823       0x16 Src/gpio.o
 .debug_macro   0x0000000000015839       0x29 Src/gpio.o
 .debug_macro   0x0000000000015862       0x22 Src/gpio.o
 .debug_macro   0x0000000000015884      0x2da Src/gpio.o
 .debug_macro   0x0000000000015b5e       0x5e Src/gpio.o
 .debug_macro   0x0000000000015bbc       0xac Src/gpio.o
 .debug_macro   0x0000000000015c68      0x196 Src/gpio.o
 .debug_macro   0x0000000000015dfe      0x137 Src/gpio.o
 .debug_macro   0x0000000000015f35       0x58 Src/gpio.o
 .debug_macro   0x0000000000015f8d       0x28 Src/gpio.o
 .debug_macro   0x0000000000015fb5      0x2b4 Src/gpio.o
 .debug_macro   0x0000000000016269       0x40 Src/gpio.o
 .debug_macro   0x00000000000162a9       0x16 Src/gpio.o
 .debug_macro   0x00000000000162bf       0x10 Src/gpio.o
 .debug_macro   0x00000000000162cf      0x166 Src/gpio.o
 .debug_macro   0x0000000000016435       0x1c Src/gpio.o
 .debug_macro   0x0000000000016451       0x2e Src/gpio.o
 .debug_macro   0x000000000001647f       0x10 Src/gpio.o
 .debug_macro   0x000000000001648f       0x10 Src/gpio.o
 .debug_macro   0x000000000001649f       0x16 Src/gpio.o
 .debug_macro   0x00000000000164b5      0x1cd Src/gpio.o
 .debug_macro   0x0000000000016682       0xf7 Src/gpio.o
 .debug_macro   0x0000000000016779      0x457 Src/main.o
 .debug_macro   0x0000000000016bd0      0x435 Src/stm32f1xx_hal_msp.o
 .debug_macro   0x0000000000017005      0x44f Src/stm32f1xx_it.o
 .debug_macro   0x0000000000017454      0x243 Src/syscalls.o
 .debug_macro   0x0000000000017697       0x40 Src/syscalls.o
 .debug_macro   0x00000000000176d7       0x94 Src/syscalls.o
 .debug_macro   0x000000000001776b       0x57 Src/syscalls.o
 .debug_macro   0x00000000000177c2      0x330 Src/syscalls.o
 .debug_macro   0x0000000000017af2       0x10 Src/syscalls.o
 .debug_macro   0x0000000000017b02       0x10 Src/syscalls.o
 .debug_macro   0x0000000000017b12       0x10 Src/syscalls.o
 .debug_macro   0x0000000000017b22       0x10 Src/syscalls.o
 .debug_macro   0x0000000000017b32       0x1c Src/syscalls.o
 .debug_macro   0x0000000000017b4e       0x52 Src/syscalls.o
 .debug_macro   0x0000000000017ba0       0x40 Src/syscalls.o
 .debug_macro   0x0000000000017be0       0x10 Src/syscalls.o
 .debug_macro   0x0000000000017bf0       0x40 Src/syscalls.o
 .debug_macro   0x0000000000017c30       0xd7 Src/syscalls.o
 .debug_macro   0x0000000000017d07       0x1c Src/syscalls.o
 .debug_macro   0x0000000000017d23       0x3d Src/syscalls.o
 .debug_macro   0x0000000000017d60       0x35 Src/syscalls.o
 .debug_macro   0x0000000000017d95      0x122 Src/syscalls.o
 .debug_macro   0x0000000000017eb7       0x10 Src/syscalls.o
 .debug_macro   0x0000000000017ec7      0x241 Src/syscalls.o
 .debug_macro   0x0000000000018108       0x1c Src/syscalls.o
 .debug_macro   0x0000000000018124       0x10 Src/syscalls.o
 .debug_macro   0x0000000000018134       0x10 Src/syscalls.o
 .debug_macro   0x0000000000018144       0x16 Src/syscalls.o
 .debug_macro   0x000000000001815a      0x145 Src/syscalls.o
 .debug_macro   0x000000000001829f      0x189 Src/syscalls.o
 .debug_macro   0x0000000000018428       0x16 Src/syscalls.o
 .debug_macro   0x000000000001843e       0x88 Src/syscalls.o
 .debug_macro   0x00000000000184c6      0x181 Src/system_stm32f1xx.o
 .debug_macro   0x0000000000018647      0x43f Src/tim.o
 .debug_macro   0x0000000000018a86      0x43f Src/usart.o
 .debug_macro   0x0000000000018ec5      0x42f grbl/coolant_control.o
 .debug_macro   0x00000000000192f4      0x1e1 grbl/coolant_control.o
 .debug_macro   0x00000000000194d5       0xbd grbl/coolant_control.o
 .debug_macro   0x0000000000019592      0x44e grbl/eeprom.o
 .debug_macro   0x00000000000199e0       0x10 grbl/eeprom.o
 .debug_macro   0x00000000000199f0      0x34d grbl/eeprom.o
 .debug_macro   0x0000000000019d3d       0xa6 grbl/eeprom.o
 .debug_macro   0x0000000000019de3      0x459 grbl/gcode.o
 .debug_macro   0x000000000001a23c      0x42f grbl/jog.o
 .debug_macro   0x000000000001a66b      0x43b grbl/limits.o
 .debug_macro   0x000000000001aaa6      0x42f grbl/motion_control.o
 .debug_macro   0x000000000001aed5      0x435 grbl/nuts_bolts.o
 .debug_macro   0x000000000001b30a      0x42f grbl/planner.o
 .debug_macro   0x000000000001b739      0x42f grbl/print.o
 .debug_macro   0x000000000001bb68      0x42f grbl/probe.o
 .debug_macro   0x000000000001bf97      0x441 grbl/protocol.o
 .debug_macro   0x000000000001c3d8      0x42f grbl/report.o
 .debug_macro   0x000000000001c807      0x441 grbl/serial.o
 .debug_macro   0x000000000001cc48      0x42f grbl/settings.o
 .debug_macro   0x000000000001d077      0x42f grbl/spindle_control.o
 .debug_macro   0x000000000001d4a6      0x483 grbl/stepper.o
 .debug_macro   0x000000000001d929      0x42f grbl/system.o
 .debug_macro   0x000000000001dd58      0x42f stm32/inoutputs.o
 .debug_macro   0x000000000001e187      0x4f6 stm32/stm32utilities.o

.debug_line     0x0000000000000000    0x17f6b
 .debug_line    0x0000000000000000      0x7b6 Drivers/STM32F1xx_HAL_Driver/Src/stm32f1xx_hal.o
 .debug_line    0x00000000000007b6      0x7ff Drivers/STM32F1xx_HAL_Driver/Src/stm32f1xx_hal_cortex.o
 .debug_line    0x0000000000000fb5      0x831 Drivers/STM32F1xx_HAL_Driver/Src/stm32f1xx_hal_flash.o
 .debug_line    0x00000000000017e6      0x85c Drivers/STM32F1xx_HAL_Driver/Src/stm32f1xx_hal_flash_ex.o
 .debug_line    0x0000000000002042      0x77b Drivers/STM32F1xx_HAL_Driver/Src/stm32f1xx_hal_gpio.o
 .debug_line    0x00000000000027bd      0x91a Drivers/STM32F1xx_HAL_Driver/Src/stm32f1xx_hal_rcc.o
 .debug_line    0x00000000000030d7      0x733 Drivers/STM32F1xx_HAL_Driver/Src/stm32f1xx_ll_gpio.o
 .debug_line    0x000000000000380a      0x7d1 Drivers/STM32F1xx_HAL_Driver/Src/stm32f1xx_ll_rcc.o
 .debug_line    0x0000000000003fdb      0x8f0 Drivers/STM32F1xx_HAL_Driver/Src/stm32f1xx_ll_tim.o
 .debug_line    0x00000000000048cb      0x723 Drivers/STM32F1xx_HAL_Driver/Src/stm32f1xx_ll_usart.o
 .debug_line    0x0000000000004fee      0xa65 Src/gpio.o
 .debug_line    0x0000000000005a53      0xb54 Src/main.o
 .debug_line    0x00000000000065a7      0xa12 Src/stm32f1xx_hal_msp.o
 .debug_line    0x0000000000006fb9      0xb74 Src/stm32f1xx_it.o
 .debug_line    0x0000000000007b2d      0x740 Src/syscalls.o
 .debug_line    0x000000000000826d      0x60f Src/system_stm32f1xx.o
 .debug_line    0x000000000000887c      0xbad Src/tim.o
 .debug_line    0x0000000000009429      0xa90 Src/usart.o
 .debug_line    0x0000000000009eb9      0xa6e grbl/coolant_control.o
 .debug_line    0x000000000000a927      0xaf4 grbl/eeprom.o
 .debug_line    0x000000000000b41b      0xe27 grbl/gcode.o
 .debug_line    0x000000000000c242      0xa06 grbl/jog.o
 .debug_line    0x000000000000cc48      0xb9e grbl/limits.o
 .debug_line    0x000000000000d7e6      0xb8a grbl/motion_control.o
 .debug_line    0x000000000000e370      0xb30 grbl/nuts_bolts.o
 .debug_line    0x000000000000eea0      0xcd8 grbl/planner.o
 .debug_line    0x000000000000fb78      0xb0a grbl/print.o
 .debug_line    0x0000000000010682      0xa4b grbl/probe.o
 .debug_line    0x00000000000110cd      0xc25 grbl/protocol.o
 .debug_line    0x0000000000011cf2      0xd92 grbl/report.o
 .debug_line    0x0000000000012a84      0xad7 grbl/serial.o
 .debug_line    0x000000000001355b      0xc4b grbl/settings.o
 .debug_line    0x00000000000141a6      0xae4 grbl/spindle_control.o
 .debug_line    0x0000000000014c8a      0xe7a grbl/stepper.o
 .debug_line    0x0000000000015b04      0xd1e grbl/system.o
 .debug_line    0x0000000000016822       0x7d startup/startup_stm32f103xb.o
 .debug_line    0x000000000001689f      0xae3 stm32/inoutputs.o
 .debug_line    0x0000000000017382      0xbe9 stm32/stm32utilities.o

.debug_str      0x0000000000000000    0x7d3ce
 .debug_str     0x0000000000000000    0x62f0f Drivers/STM32F1xx_HAL_Driver/Src/stm32f1xx_hal.o
                                      0x633b8 (size before relaxing)
 .debug_str     0x0000000000062f0f      0x2e1 Drivers/STM32F1xx_HAL_Driver/Src/stm32f1xx_hal_cortex.o
                                      0x63381 (size before relaxing)
 .debug_str     0x00000000000631f0      0x2cb Drivers/STM32F1xx_HAL_Driver/Src/stm32f1xx_hal_flash.o
                                      0x62fef (size before relaxing)
 .debug_str     0x00000000000634bb      0x361 Drivers/STM32F1xx_HAL_Driver/Src/stm32f1xx_hal_flash_ex.o
                                      0x6319d (size before relaxing)
 .debug_str     0x000000000006381c      0x382 Drivers/STM32F1xx_HAL_Driver/Src/stm32f1xx_hal_gpio.o
                                      0x630ac (size before relaxing)
 .debug_str     0x0000000000063b9e      0x373 Drivers/STM32F1xx_HAL_Driver/Src/stm32f1xx_hal_rcc.o
                                      0x6310c (size before relaxing)
 .debug_str     0x0000000000063f11     0x1957 Drivers/STM32F1xx_HAL_Driver/Src/stm32f1xx_ll_gpio.o
                                      0x64639 (size before relaxing)
 .debug_str     0x0000000000065868     0x14cf Drivers/STM32F1xx_HAL_Driver/Src/stm32f1xx_ll_rcc.o
                                      0x641a4 (size before relaxing)
 .debug_str     0x0000000000066d37     0x40cd Drivers/STM32F1xx_HAL_Driver/Src/stm32f1xx_ll_tim.o
                                      0x6737e (size before relaxing)
 .debug_str     0x000000000006ae04     0x1650 Drivers/STM32F1xx_HAL_Driver/Src/stm32f1xx_ll_usart.o
                                      0x65a8d (size before relaxing)
 .debug_str     0x000000000006c454     0xb477 Src/gpio.o
                                      0x7485d (size before relaxing)
 .debug_str     0x00000000000778cb      0x1a5 Src/main.o
                                      0x74c1c (size before relaxing)
 .debug_str     0x0000000000077a70       0x1b Src/stm32f1xx_hal_msp.o
                                      0x744f4 (size before relaxing)
 .debug_str     0x0000000000077a8b      0x1d8 Src/stm32f1xx_it.o
                                      0x74a3e (size before relaxing)
 .debug_str     0x0000000000077c63     0x2302 Src/syscalls.o
                                       0x8916 (size before relaxing)
 .debug_str     0x0000000000079f65       0x5f Src/system_stm32f1xx.o
                                      0x62d5d (size before relaxing)
 .debug_str     0x0000000000079fc4       0xf0 Src/tim.o
                                      0x74c82 (size before relaxing)
 .debug_str     0x000000000007a0b4       0x56 Src/usart.o
                                      0x74682 (size before relaxing)
 .debug_str     0x000000000007a10a       0xb0 grbl/coolant_control.o
                                      0x7454d (size before relaxing)
 .debug_str     0x000000000007a1ba     0x1626 grbl/eeprom.o
                                      0x75b45 (size before relaxing)
 .debug_str     0x000000000007b7e0      0x3b9 grbl/gcode.o
                                      0x748c7 (size before relaxing)
 .debug_str     0x000000000007bb99       0x5a grbl/jog.o
                                      0x7453c (size before relaxing)
 .debug_str     0x000000000007bbf3      0x16b grbl/limits.o
                                      0x74a5d (size before relaxing)
 .debug_str     0x000000000007bd5e      0x1b4 grbl/motion_control.o
                                      0x74af1 (size before relaxing)
 .debug_str     0x000000000007bf12       0xf8 grbl/nuts_bolts.o
                                      0x7460c (size before relaxing)
 .debug_str     0x000000000007c00a      0x329 grbl/planner.o
                                      0x748dc (size before relaxing)
 .debug_str     0x000000000007c333       0xcf grbl/print.o
                                      0x74549 (size before relaxing)
 .debug_str     0x000000000007c402       0x36 grbl/probe.o
                                      0x7451c (size before relaxing)
 .debug_str     0x000000000007c438      0x207 grbl/protocol.o
                                      0x74947 (size before relaxing)
 .debug_str     0x000000000007c63f      0x283 grbl/report.o
                                      0x7488a (size before relaxing)
 .debug_str     0x000000000007c8c2      0x165 grbl/serial.o
                                      0x7469d (size before relaxing)
 .debug_str     0x000000000007ca27      0x137 grbl/settings.o
                                      0x74747 (size before relaxing)
 .debug_str     0x000000000007cb5e       0xc1 grbl/spindle_control.o
                                      0x74664 (size before relaxing)
 .debug_str     0x000000000007cc1f      0x509 grbl/stepper.o
                                      0x750d0 (size before relaxing)
 .debug_str     0x000000000007d128       0x73 grbl/system.o
                                      0x748e4 (size before relaxing)
 .debug_str     0x000000000007d19b       0x2f startup/startup_stm32f103xb.o
                                         0x60 (size before relaxing)
 .debug_str     0x000000000007d1ca      0x110 stm32/inoutputs.o
                                      0x74662 (size before relaxing)
 .debug_str     0x000000000007d2da       0xf4 stm32/stm32utilities.o
                                      0x7585d (size before relaxing)

.comment        0x0000000000000000       0x7b
 .comment       0x0000000000000000       0x7b Drivers/STM32F1xx_HAL_Driver/Src/stm32f1xx_hal.o
                                         0x7c (size before relaxing)
 .comment       0x000000000000007b       0x7c Drivers/STM32F1xx_HAL_Driver/Src/stm32f1xx_hal_cortex.o
 .comment       0x000000000000007b       0x7c Drivers/STM32F1xx_HAL_Driver/Src/stm32f1xx_hal_flash.o
 .comment       0x000000000000007b       0x7c Drivers/STM32F1xx_HAL_Driver/Src/stm32f1xx_hal_flash_ex.o
 .comment       0x000000000000007b       0x7c Drivers/STM32F1xx_HAL_Driver/Src/stm32f1xx_hal_gpio.o
 .comment       0x000000000000007b       0x7c Drivers/STM32F1xx_HAL_Driver/Src/stm32f1xx_hal_rcc.o
 .comment       0x000000000000007b       0x7c Drivers/STM32F1xx_HAL_Driver/Src/stm32f1xx_ll_gpio.o
 .comment       0x000000000000007b       0x7c Drivers/STM32F1xx_HAL_Driver/Src/stm32f1xx_ll_rcc.o
 .comment       0x000000000000007b       0x7c Drivers/STM32F1xx_HAL_Driver/Src/stm32f1xx_ll_tim.o
 .comment       0x000000000000007b       0x7c Drivers/STM32F1xx_HAL_Driver/Src/stm32f1xx_ll_usart.o
 .comment       0x000000000000007b       0x7c Src/gpio.o
 .comment       0x000000000000007b       0x7c Src/main.o
 .comment       0x000000000000007b       0x7c Src/stm32f1xx_hal_msp.o
 .comment       0x000000000000007b       0x7c Src/stm32f1xx_it.o
 .comment       0x000000000000007b       0x7c Src/syscalls.o
 .comment       0x000000000000007b       0x7c Src/system_stm32f1xx.o
 .comment       0x000000000000007b       0x7c Src/tim.o
 .comment       0x000000000000007b       0x7c Src/usart.o
 .comment       0x000000000000007b       0x7c grbl/coolant_control.o
 .comment       0x000000000000007b       0x7c grbl/eeprom.o
 .comment       0x000000000000007b       0x7c grbl/gcode.o
 .comment       0x000000000000007b       0x7c grbl/jog.o
 .comment       0x000000000000007b       0x7c grbl/limits.o
 .comment       0x000000000000007b       0x7c grbl/motion_control.o
 .comment       0x000000000000007b       0x7c grbl/nuts_bolts.o
 .comment       0x000000000000007b       0x7c grbl/planner.o
 .comment       0x000000000000007b       0x7c grbl/print.o
 .comment       0x000000000000007b       0x7c grbl/probe.o
 .comment       0x000000000000007b       0x7c grbl/protocol.o
 .comment       0x000000000000007b       0x7c grbl/report.o
 .comment       0x000000000000007b       0x7c grbl/serial.o
 .comment       0x000000000000007b       0x7c grbl/settings.o
 .comment       0x000000000000007b       0x7c grbl/spindle_control.o
 .comment       0x000000000000007b       0x7c grbl/stepper.o
 .comment       0x000000000000007b       0x7c grbl/system.o
 .comment       0x000000000000007b       0x7c stm32/inoutputs.o
 .comment       0x000000000000007b       0x7c stm32/stm32utilities.o

.debug_frame    0x0000000000000000     0x2d7c
 .debug_frame   0x0000000000000000      0x1d4 Drivers/STM32F1xx_HAL_Driver/Src/stm32f1xx_hal.o
 .debug_frame   0x00000000000001d4      0x120 Drivers/STM32F1xx_HAL_Driver/Src/stm32f1xx_hal_cortex.o
 .debug_frame   0x00000000000002f4      0x120 Drivers/STM32F1xx_HAL_Driver/Src/stm32f1xx_hal_flash.o
 .debug_frame   0x0000000000000414       0xf0 Drivers/STM32F1xx_HAL_Driver/Src/stm32f1xx_hal_flash_ex.o
 .debug_frame   0x0000000000000504       0xd8 Drivers/STM32F1xx_HAL_Driver/Src/stm32f1xx_hal_gpio.o
 .debug_frame   0x00000000000005dc      0x150 Drivers/STM32F1xx_HAL_Driver/Src/stm32f1xx_hal_rcc.o
 .debug_frame   0x000000000000072c       0x58 Drivers/STM32F1xx_HAL_Driver/Src/stm32f1xx_ll_gpio.o
 .debug_frame   0x0000000000000784       0xc0 Drivers/STM32F1xx_HAL_Driver/Src/stm32f1xx_ll_rcc.o
 .debug_frame   0x0000000000000844      0x110 Drivers/STM32F1xx_HAL_Driver/Src/stm32f1xx_ll_tim.o
 .debug_frame   0x0000000000000954       0x80 Drivers/STM32F1xx_HAL_Driver/Src/stm32f1xx_ll_usart.o
 .debug_frame   0x00000000000009d4       0x3c Src/gpio.o
 .debug_frame   0x0000000000000a10       0x60 Src/main.o
 .debug_frame   0x0000000000000a70       0x28 Src/stm32f1xx_hal_msp.o
 .debug_frame   0x0000000000000a98      0x154 Src/stm32f1xx_it.o
 .debug_frame   0x0000000000000bec      0x1a8 Src/syscalls.o
 .debug_frame   0x0000000000000d94       0x30 Src/system_stm32f1xx.o
 .debug_frame   0x0000000000000dc4       0x7c Src/tim.o
 .debug_frame   0x0000000000000e40       0x30 Src/usart.o
 .debug_frame   0x0000000000000e70       0x88 grbl/coolant_control.o
 .debug_frame   0x0000000000000ef8       0xb4 grbl/eeprom.o
 .debug_frame   0x0000000000000fac       0x74 grbl/gcode.o
 .debug_frame   0x0000000000001020       0x2c grbl/jog.o
 .debug_frame   0x000000000000104c       0xcc grbl/limits.o
 .debug_frame   0x0000000000001118      0x104 grbl/motion_control.o
 .debug_frame   0x000000000000121c      0x104 grbl/nuts_bolts.o
 .debug_frame   0x0000000000001320      0x194 grbl/planner.o
 .debug_frame   0x00000000000014b4      0x124 grbl/print.o
 .debug_frame   0x00000000000015d8       0x5c grbl/probe.o
 .debug_frame   0x0000000000001634       0xc0 grbl/protocol.o
 .debug_frame   0x00000000000016f4      0x268 grbl/report.o
 .debug_frame   0x000000000000195c       0xb8 grbl/serial.o
 .debug_frame   0x0000000000001a14      0x164 grbl/settings.o
 .debug_frame   0x0000000000001b78       0xc4 grbl/spindle_control.o
 .debug_frame   0x0000000000001c3c      0x138 grbl/stepper.o
 .debug_frame   0x0000000000001d74      0x190 grbl/system.o
 .debug_frame   0x0000000000001f04      0x114 stm32/inoutputs.o
 .debug_frame   0x0000000000002018      0x104 stm32/stm32utilities.o
 .debug_frame   0x000000000000211c       0x20 c:/st/stm32cubeide_1.3.0/stm32cubeide/plugins/com.st.stm32cube.ide.mcu.externaltools.gnu-tools-for-stm32.7-2018-q2-update.win32_1.0.0.201904181610/tools/bin/../lib/gcc/arm-none-eabi/7.3.1/../../../../arm-none-eabi/lib/thumb/v7-m\libc_nano.a(lib_a-errno.o)
 .debug_frame   0x000000000000213c       0x2c c:/st/stm32cubeide_1.3.0/stm32cubeide/plugins/com.st.stm32cube.ide.mcu.externaltools.gnu-tools-for-stm32.7-2018-q2-update.win32_1.0.0.201904181610/tools/bin/../lib/gcc/arm-none-eabi/7.3.1/../../../../arm-none-eabi/lib/thumb/v7-m\libc_nano.a(lib_a-init.o)
 .debug_frame   0x0000000000002168       0x2c c:/st/stm32cubeide_1.3.0/stm32cubeide/plugins/com.st.stm32cube.ide.mcu.externaltools.gnu-tools-for-stm32.7-2018-q2-update.win32_1.0.0.201904181610/tools/bin/../lib/gcc/arm-none-eabi/7.3.1/../../../../arm-none-eabi/lib/thumb/v7-m\libc_nano.a(lib_a-memcmp.o)
 .debug_frame   0x0000000000002194       0x20 c:/st/stm32cubeide_1.3.0/stm32cubeide/plugins/com.st.stm32cube.ide.mcu.externaltools.gnu-tools-for-stm32.7-2018-q2-update.win32_1.0.0.201904181610/tools/bin/../lib/gcc/arm-none-eabi/7.3.1/../../../../arm-none-eabi/lib/thumb/v7-m\libc_nano.a(lib_a-memset.o)
 .debug_frame   0x00000000000021b4       0x6c c:/st/stm32cubeide_1.3.0/stm32cubeide/plugins/com.st.stm32cube.ide.mcu.externaltools.gnu-tools-for-stm32.7-2018-q2-update.win32_1.0.0.201904181610/tools/bin/../lib/gcc/arm-none-eabi/7.3.1/../../../../arm-none-eabi/lib/thumb/v7-m\libc_nano.a(lib_a-sprintf.o)
 .debug_frame   0x0000000000002220       0x90 c:/st/stm32cubeide_1.3.0/stm32cubeide/plugins/com.st.stm32cube.ide.mcu.externaltools.gnu-tools-for-stm32.7-2018-q2-update.win32_1.0.0.201904181610/tools/bin/../lib/gcc/arm-none-eabi/7.3.1/../../../../arm-none-eabi/lib/thumb/v7-m\libc_nano.a(lib_a-nano-svfprintf.o)
 .debug_frame   0x00000000000022b0       0x60 c:/st/stm32cubeide_1.3.0/stm32cubeide/plugins/com.st.stm32cube.ide.mcu.externaltools.gnu-tools-for-stm32.7-2018-q2-update.win32_1.0.0.201904181610/tools/bin/../lib/gcc/arm-none-eabi/7.3.1/../../../../arm-none-eabi/lib/thumb/v7-m\libc_nano.a(lib_a-nano-vfprintf_i.o)
 .debug_frame   0x0000000000002310       0x28 c:/st/stm32cubeide_1.3.0/stm32cubeide/plugins/com.st.stm32cube.ide.mcu.externaltools.gnu-tools-for-stm32.7-2018-q2-update.win32_1.0.0.201904181610/tools/bin/../lib/gcc/arm-none-eabi/7.3.1/../../../../arm-none-eabi/lib/thumb/v7-m\libc_nano.a(lib_a-memchr-stub.o)
 .debug_frame   0x0000000000002338       0x28 c:/st/stm32cubeide_1.3.0/stm32cubeide/plugins/com.st.stm32cube.ide.mcu.externaltools.gnu-tools-for-stm32.7-2018-q2-update.win32_1.0.0.201904181610/tools/bin/../lib/gcc/arm-none-eabi/7.3.1/../../../../arm-none-eabi/lib/thumb/v7-m\libc_nano.a(lib_a-memcpy-stub.o)
 .debug_frame   0x0000000000002360       0x28 c:/st/stm32cubeide_1.3.0/stm32cubeide/plugins/com.st.stm32cube.ide.mcu.externaltools.gnu-tools-for-stm32.7-2018-q2-update.win32_1.0.0.201904181610/tools/bin/../lib/gcc/arm-none-eabi/7.3.1/../../../../arm-none-eabi/lib/thumb/v7-m\libc_nano.a(lib_a-memmove.o)
 .debug_frame   0x0000000000002388       0x38 c:/st/stm32cubeide_1.3.0/stm32cubeide/plugins/com.st.stm32cube.ide.mcu.externaltools.gnu-tools-for-stm32.7-2018-q2-update.win32_1.0.0.201904181610/tools/bin/../lib/gcc/arm-none-eabi/7.3.1/../../../../arm-none-eabi/lib/thumb/v7-m\libc_nano.a(lib_a-nano-freer.o)
 .debug_frame   0x00000000000023c0       0x2c c:/st/stm32cubeide_1.3.0/stm32cubeide/plugins/com.st.stm32cube.ide.mcu.externaltools.gnu-tools-for-stm32.7-2018-q2-update.win32_1.0.0.201904181610/tools/bin/../lib/gcc/arm-none-eabi/7.3.1/../../../../arm-none-eabi/lib/thumb/v7-m\libc_nano.a(lib_a-nano-mallocr.o)
 .debug_frame   0x00000000000023ec       0x3c c:/st/stm32cubeide_1.3.0/stm32cubeide/plugins/com.st.stm32cube.ide.mcu.externaltools.gnu-tools-for-stm32.7-2018-q2-update.win32_1.0.0.201904181610/tools/bin/../lib/gcc/arm-none-eabi/7.3.1/../../../../arm-none-eabi/lib/thumb/v7-m\libc_nano.a(lib_a-nano-reallocr.o)
 .debug_frame   0x0000000000002428       0x2c c:/st/stm32cubeide_1.3.0/stm32cubeide/plugins/com.st.stm32cube.ide.mcu.externaltools.gnu-tools-for-stm32.7-2018-q2-update.win32_1.0.0.201904181610/tools/bin/../lib/gcc/arm-none-eabi/7.3.1/../../../../arm-none-eabi/lib/thumb/v7-m\libc_nano.a(lib_a-sbrkr.o)
 .debug_frame   0x0000000000002454       0x30 c:/st/stm32cubeide_1.3.0/stm32cubeide/plugins/com.st.stm32cube.ide.mcu.externaltools.gnu-tools-for-stm32.7-2018-q2-update.win32_1.0.0.201904181610/tools/bin/../lib/gcc/arm-none-eabi/7.3.1/../../../../arm-none-eabi/lib/thumb/v7-m\libc_nano.a(lib_a-mlock.o)
 .debug_frame   0x0000000000002484       0x20 c:/st/stm32cubeide_1.3.0/stm32cubeide/plugins/com.st.stm32cube.ide.mcu.externaltools.gnu-tools-for-stm32.7-2018-q2-update.win32_1.0.0.201904181610/tools/bin/../lib/gcc/arm-none-eabi/7.3.1/../../../../arm-none-eabi/lib/thumb/v7-m\libc_nano.a(lib_a-nano-msizer.o)
 .debug_frame   0x00000000000024a4       0x5c c:/st/stm32cubeide_1.3.0/stm32cubeide/plugins/com.st.stm32cube.ide.mcu.externaltools.gnu-tools-for-stm32.7-2018-q2-update.win32_1.0.0.201904181610/tools/bin/../lib/gcc/arm-none-eabi/7.3.1/../../../../arm-none-eabi/lib/thumb/v7-m\libc_nano.a(lib_a-reent.o)
 .debug_frame   0x0000000000002500       0x34 c:/st/stm32cubeide_1.3.0/stm32cubeide/plugins/com.st.stm32cube.ide.mcu.externaltools.gnu-tools-for-stm32.7-2018-q2-update.win32_1.0.0.201904181610/tools/bin/../lib/gcc/arm-none-eabi/7.3.1/../../../../arm-none-eabi/lib/thumb/v7-m\libm.a(lib_a-s_ceil.o)
 .debug_frame   0x0000000000002534       0x34 c:/st/stm32cubeide_1.3.0/stm32cubeide/plugins/com.st.stm32cube.ide.mcu.externaltools.gnu-tools-for-stm32.7-2018-q2-update.win32_1.0.0.201904181610/tools/bin/../lib/gcc/arm-none-eabi/7.3.1/../../../../arm-none-eabi/lib/thumb/v7-m\libm.a(lib_a-s_floor.o)
 .debug_frame   0x0000000000002568       0x30 c:/st/stm32cubeide_1.3.0/stm32cubeide/plugins/com.st.stm32cube.ide.mcu.externaltools.gnu-tools-for-stm32.7-2018-q2-update.win32_1.0.0.201904181610/tools/bin/../lib/gcc/arm-none-eabi/7.3.1/../../../../arm-none-eabi/lib/thumb/v7-m\libm.a(lib_a-s_lround.o)
 .debug_frame   0x0000000000002598       0x30 c:/st/stm32cubeide_1.3.0/stm32cubeide/plugins/com.st.stm32cube.ide.mcu.externaltools.gnu-tools-for-stm32.7-2018-q2-update.win32_1.0.0.201904181610/tools/bin/../lib/gcc/arm-none-eabi/7.3.1/../../../../arm-none-eabi/lib/thumb/v7-m\libm.a(lib_a-s_round.o)
 .debug_frame   0x00000000000025c8       0x30 c:/st/stm32cubeide_1.3.0/stm32cubeide/plugins/com.st.stm32cube.ide.mcu.externaltools.gnu-tools-for-stm32.7-2018-q2-update.win32_1.0.0.201904181610/tools/bin/../lib/gcc/arm-none-eabi/7.3.1/../../../../arm-none-eabi/lib/thumb/v7-m\libm.a(lib_a-s_trunc.o)
 .debug_frame   0x00000000000025f8       0x2c c:/st/stm32cubeide_1.3.0/stm32cubeide/plugins/com.st.stm32cube.ide.mcu.externaltools.gnu-tools-for-stm32.7-2018-q2-update.win32_1.0.0.201904181610/tools/bin/../lib/gcc/arm-none-eabi/7.3.1/../../../../arm-none-eabi/lib/thumb/v7-m\libm.a(lib_a-sf_ceil.o)
 .debug_frame   0x0000000000002624       0x2c c:/st/stm32cubeide_1.3.0/stm32cubeide/plugins/com.st.stm32cube.ide.mcu.externaltools.gnu-tools-for-stm32.7-2018-q2-update.win32_1.0.0.201904181610/tools/bin/../lib/gcc/arm-none-eabi/7.3.1/../../../../arm-none-eabi/lib/thumb/v7-m\libm.a(lib_a-sf_cos.o)
 .debug_frame   0x0000000000002650       0x2c c:/st/stm32cubeide_1.3.0/stm32cubeide/plugins/com.st.stm32cube.ide.mcu.externaltools.gnu-tools-for-stm32.7-2018-q2-update.win32_1.0.0.201904181610/tools/bin/../lib/gcc/arm-none-eabi/7.3.1/../../../../arm-none-eabi/lib/thumb/v7-m\libm.a(lib_a-sf_sin.o)
 .debug_frame   0x000000000000267c       0x40 c:/st/stm32cubeide_1.3.0/stm32cubeide/plugins/com.st.stm32cube.ide.mcu.externaltools.gnu-tools-for-stm32.7-2018-q2-update.win32_1.0.0.201904181610/tools/bin/../lib/gcc/arm-none-eabi/7.3.1/../../../../arm-none-eabi/lib/thumb/v7-m\libm.a(lib_a-w_sqrt.o)
 .debug_frame   0x00000000000026bc       0x20 c:/st/stm32cubeide_1.3.0/stm32cubeide/plugins/com.st.stm32cube.ide.mcu.externaltools.gnu-tools-for-stm32.7-2018-q2-update.win32_1.0.0.201904181610/tools/bin/../lib/gcc/arm-none-eabi/7.3.1/../../../../arm-none-eabi/lib/thumb/v7-m\libm.a(lib_a-wf_atan2.o)
 .debug_frame   0x00000000000026dc       0x38 c:/st/stm32cubeide_1.3.0/stm32cubeide/plugins/com.st.stm32cube.ide.mcu.externaltools.gnu-tools-for-stm32.7-2018-q2-update.win32_1.0.0.201904181610/tools/bin/../lib/gcc/arm-none-eabi/7.3.1/../../../../arm-none-eabi/lib/thumb/v7-m\libm.a(lib_a-wf_sqrt.o)
 .debug_frame   0x0000000000002714       0x30 c:/st/stm32cubeide_1.3.0/stm32cubeide/plugins/com.st.stm32cube.ide.mcu.externaltools.gnu-tools-for-stm32.7-2018-q2-update.win32_1.0.0.201904181610/tools/bin/../lib/gcc/arm-none-eabi/7.3.1/../../../../arm-none-eabi/lib/thumb/v7-m\libm.a(lib_a-e_sqrt.o)
 .debug_frame   0x0000000000002744       0x3c c:/st/stm32cubeide_1.3.0/stm32cubeide/plugins/com.st.stm32cube.ide.mcu.externaltools.gnu-tools-for-stm32.7-2018-q2-update.win32_1.0.0.201904181610/tools/bin/../lib/gcc/arm-none-eabi/7.3.1/../../../../arm-none-eabi/lib/thumb/v7-m\libm.a(lib_a-ef_atan2.o)
 .debug_frame   0x0000000000002780       0x40 c:/st/stm32cubeide_1.3.0/stm32cubeide/plugins/com.st.stm32cube.ide.mcu.externaltools.gnu-tools-for-stm32.7-2018-q2-update.win32_1.0.0.201904181610/tools/bin/../lib/gcc/arm-none-eabi/7.3.1/../../../../arm-none-eabi/lib/thumb/v7-m\libm.a(lib_a-ef_rem_pio2.o)
 .debug_frame   0x00000000000027c0       0x2c c:/st/stm32cubeide_1.3.0/stm32cubeide/plugins/com.st.stm32cube.ide.mcu.externaltools.gnu-tools-for-stm32.7-2018-q2-update.win32_1.0.0.201904181610/tools/bin/../lib/gcc/arm-none-eabi/7.3.1/../../../../arm-none-eabi/lib/thumb/v7-m\libm.a(lib_a-ef_sqrt.o)
 .debug_frame   0x00000000000027ec       0x30 c:/st/stm32cubeide_1.3.0/stm32cubeide/plugins/com.st.stm32cube.ide.mcu.externaltools.gnu-tools-for-stm32.7-2018-q2-update.win32_1.0.0.201904181610/tools/bin/../lib/gcc/arm-none-eabi/7.3.1/../../../../arm-none-eabi/lib/thumb/v7-m\libm.a(lib_a-kf_cos.o)
 .debug_frame   0x000000000000281c       0x44 c:/st/stm32cubeide_1.3.0/stm32cubeide/plugins/com.st.stm32cube.ide.mcu.externaltools.gnu-tools-for-stm32.7-2018-q2-update.win32_1.0.0.201904181610/tools/bin/../lib/gcc/arm-none-eabi/7.3.1/../../../../arm-none-eabi/lib/thumb/v7-m\libm.a(lib_a-kf_rem_pio2.o)
 .debug_frame   0x0000000000002860       0x34 c:/st/stm32cubeide_1.3.0/stm32cubeide/plugins/com.st.stm32cube.ide.mcu.externaltools.gnu-tools-for-stm32.7-2018-q2-update.win32_1.0.0.201904181610/tools/bin/../lib/gcc/arm-none-eabi/7.3.1/../../../../arm-none-eabi/lib/thumb/v7-m\libm.a(lib_a-kf_sin.o)
 .debug_frame   0x0000000000002894       0x20 c:/st/stm32cubeide_1.3.0/stm32cubeide/plugins/com.st.stm32cube.ide.mcu.externaltools.gnu-tools-for-stm32.7-2018-q2-update.win32_1.0.0.201904181610/tools/bin/../lib/gcc/arm-none-eabi/7.3.1/../../../../arm-none-eabi/lib/thumb/v7-m\libm.a(lib_a-s_matherr.o)
 .debug_frame   0x00000000000028b4       0x30 c:/st/stm32cubeide_1.3.0/stm32cubeide/plugins/com.st.stm32cube.ide.mcu.externaltools.gnu-tools-for-stm32.7-2018-q2-update.win32_1.0.0.201904181610/tools/bin/../lib/gcc/arm-none-eabi/7.3.1/../../../../arm-none-eabi/lib/thumb/v7-m\libm.a(lib_a-sf_atan.o)
 .debug_frame   0x00000000000028e4       0x20 c:/st/stm32cubeide_1.3.0/stm32cubeide/plugins/com.st.stm32cube.ide.mcu.externaltools.gnu-tools-for-stm32.7-2018-q2-update.win32_1.0.0.201904181610/tools/bin/../lib/gcc/arm-none-eabi/7.3.1/../../../../arm-none-eabi/lib/thumb/v7-m\libm.a(lib_a-sf_fabs.o)
 .debug_frame   0x0000000000002904       0x2c c:/st/stm32cubeide_1.3.0/stm32cubeide/plugins/com.st.stm32cube.ide.mcu.externaltools.gnu-tools-for-stm32.7-2018-q2-update.win32_1.0.0.201904181610/tools/bin/../lib/gcc/arm-none-eabi/7.3.1/../../../../arm-none-eabi/lib/thumb/v7-m\libm.a(lib_a-sf_floor.o)
 .debug_frame   0x0000000000002930       0x28 c:/st/stm32cubeide_1.3.0/stm32cubeide/plugins/com.st.stm32cube.ide.mcu.externaltools.gnu-tools-for-stm32.7-2018-q2-update.win32_1.0.0.201904181610/tools/bin/../lib/gcc/arm-none-eabi/7.3.1/../../../../arm-none-eabi/lib/thumb/v7-m\libm.a(lib_a-sf_scalbn.o)
 .debug_frame   0x0000000000002958       0x20 c:/st/stm32cubeide_1.3.0/stm32cubeide/plugins/com.st.stm32cube.ide.mcu.externaltools.gnu-tools-for-stm32.7-2018-q2-update.win32_1.0.0.201904181610/tools/bin/../lib/gcc/arm-none-eabi/7.3.1/../../../../arm-none-eabi/lib/thumb/v7-m\libm.a(lib_a-sf_copysign.o)
 .debug_frame   0x0000000000002978       0xac c:/st/stm32cubeide_1.3.0/stm32cubeide/plugins/com.st.stm32cube.ide.mcu.externaltools.gnu-tools-for-stm32.7-2018-q2-update.win32_1.0.0.201904181610/tools/bin/../lib/gcc/arm-none-eabi/7.3.1/thumb/v7-m\libgcc.a(_arm_addsubdf3.o)
 .debug_frame   0x0000000000002a24       0x50 c:/st/stm32cubeide_1.3.0/stm32cubeide/plugins/com.st.stm32cube.ide.mcu.externaltools.gnu-tools-for-stm32.7-2018-q2-update.win32_1.0.0.201904181610/tools/bin/../lib/gcc/arm-none-eabi/7.3.1/thumb/v7-m\libgcc.a(_arm_muldivdf3.o)
 .debug_frame   0x0000000000002a74       0xc4 c:/st/stm32cubeide_1.3.0/stm32cubeide/plugins/com.st.stm32cube.ide.mcu.externaltools.gnu-tools-for-stm32.7-2018-q2-update.win32_1.0.0.201904181610/tools/bin/../lib/gcc/arm-none-eabi/7.3.1/thumb/v7-m\libgcc.a(_arm_cmpdf2.o)
 .debug_frame   0x0000000000002b38       0x20 c:/st/stm32cubeide_1.3.0/stm32cubeide/plugins/com.st.stm32cube.ide.mcu.externaltools.gnu-tools-for-stm32.7-2018-q2-update.win32_1.0.0.201904181610/tools/bin/../lib/gcc/arm-none-eabi/7.3.1/thumb/v7-m\libgcc.a(_arm_unorddf2.o)
 .debug_frame   0x0000000000002b58       0x24 c:/st/stm32cubeide_1.3.0/stm32cubeide/plugins/com.st.stm32cube.ide.mcu.externaltools.gnu-tools-for-stm32.7-2018-q2-update.win32_1.0.0.201904181610/tools/bin/../lib/gcc/arm-none-eabi/7.3.1/thumb/v7-m\libgcc.a(_arm_fixdfsi.o)
 .debug_frame   0x0000000000002b7c       0x24 c:/st/stm32cubeide_1.3.0/stm32cubeide/plugins/com.st.stm32cube.ide.mcu.externaltools.gnu-tools-for-stm32.7-2018-q2-update.win32_1.0.0.201904181610/tools/bin/../lib/gcc/arm-none-eabi/7.3.1/thumb/v7-m\libgcc.a(_arm_fixunsdfsi.o)
 .debug_frame   0x0000000000002ba0       0x24 c:/st/stm32cubeide_1.3.0/stm32cubeide/plugins/com.st.stm32cube.ide.mcu.externaltools.gnu-tools-for-stm32.7-2018-q2-update.win32_1.0.0.201904181610/tools/bin/../lib/gcc/arm-none-eabi/7.3.1/thumb/v7-m\libgcc.a(_arm_truncdfsf2.o)
 .debug_frame   0x0000000000002bc4       0x4c c:/st/stm32cubeide_1.3.0/stm32cubeide/plugins/com.st.stm32cube.ide.mcu.externaltools.gnu-tools-for-stm32.7-2018-q2-update.win32_1.0.0.201904181610/tools/bin/../lib/gcc/arm-none-eabi/7.3.1/thumb/v7-m\libgcc.a(_arm_addsubsf3.o)
 .debug_frame   0x0000000000002c10       0x38 c:/st/stm32cubeide_1.3.0/stm32cubeide/plugins/com.st.stm32cube.ide.mcu.externaltools.gnu-tools-for-stm32.7-2018-q2-update.win32_1.0.0.201904181610/tools/bin/../lib/gcc/arm-none-eabi/7.3.1/thumb/v7-m\libgcc.a(_arm_muldivsf3.o)
 .debug_frame   0x0000000000002c48       0xc8 c:/st/stm32cubeide_1.3.0/stm32cubeide/plugins/com.st.stm32cube.ide.mcu.externaltools.gnu-tools-for-stm32.7-2018-q2-update.win32_1.0.0.201904181610/tools/bin/../lib/gcc/arm-none-eabi/7.3.1/thumb/v7-m\libgcc.a(_arm_cmpsf2.o)
 .debug_frame   0x0000000000002d10       0x24 c:/st/stm32cubeide_1.3.0/stm32cubeide/plugins/com.st.stm32cube.ide.mcu.externaltools.gnu-tools-for-stm32.7-2018-q2-update.win32_1.0.0.201904181610/tools/bin/../lib/gcc/arm-none-eabi/7.3.1/thumb/v7-m\libgcc.a(_arm_unordsf2.o)
 .debug_frame   0x0000000000002d34       0x24 c:/st/stm32cubeide_1.3.0/stm32cubeide/plugins/com.st.stm32cube.ide.mcu.externaltools.gnu-tools-for-stm32.7-2018-q2-update.win32_1.0.0.201904181610/tools/bin/../lib/gcc/arm-none-eabi/7.3.1/thumb/v7-m\libgcc.a(_arm_fixsfsi.o)
 .debug_frame   0x0000000000002d58       0x24 c:/st/stm32cubeide_1.3.0/stm32cubeide/plugins/com.st.stm32cube.ide.mcu.externaltools.gnu-tools-for-stm32.7-2018-q2-update.win32_1.0.0.201904181610/tools/bin/../lib/gcc/arm-none-eabi/7.3.1/thumb/v7-m\libgcc.a(_arm_fixunssfsi.o)
